:020000041000EA
:10000000971100009381015E1385C1021386C1021E
:100010003306A64093050000EF00D05217150000EC
:10002000130585F76308050017150000130585F112
:10003000EF005076EF005048032501009305410082
:1000400013060000EF0050386F00104403C7010191
:1000500063100704130101FF2324810013840700A8
:100060002326110093070000638807001385010011
:1000700097000000E7000000930710008320C100F4
:100080002388F1000324810013010101678000002F
:100090006780000093070000638A07009385410191
:1000A000138501001703000067000000678000004F
:1000B000130101FD232681021304010393070500A8
:1000C000A30FF4FCB7070050938707012326F4FE23
:1000D0000347F4FD8327C4FE23A0E70013000000BC
:1000E0000324C1021301010367800000130101FD15
:1000F000232611022324810213040103232EA4FCCE
:100100008327C4FD2326F4FE6F0000028327C4FE6C
:1001100083C7070013850700EFF09FF98327C4FE0C
:10012000938717002326F4FE8327C4FE83C70700A6
:10013000E39E07FC13000000130000008320C102AF
:10014000032481021301010367800000130101FCF5
:10015000232E1102232C81021304010493070500AE
:10016000A307F4FC938701AC83A5070003A647000F
:1001700083A6870003A7C700232EB4FC2320C4FE58
:100180002322D4FE2324E4FE83C707012306F4FEC2
:100190008347F4FC93D7470093F7F70F130704FF47
:1001A000B307F70083C7C7FE13850700EFF05FF0C2
:1001B0008347F4FC93F7F700130704FFB307F70036
:1001C00083C7C7FE13850700EFF09FEE1300000002
:1001D0008320C1030324810313010104678000000D
:1001E000130101FE232E1100232C810013040102B0
:1001F0002326A4FE0325C4FEEFF05FEF138541AD77
:10020000EFF0DFEE130000008320C1010324810121
:100210001301010267800000130101FD2326810202
:1002200013040103232EA4FC232CB4FCB7070050B5
:10023000938707022324F4FE832784FE83A7070005
:100240002326F4FE832784FD639407028327C4FDDD
:1002500013071000B317F70093C7F7FF13870700C2
:100260008327C4FEB3F7E7002326F4FE6F00C00225
:10027000032784FD930710006310F7028327C4FD52
:1002800013071000B317F700138707008327C4FE76
:10029000B3E7E7002326F4FE832784FE0327C4FE8A
:1002A00023A0E700130000000324C102130101038F
:1002B00067800000130101FD23268102130401035E
:1002C000232EA4FC232CB4FCB707005093874702CD
:1002D0002324F4FE832784FE83A707002326F4FE4D
:1002E000832784FD639407028327C4FD130710004E
:1002F000B317F70093C7F7FF138707008327C4FEE0
:10030000B3F7E7002326F4FE6F00C002032784FD45
:10031000930710006310F7028327C4FD1307100032
:10032000B317F700138707008327C4FEB3E7E7007E
:100330002326F4FE832784FE0327C4FE23A0E700C0
:10034000130000000324C1021301010367800000B1
:10035000130101FE232E810013040102232604FE53
:100360006F0000018327C4FE938717002326F4FE45
:100370000327C4FE93079000E3F6E7FE1300000096
:10038000130000000324C101130101026780000073
:10039000130101FF2326110023248100130401010E
:1003A000B7070050938707031307100123A0E70046
:1003B000EFF01FFAB70700509387070313072002D7
:1003C00023A0E700EFF0DFF8B7070050938707039B
:1003D0001307000123A0E700EFF09FF7B7070050D5
:1003E000938707031307000223A0E700EFF05FF6EF
:1003F000130000008320C1000324810013010101C8
:1004000067800000130101FF2326110023248100CF
:1004100013040101B7070050938707031307000176
:1004200023A0E700EFF0DFF2B70700509387070340
:100430001307200223A0E700EFF09FF1B707005059
:10044000938707031307100123A0E700EFF05FF085
:10045000130000008320C100032481001301010167
:1004600067800000130101FD23261102232481026D
:100470001304010393070500A30FF4FC230704FEF4
:10048000B7070050938707031307100123A0E70065
:10049000A30704FE6F00C0078347E4FE939717008D
:1004A0002307F4FEB70700509387070313072002C2
:1004B00023A0E700B70700509387070383A707002F
:1004C00013F7270093072000E31EF7FCEFF05FE827
:1004D000B70700509387070383A7070013F7170098
:1004E000930710006318F7008347E4FE93E71700B3
:1004F0002307F4FEB7070050938707031307000292
:1005000023A0E7008347F4FE93871700A307F4FEB8
:100510000347F4FE93077000E3F0E7F88347F4FD28
:10052000638C0700B7070050938707031307000188
:1005300023A0E7006F004001B7070050938707032F
:100540001307100123A0E700B707005093870703A4
:100550001307200223A0E700EFF09FDFB70700504A
:10056000938707031307000223A0E700B707005093
:10057000938707031307100123A0E7008347E4FED6
:10058000138507008320C1020324810213010103A4
:1005900067800000130101FD23261102232481023C
:1005A0001304010393070500A30FF4FC93078000D5
:1005B000A307F4FE6F00C0068307F4FD63DC0700A9
:1005C000B7070050938707031307100123A0E70024
:1005D0006F004001B707005093870703130700011E
:1005E00023A0E700B70700509387070313072002F3
:1005F00023A0E7008347F4FD93971700A30FF4FCB3
:10060000EFF01FD5B70700509387070313070002C9
:1006100023A0E7008347F4FE9387F7FFA307F4FEC8
:100620008347F4FEE39A07F8B70700509387070360
:100630001307100123A0E700B707005093870703B3
:100640001307200223A0E700EFF09FD0B707005068
:100650009387070383A7070093F717009387F7FF94
:1006600093B7170093F7F70F2307F4FEB70700506F
:10067000938707031307000223A0E7008347E4FEE4
:10068000138507008320C1020324810213010103A3
:1006900067800000130101FD23261102232481023B
:1006A0001304010393070500938605001307060052
:1006B000A30FF4FC93870600230FF4FC93070700B5
:1006C000A30EF4FCEFF0DFCC8347F4FD13850700A5
:1006D000EFF05FEC8347E4FD13850700EFF09FEB3D
:1006E0008347D4FD13850700EFF0DFEAEFF09FD1D9
:1006F000232604FE6F004001130000008327C4FE80
:10070000938717002326F4FE0327C4FEB7470F0084
:100710009387F723E3F2E7FE1300000013000000C5
:100720008320C102032481021301010367800000BA
:10073000130101FE232E1100232C8100130401025A
:1007400093070500138705002324C4FEA307F4FEC6
:10075000930707002307F4FEEFF09FC38347F4FEDF
:1007600013850700EFF01FE38347E4FE13850700BE
:10077000EFF05FE2EFF0DFC18347F4FE93E717008D
:1007800093F7F70F13850700EFF0DFE01305000084
:10079000EFF05FCD9307050013870700832784FEE2
:1007A0002380E700EFF01FC6130000008320C10183
:1007B000032481011301010267800000130101FD80
:1007C000232611022324810213040103232EA4FCF7
:1007D000232CB4FC232AC4FCA30704FE8327C4FDF6
:1007E00093F7F70F1307F4FE13060700938507002E
:1007F00013052007EFF0DFF3832784FD939787012C
:1008000093D7874193C7F7FF139787011357874102
:100810008347F4FE9397870193D78741B377F70017
:100820009397870193D7874193F7F70FA307F4FEB8
:10083000832744FD13F7F70F832784FD93F7F70F02
:10084000B377F70013F7F70F8347F4FEB367F700AA
:1008500093F7F70FA307F4FE8327C4FD93F7F70F71
:100860000347F4FE130607009385070013052007CE
:10087000EFF05FE2130000008320C1020324810235
:100880001301010367800000130101FE232E1100F4
:10089000232C810013040102A30704FE230704FE96
:1008A000A30604FE9307F4FE1386070093050000D9
:1008B00013052007EFF0DFE79307E4FE1386070038
:1008C0009305600F13052007EFF09FE69307D4FE12
:1008D000138607009305500F13052007EFF05FE51F
:1008E0000347E4FE930710016318F7040347D4FE9F
:1008F000930750076312F704138581B1EFF00FFFE0
:100900008347D4FE13850700EFF05F848347E4FE3E
:1009100013850700EFF09F83138581B2EFF00FFD81
:100920008347F4FE13850700EFF05F82138501B360
:10093000EFF01F8B6F004006138541B3EFF05F8A25
:10094000138501B5EFF08FFA8347F4FE1385070096
:10095000EFF0CFFF138501B3EFF09F88138501B649
:10096000EFF0CFF88347E4FE13850700EFF00FFEAA
:10097000138501B3EFF0DF861385C1B6EFF00FF7F3
:100980008347D4FE13850700EFF04FFC138501B3B6
:10099000EFF01F8513000000130000008320C10149
:1009A000032481011301010267800000130101FF8C
:1009B00023261100232481001304010113060000E3
:1009C0009305000413051004EFF05FDF130000002F
:1009D000138507008320C100032481001301010156
:1009E00067800000130101FE232E1100232C8100DB
:1009F00013040102232604FE6F008005EFF05F99C7
:100A000013052007EFF01FB9138781AD8327C4FEBC
:100A100093971700B307F70083C7070013850700F4
:100A2000EFF05FB7138781AD8327C4FE939717005C
:100A3000B307F70083C7170013850700EFF09FB5D2
:100A4000EFF05F9C8327C4FE938717002326F4FEF4
:100A50000327C4FE9307E001E3F2E7FA1300000066
:100A6000130000008320C10103248101130101024E
:100A700067800000130101FC232E8102130401048E
:100A80002326A4FC2324B4FC2322C4FC2320D4FC6E
:100A9000B70700402320F4FE032744FC8327C4FC4F
:100AA000B307F740232EF4FC032704FC832784FCC0
:100AB000B307F740232CF4FC8327C4FC2324F4FE63
:100AC000832784FC2322F4FE832784FD13971700D9
:100AD0008327C4FDB307F7402326F4FE6F00C00C44
:100AE0008327C4FE63C60706032744FE9307070057
:100AF00093972700B387E700939767001387070052
:100B0000832784FEB307F70093972700032704FE8B
:100B1000B307F700370700011307F7FF23A0E7002B
:100B2000832744FE938717002322F4FE832784FD46
:100B3000139717008327C4FE3307F7008327C4FDEC
:100B400093971700B307F7402326F4FE6F000005C4
:100B5000032744FE9307070093972700B387E70016
:100B60009397670013870700832784FEB307F70076
:100B700093972700032704FEB307F7003707000108
:100B80001307F7FF23A0E700832784FD939717003F
:100B90000327C4FEB307F7002326F4FE832784FE51
:100BA000938717002324F4FE032784FE832744FC45
:100BB000E348F7F213000000130000000324C10310
:100BC0001301010467800000130101FD23261102B7
:100BD0002324810213040103B70700402324F4FEF9
:100BE000B7070050938707FF2322F4FEB707005092
:100BF0002320F4FE832704FE1307100023A0E70040
:100C0000138581B7EFF0CFDDEFF01FC8138541B931
:100C1000EFF00FDDEFF09FD91385C1BAEFF04FDC95
:100C2000EFF05FDC930720032326F4FE93072003F5
:100C3000232EF4FC9307800C232CF4FC930760090B
:100C4000232AF4FC832644FD032684FD8325C4FD6A
:100C50000325C4FEEFF01FE2832744FE13071000B4
:100C600023A0E7008327C4FE938717002326F4FE02
:100C70000327C4FE9307C012E3DAE7FA93072003C1
:100C80002326F4FE6FF09FFA130101FF9305000085
:100C9000232481002326110013040500EF004018CF
:100CA00003A581BC8327C50363840700E780070091
:100CB00013050400EF00C038130101FF2324810055
:100CC0002320210193070000130900003309F94094
:100CD00023261100232291001359294063000902A1
:100CE000130400009304000083270400938414007D
:100CF00013044400E7800700E31899FE93070000FF
:100D0000130900003309F94013592940630009020F
:100D1000130400009304000083270400938414004C
:100D200013044400E7800700E31899FE8320C10004
:100D300003248100832441000329010013010101E0
:100D4000678000001303F00013070500637EC302F1
:100D50009377F7006390070A63920508937606FF7E
:100D60001376F600B386E6002320B7002322B700EF
:100D70002324B7002326B70013070701E366D7FE35
:100D80006314060067800000B306C34093962600F4
:100D900097020000B38656006780C6002307B7009D
:100DA000A306B7002306B700A305B7002305B700C5
:100DB000A304B7002304B700A303B7002303B700BD
:100DC000A302B7002302B700A301B7002301B700B5
:100DD000A300B7002300B7006780000093F5F50F6C
:100DE00093968500B3E5D50093960501B3E5D5004C
:100DF0006FF0DFF69396270097020000B386560047
:100E000093820000E78006FA93800200938707FF31
:100E10003307F7403306F600E378C3F66FF0DFF3ED
:100E2000130101FD232C410103AA81BC23202103CE
:100E30002326110203298A142324810223229102EA
:100E4000232E3101232A5101232861012326710118
:100E50002324810163000904130B0500938B050013
:100E6000930A10009309F0FF832449001384F4FFD0
:100E70006342040293942400B304990063840B0436
:100E800083A74410638077051304F4FF9384C4FFA1
:100E9000E31634FF8320C10203248102832441022C
:100EA000032901028329C101032A8101832A410107
:100EB000032B0101832BC100032C810013010103CB
:100EC000678000008327490083A644009387F7FFCB
:100ED000638E870423A20400E38806FA8327891817
:100EE00033978A00032C4900B377F7006392070217
:100EF000E78006000327490083278A1463148701CB
:100F0000E38427F9E38807F8138907006FF0DFF51A
:100F10008327C91883A544083377F700631C0700AB
:100F200013050B00E78006006FF0DFFC2322890029
:100F30006FF09FFA13850500E78006006FF09FFBB6
:100F4000130101FF23248100130400009307000014
:100F5000B3878740232291002326110093D4274092
:100F6000638004029387C7FF3384870083270400CC
:100F70009384F4FF1304C4FFE7800700E39804FEA2
:100F80008320C10003248100832441001301010157
:100F9000678000009305050093060000130600001B
:100FA000130500006F00400003A781BC832787144E
:100FB000638C070403A747001308F001634EE8069B
:100FC0001318270063060502338307012324C3088F
:100FD00083A88718130610003316E600B3E8C8008C
:100FE00023A417192324D310930620006304D502E9
:100FF0001307170023A2E700B387070123A4B70054
:1010000013050000678000009307C7142324F7141A
:101010006FF05FFA83A6C7181307170023A2E70033
:1010200033E6C60023A6C718B387070123A4B70079
:1010300013050000678000001305F0FF67800000C3
:10104000930500001306000093060000130700003C
:10105000930700009308D005730000006344050067
:101060006F000000130101FF232481001304050019
:101070002326110033048040EF00C00023208500A8
:101080006F00000003A5C1FF678000009307000008
:1010900063860700138501966FF0DFEF678000001D
:1010A00030313233343536373839616263646566DE
:1010B000000000000D0A0000980301000218030060
:1010C00014701520163018464080411049A855105C
:1010D000560896F67307761F980399029AE09C309B
:1010E0009D61A2A4A3A4A504AB40AF16BA60D1FF32
:1010F000DE10E460FA7D00004964656E746966691B
:101100006564204144560000207265763A20000054
:1011100000000000556E6B6E6F776E2048444D499D
:1011200020656E636F64657220636869702E0000CD
:1011300043686970207265766973696F6E3A200042
:101140004368697020494420303A20004368697040
:1011500020494420313A20004964656E74696679FB
:10116000696E672048444D4920656E636F646572FF
:101170002E2E2E004B69636B2075702048444D491C
:1011800020656E636F6465722E2E2E00506F77653A
:10119000722075702048444D4920656E636F646508
:0511A000722E2E2E004E
:0411A800B011001072
:1011B000000000009C140010041500106C150010B5
:1011C000000000000000000000000000000000001F
:1011D000000000000000000000000000000000000F
:1011E00000000000000000000000000000000000FF
:1011F00000000000000000000000000000000000EF
:1012000000000000000000000000000000000000DE
:1012100000000000000000000000000000000000CE
:1012200000000000000000000000000000000000BE
:1012300000000000000000000000000000000000AE
:10124000000000000000000000000000000000009E
:10125000000000000000000001000000000000008D
:101260000E33CDAB34126DE6ECDE05000B00000052
:10127000000000000000000000000000000000006E
:10128000000000000000000000000000000000005E
:10129000000000000000000000000000000000004E
:1012A000000000000000000000000000000000003E
:1015D000000000000000000000000000B01100103A
:0415E0000000000007
:0415E4004C000010A7
:0415E800940000105B
:0415EC008C1000104F
:0400000510000000E7
:00000001FF
