:020000041000EA
:10000000EF0040386F00000000000000000000001A
:1000100000000000000000000000000000000000E0
:1000200000000000000000000000000000000000D0
:1000300000000000000000000000000000000000C0
:10004000130101FE232E810013040102232604FE66
:100050006F0000018327C4FE938717002326F4FE58
:100060000327C4FEB72700009387F770E3F4E7FE89
:1000700013000000130000000324C101130101025A
:1000800067800000130101FF232611002324810053
:1000900013040101B70700509387070313071001EA
:1000A00023A0E700EFF0DFF9B707005093870703BD
:1000B0001307200223A0E700EFF09FF8B7070050D6
:1000C000938707031307000123A0E700EFF05FF712
:1000D000B7070050938707031307000223A0E70028
:1000E000EFF01FF6130000008320C10003248100FD
:1000F0001301010167800000130101FF2326110095
:100100002324810013040101B707005093870703DC
:100110001307000123A0E700EFF09FF2B70700509C
:10012000938707031307200223A0E700EFF05FF196
:10013000B7070050938707031307100123A0E700B8
:10014000EFF01FF0130000008320C10003248100A2
:100150001301010167800000130101FD2326110234
:10016000232481021304010393070500A30FF4FC69
:10017000230704FEB70700509387070313071001F6
:1001800023A0E700A30704FE6F00C0078347E4FE37
:10019000939717002307F4FEB707005093870703D0
:1001A0001307200223A0E700B70700509387070337
:1001B00083A7070013F7270093072000E31EF7FC2F
:1001C000EFF01FE8B70700509387070383A70700E6
:1001D00013F71700930710006318F7008347E4FE36
:1001E00093E717002307F4FEB70700509387070330
:1001F0001307000223A0E7008347F4FE938717004C
:10020000A307F4FE0347F4FE93077000E3F0E7F85A
:100210008347F4FD638C0700B707005093870703FB
:100220001307000123A0E7006F004001B70700504B
:10023000938707031307100123A0E700B7070050B7
:10024000938707031307200223A0E700EFF05FDF87
:10025000B7070050938707031307000223A0E700A6
:10026000B7070050938707031307100123A0E70087
:100270008347E4FE138507008320C1020324810223
:100280001301010367800000130101FD2326110201
:10029000232481021304010393070500A30FF4FC38
:1002A00093078000A307F4FE6F0080068307F4FD28
:1002B00063DC0700B707005093870703130710019B
:1002C00023A0E7006F004001B707005093870703A2
:1002D0001307000123A0E700B70700509387070327
:1002E0001307200223A0E7008347F4FD939717002C
:1002F000A30FF4FCB707005093870703130700020E
:1003000023A0E7008347F4FE9387F7FFA307F4FEDB
:100310008347F4FEE39C07F8B70700509387070371
:100320001307100123A0E700B707005093870703C6
:100330001307200223A0E700EFF09FD0B70700507B
:100340009387070383A7070093F717009387F7FFA7
:1003500093B7170093F7F70F2307F4FEB707005082
:10036000938707031307000223A0E7008347E4FEF7
:10037000138507008320C1020324810213010103B6
:1003800067800000130101FE232E81001304010287
:10039000B7070050938707022322F4FEB7070050E7
:1003A0002320F4FE93071000A307F4FE0347F4FE96
:1003B000832704FE23A0E700832744FE1307F0FFF2
:1003C00023A0E700232404FE6F000001832784FE9E
:1003D000938717002324F4FE032784FEB7870100C8
:1003E0009387F769E3D4E7FE832744FE23A0070041
:1003F000232404FE6F000001832784FE93871700E7
:100400002324F4FE032784FEB78701009387F7694E
:10041000E3D4E7FE8347F4FE93871700A307F4FEB7
:040420006FF0DFF8A2
:0C042400000000000000000000000000CC
:0400000510000000E7
:00000001FF
