:020000041000EA
:1000000097210000938101411385C1021386C1022B
:100010003306A64093050000EF10407B1725000033
:10002000130505A063080500172500001305059AB0
:10003000EF10D01EEF10005F032501009305410073
:1000400013060000EF10102D6F10C05A03C70101F6
:1000500063100704130101FF2324810013840700A8
:100060002326110093070000638807001385010011
:1000700097000000E7000000930710008320C100F4
:100080002388F1000324810013010101678000002F
:100090006780000093070000638A07009385410191
:1000A000138501001703000067000000678000004F
:1000B000131515003345B500B7250010938545BDD0
:1000C000B385A50003C5050067800000630606022E
:1000D000372700103386C500130747BD83C70500C7
:1000E00013151500938515003345F5003305A7005A
:1000F00003450500E394C5FE67800000B707005084
:1001000083A7070263900502930510003395A500AD
:100110001345F5FFB3F7A700370700502320F70278
:100120006780000013071000E398E5FEB395A50073
:10013000B3E7B700370700502320F70267800000BD
:10014000B707005083A7470263900502930510008C
:100150003395A5001345F5FFB3F7A7003707005007
:100160002322F7026780000013071000E398E5FEE2
:10017000B395A500B3E7B700370700502322F70275
:1001800067800000130101FF232601000327C1003F
:100190009307900063EEE700130790008327C100E8
:1001A000938717002326F1008327C100E378F7FE29
:1001B0001301010167800000B70700501307100109
:1001C00023A8E702130101FF232601000327C10032
:1001D0009307900063EEE700130790008327C100A8
:1001E000938717002326F1008327C100E378F7FEE9
:1001F000B70700501307200223A8E70223240100B9
:10020000032781009307900063EEE7001307900037
:1002100083278100938717002324F100832781001F
:10022000E378F7FEB70700501307000123A8E702A1
:1002300023220100032741009307900063EEE700AB
:100240001307900083274100938717002322F100B2
:1002500083274100E378F7FEB70700501307000239
:1002600023A8E70223200100032701009307900041
:1002700063EEE700130790008327010093871700C0
:100280002320F10083270100E378F7FE1301010129
:1002900067800000B70700501307000123A8E7029A
:1002A000130101FF232601000327C10093079000DB
:1002B00063EEE700130790008327C10093871700C0
:1002C0002326F1008327C100E378F7FEB70700502B
:1002D0001307200223A8E70223240100032781003B
:1002E0009307900063EEE7001307900083278100D7
:1002F000938717002324F10083278100E378F7FE1A
:10030000B70700501307100123A8E70223220100BA
:10031000032741009307900063EEE7001307900066
:1003200083274100938717002322F1008327410090
:10033000E378F7FE1301010167800000B707005062
:100340001307100113030500130101FF23A8E7029F
:1003500093058000130500003708005013062002A3
:100360009306900093080002131515001375F50FFE
:10037000130708032320C7008327070093F72700EC
:10038000E38A07FE232401008327810063ECF60043
:1003900083278100938717002324F100832781009E
:1003A000E3F8F6FE8327080393F71700638407003A
:1003B000136515009385F5FF2328180393F5F50FB2
:1003C00093070803E39205FA630E03041307000181
:1003D00023A0E700B70700501307200223A8E70275
:1003E000232601000327C1009307900063EEE70076
:1003F000130790008327C100938717002326F1007D
:100400008327C100E378F7FEB70700501307000207
:1004100023A8E7021307100123A8E7021301010133
:10042000678000001307100123A0E7006FF09FFA18
:1004300037060050130101FF9306800013060603E0
:100440009308000113031001130820021307900002
:10045000930500029317850193D7874163CC070862
:100460002320160123200601232401008327810075
:10047000131515001375F50F636CF70083278100C2
:10048000938717002324F10083278100E378F7FE88
:100490009386F6FF2320B60093F6F60FE39C06FA48
:1004A000930710012320F600930720022320F60073
:1004B000232601000327C1009307900063EEE700A5
:1004C000130790008327C100938717002326F100AC
:1004D0008327C100E378F7FEB707005003A50703A1
:1004E0001307000223A8E702137515001301010189
:1004F00067800000232066006FF0DFF6130101FF24
:10050000232611002324810023229100232021018E
:10051000938405001304060013090500EFF0DFC9FA
:1005200013050900EFF0DFF013850400EFF05FF032
:1005300013050400EFF0DFEF032481008320C100E6
:100540008324410003290100130101016FF09FD4AE
:10055000130101FF2326110023248100232291008F
:1005600023202101930406001389050013040500CC
:10057000EFF09FC413050400EFF09FEB1305090093
:10058000EFF01FEBEFF05FC313651400EFF05FEACD
:1005900013050000EFF09FDA2380A40003248100FC
:1005A0008320C100832441000329010013010101BC
:1005B0006FF05FCEB386B640330EA6401398160098
:1005C000B70800013307C84137030040131E1E005F
:1005D0009388F8FF634CC5006F00400413051500B5
:1005E000938515003387C641630AA60293972500B9
:1005F000B387B70093976700B387A7009397270047
:10060000B307F30023A01701B306E800E35807FC83
:100610001305150013870600E31AA6FC6780000087
:10062000130101FF23248100232611001304050078
:1006300003450500630A050013041400EF00904F02
:1006400003450400E31A05FE8320C1000324810052
:100650001301010167800000130101FF23248100C1
:10066000232611001304050003450500630A050055
:1006700013041400EF00104C03450400E31A05FEB8
:10068000138481931305D00013041400EF00904AE3
:1006900003450400E31A05FE8320C1000324810002
:1006A00013010101678000009387C19303C707010D
:1006B00003A8070083A5470003A6870083A6C700F9
:1006C000130101FD230EE1009357450013070102BA
:1006D0002324810223261102232601012328B100AD
:1006E000232AC100232CD100B307F700130405000F
:1006F00003C5C7FE1374F400EF00D0439307010253
:10070000338487000345C4FE032481028320C10291
:10071000130101036F0010426354A0023707005019
:100720009307000013070704130600109306101028
:100730002320C7002320D70093871700E31AF5FE74
:1007400067800000B70600509307202023A0F6041E
:100750006358B0063713000093080500B30EB500C8
:10076000130E03809386060413080010130383807E
:100770001305101083C508001307800093070008B5
:100780006F00800123A0660023A0A6001307F7FFD7
:1007900093D717006302070223A0060133F6F50082
:1007A000E31206FE23A0C60123A0A6001307F7FF4D
:1007B00093D71700E31207FE93881800E39CD8FB39
:1007C00067800000130101FF370700502326110046
:1007D000930700202320F7049306A00213070704C1
:1007E00013080010130610106F008000638A060CB7
:1007F000232007012320C700832707009386F6FFE5
:1008000093F78700E39407FE930700102320F70077
:100810002320C7008327070093F78700639E070AFA
:10082000130600001307200013080000635AB004E9
:10083000B706005093860604930F0010130F101094
:10084000930E0008130E600023A0F60123A0E6011A
:1008500083A7060033D3EE40B308C50093F78700A3
:1008600063840700336868006356EE042380080140
:10087000130616001307000013080000E346B6FC39
:100880003707005093078000130707041306001072
:10089000930610102320C7002320D7009387F7FF6B
:1008A000E39A07FE8320C100130510001301010124
:1008B0006780000013071700E348B6F86FF05FFC8D
:1008C00013850195EFF05FD98320C1001305000067
:1008D000130101016780000013854196EFF0DFD717
:1008E0008320C1001305000013010101678000008F
:1008F000130101FE930700041306500093058100C5
:10090000130500002324F100232E1100232C810065
:1009100023160100EFF08FFB9317150093E71700E4
:10092000B7060050B7180000A306F1009307202077
:1009300023A0F604138E088013038100930EE100B8
:1009400093860604130800109388888013051010FE
:100950008345030013078000930700086F008001A0
:1009600023A0160123A0A6001307F7FF93D71700B3
:100970006302070223A0060133F6F500E31206FE28
:1009800023A0C60123A0A6001307F7FF93D71700E3
:10099000E31207FE13031300E31CD3FB93051000BF
:1009A00013054100EFF01FE213040500630A05027E
:1009B0000345410013041000EFF01FCF138501B66B
:1009C000EFF09FC91385019AEFF01FC98320C10181
:1009D0001305040003248101130101026780000054
:1009E00013850198EFF05FC78320C1011305040050
:1009F000032481011301010267800000130101FE3D
:100A0000930700042320F100232C81009377F50045
:100A1000232A910023120100938405001307800408
:100A20009305010013040500130650001305000090
:100A3000A301F100232E1100232821012300E1004E
:100A400023029100EFF08FE89317150093E717004A
:100A5000B7060050371E0000A302F10093072020C4
:100A600023A0F60413050E8093050100930E610088
:100A70009386060413030010130E8E809308101043
:100A800003C8050013078000930700086F0080016A
:100A900023A0C60123A016011307F7FF93D7170061
:100AA0006302070223A066003376F800E31206FE15
:100AB00023A0A60023A016011307F7FF93D7170062
:100AC000E31207FE93851500E39CD5FB93056000B8
:100AD00013058100EFF01FCF13090500630E050613
:100AE00003478100930780006314F7048347B10034
:100AF000639A870A8347C1006392970813065000E0
:100B00009305810013050000EFF04FDC8347D1000F
:100B100013D71700631CE50A93F717006380070CCF
:100B20001385C1A4EFF05FB3130910006F0000013B
:100B30001385C19CEFF05FB2130900008320C1014F
:100B400003248101832441011305090003290101C4
:100B500013010102678000001385C19AEFF0DFAF37
:100B60008320C1010324810183244101130509006D
:100B7000032901011301010267800000138501A010
:100B8000EFF09FAD8320C101032481011309000010
:100B90008324410113050900032901011301010206
:100BA000678000001385419EEFF01FAB8320C101D9
:100BB0000324810113090000832441011305090066
:100BC0000329010113010102678000001385C1A1FF
:100BD000EFF09FA8130900006FF05FF6138541A3A3
:100BE000EFF09FA7130900006FF05FF5130101FEFE
:100BF000130700042320E100930705001357850025
:100C000093067007130650009305010013050000BA
:100C10002300D1002301F100232E1100232C810099
:100C200023120100A300E100EFF04FCA9317150053
:100C300093E71700B7060050B7180000A302F100B1
:100C40009307202023A0F604138E088013030100CD
:100C5000930E610093860604130800109388888021
:100C60001305101083450300130780009307000845
:100C70006F00800123A0160123A0A6001307F7FF31
:100C800093D717006302070223A0060133F6F5008D
:100C9000E31206FE23A0C60123A0A6001307F7FF58
:100CA00093D71700E31207FE13031300E31CD3FBD3
:100CB0009305600013058100EFF0DFB01304050019
:100CC000630A050603478100930770036302F70276
:100CD000138581A7EFF05F98130400008320C10102
:100CE0001305040003248101130101026780000041
:100CF000130650009305810013050000EFF00FBDAF
:100D00008347D10013D71700631CE50493F717003E
:100D100063800704138501ACEFF01F9413041000E7
:100D20008320C10113050400032481011301010282
:100D300067800000138581A5EFF01F928320C10119
:100D400013050400032481011301010267800000E0
:100D5000138581AAEFF05F90130400006FF01FF875
:100D6000138501A9EFF05F8F130400008320C101F8
:100D700013050400032481011301010267800000B0
:100D8000130101FE13578501930705001358050150
:100D9000137707049356850093089006232A910041
:100DA00023120100938405001306500093050100EF
:100DB0001305000023001101A300E100230101013C
:100DC0002302F100232E1100232C8100232821016E
:100DD000A301D100EFF08FAF9317150093E7170031
:100DE00037070050B7180000A302F1009307202036
:100DF0002320F7041383088093050100130E61007C
:100E00001307070413080010938888801305101037
:100E100003C6050013048000930700086F008001DB
:100E2000232017012320A7001304F4FF93D71700F2
:100E30006302040223200701B376F600E39206FE64
:100E4000232067002320A7001304F4FF93D7170083
:100E5000E31204FE93851500E39CC5FB9305600037
:100E600013058100EFF01F96130905009307810019
:100E70009306C1006302050403C71700131484001E
:100E80009387170033648700E398D7FE23A084007C
:100E9000138501AFEFF04FFC8320C10103248101D2
:100EA00013091000832441011305090003290101DE
:100EB00013010102678000001385C1ACEFF0CFF988
:100EC0008320C1010324810183244101130509000A
:100ED000032901011301010267800000130101FDD4
:100EE000930700042322F1002324810293072004A6
:100EF0002322910213840500930405009305410009
:100F000013065000130500002302F10023261102EE
:100F10002320210323140100EFF04F9B93171500AA
:100F200093E71700B7060050371E0000A304F10036
:100F30009307202023A0F60413050E80930541009B
:100F4000930EA1009386060413030010130E8E80E7
:100F50009308101003C805001307800093070008CA
:100F60006F00800123A0C60123A016011307F7FF1D
:100F700093D717006302070223A066003376F800B8
:100F8000E31206FE23A0A60023A016011307F7FF15
:100F900093D71700E31207FE93851500E39CBEFA72
:100FA000930510011305C100EFF0DF81130905005F
:100FB00063080504930700011306040063CE87024B
:100FC000635880009305D10013850400EF00406E44
:100FD000138501B2EFF04FE88320C10203248102A0
:100FE000130910008324410213050900032901029B
:100FF0001301010367800000130600016FF05FFC1E
:10100000138501B0EFF04FE58320C1020324810274
:10101000832441021305090003290102130101037E
:1010200067800000130101FE930700042320F100F4
:10103000232C81009307300413040500130650008D
:1010400093050100130500002300F100232E110079
:10105000232A910023120100EFF04F879317150008
:1010600093E71700B706005037130000A302F10002
:101070009307202023A0F60413050380130E01001C
:10108000930E610093860604930800101303838077
:101090001308101083450E00130780009307000803
:1010A0006F00800123A0660023A006011307F7FF4D
:1010B00093D717006302070223A0160133F6F50049
:1010C000E31206FE23A0A60023A006011307F7FFE4
:1010D00093D71700E31207FE130E1E00E31CDEFB7E
:1010E0009305600013058100EFF0CFED9304050038
:1010F000630405048347A100034791009397870089
:10110000B3E7E7001397870093D78700B367F7002B
:101110002310F4001385C1B4EFF00FD48320C10174
:1011200003248101930410001385040083244101EA
:1011300013010102678000001385C1B2EFF0CFD127
:101140008320C1010324810113850400832441010C
:101150001301010267800000130101FBB7070100C2
:1011600023248104232611043704005023229104F0
:10117000938707F02320F404930720202320F4040E
:10118000930740402320F404930710102320F40415
:10119000B7170000938787802320F404B7F7000077
:1011A0002320F4049306001093074006130404045C
:1011B000130710102320D4002320E4009387F7FFA7
:1011C000E39A07FEEFF0CFF29305A00A1305100093
:1011D000EFF0DF8213050000232801002317010030
:1011E000EFF0DFA0930501013785FF40EFF05FB915
:1011F00093070004232AF1001306500093072004EC
:101200009305410113050000230AF100231C01008E
:10121000EFE0DFEB9317150093E71700B718000016
:10122000A30CF100B706005093072020138E08800E
:101230002320F40013034101930EA10193860604B9
:10124000130800109388888013051010834503004D
:1012500013078000930700086F00800123A0160188
:1012600023A0A6001307F7FF93D717006302070216
:1012700023A0060133F6F500E31206FE23A0C60103
:1012800023A0A6001307F7FF93D71700E31207FE6A
:1012900013031300E39C6EFA9304C102930510013B
:1012A00013850400EFF00FD2630E05061304C1018D
:1012B000130600019305D10213050400EF00403F1F
:1012C000138501B2EFF04FB9138581B5EFF04FB53B
:1012D0000345040013041400EFF00FBDE39A84FEED
:1012E000138501B6EFF04FB71305E100EFF09FD380
:1012F000138541B6EFF0CFB213050000EFF0CFBA7F
:101300000345E100EFF04FBA138501B6EFF0CFB41B
:101310008320C104032481048324410413010105B3
:1013200067800000138501B0EFF00FB31304C10113
:101330006FF09FF9B707005023A8A700678000004F
:10134000130101FE232A91009374F50F232C8100D1
:101350002328210113840500130906009385040046
:101360001306F10013052007232E1100A307010027
:10137000EFF00F9E0346F1009347F4FF337424010E
:1013800033F6C700336686001376F60F93850400A4
:1013900013052007A307C100EFF04F968320C1017A
:1013A0000324810183244101032901011301010266
:1013B00067800000130101FE1306D10093050000B1
:1013C00013052007232E1100232C8100A306010002
:1013D00023070100A3070100EFF08F971306E10038
:1013E0009305600F13052007EFF08F961306F100A9
:1013F0009305500F13052007EFF08F950347E10089
:10140000930710016318F7000347F1009307500793
:101410006304F706138541B8EFF00FA4138501BAF2
:10142000EFF00FA00345D100EFF00FA8138501B630
:10143000EFF08FA2138501BBEFF08F9E0345E10013
:10144000EFF08FA6138501B6EFF00FA11385C1BB96
:10145000EFF00F9D0345F100EFF00FA5138501B6E6
:10146000EFF08F9F8320C101032481011305000049
:1014700013010102678000001385C1B6EFF04F9A97
:101480000345F100EFF04FA20345E100EFF0CFA1DB
:101490001385C1B7EFF0CF980345D100EFF0CFA08F
:1014A000138501B6EFF04F9B8320C1010324810116
:1014B000130510001301010267800000130101FEF3
:1014C0001306F1009305100413052007232E1100C5
:1014D000A3070100EFF0CF870346F1009305100446
:1014E000130520071376F60BA307C100EFF00F8159
:1014F0008320C1011301010267800000130101FF75
:10150000232291009384418C2324810023261100FF
:1015100013842400130630009384E40393058009A8
:101520006F000001834504000346140013042400E7
:1015300013052007EFE09FFCE31694FE8320C10013
:10154000032481008324410013010101678000000E
:10155000130101FE232E1100232C8100232A910068
:10156000EFF05FE5631E05008320C10103248101C4
:10157000832441011305100013010102678000005C
:101580001306F1009305100413052007A3070100BB
:10159000EFE01FFC0346F10093051004130520073C
:1015A0001376F60BA307C1009384418CEFE01FF57F
:1015B00013842400130630009384E4039305800908
:1015C0006F00000183450400034614001304240047
:1015D00013052007EFE09FF2E39684FE8320C1010C
:1015E000032481018324410113051000130101022A
:1015F00067800000130101FF930500002324810090
:101600002326110013040500EF00002A03A581BC66
:101610008327C50363840700E780070013050400E0
:10162000EF00804A130101FF2324810023202101C0
:1016300093070000130900003309F9402326110025
:10164000232291001359294063000902130400006A
:1016500093040000832704009384140013044400BF
:10166000E7800700E31899FE9307000013090000C4
:101670003309F9401359294063000902130400009B
:10168000930400008327040093841400130444008F
:10169000E7800700E31899FE8320C100032481003E
:1016A0008324410003290100130101016780000028
:1016B000B3C7A50093F73700B308C50063920706C8
:1016C0009307300063FEC7049377350013070500C6
:1016D0006398070613F6C8FF930706FE636CF708C6
:1016E000637CC702938605009307070003A80600E2
:1016F000938747009386460023AE07FFE3E8C7FEC3
:101700009307F6FFB387E74093F7C7FF9387470038
:101710003307F700B385F5006368170167800000A1
:1017200013070500E37C15FF83C7050013071700A7
:1017300093851500A30FF7FEE36817FF678000008D
:1017400083C605001307170093773700A30FD7FE52
:1017500093851500E38007F883C60500130717007B
:1017600093773700A30FD7FE93851500E39A07FC04
:101770006FF05FF683A6450083A2050083AF850066
:1017800003AFC50083AE050103AE450103A3850188
:1017900003A8C5012322D70083A6050223205700F2
:1017A0002324F7012326E7012328D701232AC70191
:1017B000232C6700232E07012320D702130747029B
:1017C00093854502E368F7FA6FF09FF11303F00089
:1017D00013070500637EC3029377F7006390070A3F
:1017E00063920508937606FF1376F600B386E6004B
:1017F0002320B7002322B7002324B7002326B700F5
:1018000013070701E366D7FE631406006780000034
:10181000B306C3409396260097020000B386560095
:101820006780C6002307B700A306B7002306B700EA
:10183000A305B7002305B700A304B7002304B7002E
:10184000A303B7002303B700A302B7002302B70026
:10185000A301B7002301B700A300B7002300B7001E
:101860006780000093F5F50F93968500B3E5D500EA
:1018700093960501B3E5D5006FF0DFF69396270048
:1018800097020000B386560093820000E78006FAB4
:1018900093800200938707FF3307F7403306F60073
:1018A000E378C3F66FF0DFF3130101FD232C410150
:1018B00003AA81BC232021032326110203298A14B1
:1018C0002324810223229102232E3101232A510154
:1018D0002328610123267101232481016300090467
:1018E000130B0500938B0500930A10009309F0FF7A
:1018F000832449001384F4FF634204029394240078
:10190000B304990063840B0483A7441063807705B4
:101910001304F4FF9384C4FFE31634FF8320C10251
:101920000324810283244102032901028329C10186
:10193000032A8101832A4101032B0101832BC1006A
:10194000032C8100130101036780000083274900F5
:1019500083A644009387F7FF638E870423A20400C5
:10196000E38806FA8327891833978A00032C4900F5
:10197000B377F70063920702E78006000327490068
:1019800083278A1463148701E38427F9E38807F81F
:10199000138907006FF0DFF58327C91883A5440872
:1019A0003377F700631C070013050B00E780060080
:1019B0006FF0DFFC232289006FF09FFA138505008A
:1019C000E78006006FF09FFB130101FF23248100D5
:1019D0001304000093070000B3878740232291007F
:1019E0002326110093D42740638004029387C7FF06
:1019F00033848700832704009384F4FF1304C4FF17
:101A0000E7800700E39804FE8320C10003248100DF
:101A10008324410013010101678000009305050044
:101A20009306000013060000130500006F0040003D
:101A300003A781BC83278714638C070403A747008F
:101A40001308F001634EE806131827006306050229
:101A5000338307012324C30883A8871813061000C3
:101A60003316E600B3E8C80023A417192324D310C3
:101A7000930620006304D5021307170023A2E70092
:101A8000B387070123A4B700130500006780000097
:101A90009307C7142324F7146FF05FFA83A6C718BF
:101AA0001307170023A2E70033E6C60023A6C718D2
:101AB000B387070123A4B700130500006780000067
:101AC0001305F0FF67800000930500001306000077
:101AD0009306000013070000930700009308D00549
:101AE00073000000634405006F000000130101FF54
:101AF00023248100130405002326110033048040B1
:101B0000EF00C000232085006F00000003A5C1FF87
:101B100067800000130101FF138541902326110007
:101B2000EFE09FB3EFF0DFA213858191EFE0DFB22A
:101B3000EFF08FE213850193EFE01FB2373301001E
:101B400093080000130E0000B70F0040130303C0FA
:101B5000370F0050930E100013050E0093850F50A1
:101B600013080000131685009377F80F33661601EB
:101B7000138705B093960701B3E6C6002320D7006C
:101B8000938717001307470093F7F70FE394E5FED9
:101B900013051500130808141375F50F93850550E8
:101BA000E31268FC130E0EFF93881800137EFE0FDD
:101BB00093F8F80F2328DFFF6FF01FFA9307000058
:101BC00063880700372500101305859C6FF01FE51B
:041BD000678000002A
:101BD4000009121B242D363F48415A536C657E7709
:101BE40019100B023D342F265158434A757C676EF9
:101BF400323B2029161F040D7A7368615E574C45E9
:101C04002B2239300F061D14636A7178474E555CD8
:101C1400646D767F4049525B2C253E3708011A13C8
:101C24007D746F6659504B42353C272E1118030AB8
:101C3400565F444D727B60691E170C053A332821A8
:101C44004F465D546B627970070E151C232A313898
:101C54004148535A656C777E09001B122D243F3688
:101C640058514A437C756E671019020B343D262F78
:101C7400737A6168575E454C3B3229201F160D0468
:101C84006A6378714E475C55222B3039060F141D58
:101C9400252C373E0108131A6D647F7649405B5248
:101CA4003C352E2718110A03747D666F5059424B38
:101CB400171E050C333A21285F564D447B72696028
:101CC4000E071C152A233831464F545D626B707918
:101CD40098030100021803001470152016301846EA
:101CE4004080411049A85510560896F67307761F90
:101CF400980399029AE09C309D61A2A4A3A4A50430
:101D0400AB40AF16BA60D1FFDE10E460FA7D00008C
:101D1400496E697469616C697A6520566964656F96
:101D24002E2E2E00496E697469616C697A652053A0
:101D34004420636172642E2E2E000000526561649B
:101D4400790000000D0A0000303132333435363763
:101D54003839616263646566000000005344207290
:101D64006573706F6E73652074696D656F7574004B
:101D7400534420696E76616C6964207472616E7379
:101D84006D6974746572206269740000434D443057
:101D94003A204E6F20726573706F6E7365206672A1
:101DA4006F6D2053442063617264000073645F6349
:101DB4006D6430204F4B0000434D44383A204E6F41
:101DC40020726573706F6E73652066726F6D205339
:101DD4004420636172640000434D44383A20496EE4
:101DE40076616C696420636F6D6D616E64000000E0
:101DF400434D44383A20496E76616C696420766FAD
:101E04006C7461676520696400000000434D4438C8
:101E14003A20496E76616C6964207465737420702D
:101E240061747465726E0000434D44383A20496E03
:101E340076616C696420636865636B73756D00001B
:101E4400434D44383A20496E76616C696420656E6E
:101E5400642062697473000073645F636D64382086
:101E64004F4B0000434D4435353A204E6F20726588
:101E740073706F6E73652066726F6D2053442063B8
:101E840061726400434D4435353A20496E76616C85
:101E9400696420636F6D6D616E640000434D443569
:101EA400353A20496E76616C696420636865636BBA
:101EB40073756D00434D4435353A20496E76616C37
:101EC400696420656E6420626974730073645F637F
:101ED4006D643535204F4B0041434D4434313A2035
:101EE4004E6F20726573706F6E73652066726F6DCE
:101EF40020534420636172640000000073645F61D6
:101F0400636D643431204F4B00000000434D443274
:101F14003A204E6F20726573706F6E73652066721F
:101F24006F6D2053442063617264000073645F63C7
:101F34006D6432204F4B0000434D44333A204E6FC2
:101F440020726573706F6E73652066726F6D2053B7
:101F5400442063617264000073645F636D643320C2
:101F64004F4B00005344204349443A2000000000F2
:101F740052434120000000004964656E746966693B
:101F84006564204144560000207265763A200000C2
:101F9400556E6B6E6F776E2048444D4920656E63B5
:101FA4006F64657220636869702E0000436869700D
:101FB400207265766973696F6E3A200043686970B0
:101FC40020494420303A2000436869702049442065
:041FD400313A20007E
:041FD800E01F0010F6
:101FE00000000000CC220010342300109C230010BD
:101FF00000000000000000000000000000000000E1
:1020000000000000000000000000000000000000D0
:1020100000000000000000000000000000000000C0
:1020200000000000000000000000000000000000B0
:1020300000000000000000000000000000000000A0
:102040000000000000000000000000000000000090
:102050000000000000000000000000000000000080
:102060000000000000000000000000000000000070
:102070000000000000000000000000000000000060
:10208000000000000000000001000000000000004F
:102090000E33CDAB34126DE6ECDE05000B00000014
:1020A0000000000000000000000000000000000030
:1020B0000000000000000000000000000000000020
:1020C0000000000000000000000000000000000010
:1020D0000000000000000000000000000000000000
:10240000000000000000000000000000E01F0010BD
:0424100000000000C8
:042414004C00001068
:04241800940000101C
:04241C00BC1B0010D5
:0400000510000000E7
:00000001FF
