:020000041000EA
:10000000EF0000046F00000000000000000000008E
:1000100000000000000000000000000000000000E0
:1000200000000000000000000000000000000000D0
:1000300000000000000000000000000000000000C0
:100040003733010093080000130E0000B70F004083
:10005000130303C0370F0050930E100013050E005A
:1000600093850F5013080000131685009377F80F3F
:1000700033661601138705B093960701B3E6C600F1
:100080002320D700938717001307470093F7F70F34
:10009000E394E5FE13051500130808141375F50F16
:1000A00093850550E31268FC130E0EFF9388180029
:1000B000137EFE0F93F8F80F2328DFFF6FF01FFA6F
:0400000510000000E7
:00000001FF
