:020000041000EA
:10000000972100009381015F1385C1021386C1020D
:100010003306A64093050000EF10501E1725000080
:10002000130505C36308050017250000130505BD6A
:10003000EF10D041EF10D0130325010093054100CC
:1000400013060000EF10406D6F10900F03C7010101
:1000500063100704130101FF2324810013840700A8
:100060002326110093070000638807001385010011
:1000700097000000E7000000930710008320C100F4
:100080002388F1000324810013010101678000002F
:100090006780000093070000638A07009385410191
:1000A000138501001703000067000000678000004F
:1000B000130101FD232681021304010393070500A8
:1000C000A30FF4FCB7070050938707012326F4FE23
:1000D0000347F4FD8327C4FE23A0E70013000000BC
:1000E0000324C1021301010367800000130101FD15
:1000F000232611022324810213040103232EA4FCCE
:100100008327C4FD2326F4FE6F0000028327C4FE6C
:1001100083C7070013850700EFF09FF98327C4FE0C
:10012000938717002326F4FE8327C4FE83C70700A6
:10013000E39E07FC13000000130000008320C102AF
:10014000032481021301010367800000130101FCF5
:10015000232E1102232C81021304010493070500AE
:10016000A307F4FCB72700109387C7D583A5070022
:1001700003A6470083A6870003A7C700232EB4FC6D
:100180002320C4FE2322D4FE2324E4FE83C70701D8
:100190002306F4FE8347F4FC93D7470093F7F70F49
:1001A000130704FFB307F70083C7C7FE13850700D3
:1001B000EFF01FF08347F4FC93F7F700130704FFF9
:1001C000B307F70083C7C7FE13850700EFF05FEEA4
:1001D000130000008320C1030324810313010104E1
:1001E00067800000130101FE232E1100232C8100E3
:1001F000130401022326A4FE0325C4FEEFF01FEF23
:10020000B7270010138507D7EFF05FEE130000004B
:100210008320C101032481011301010267800000D2
:10022000130101FE232E810013040102232604FE84
:100230006F0000018327C4FE938717002326F4FE76
:100240000327C4FE93079000E3F6E7FE13000000C7
:10025000130000000324C1011301010267800000A4
:10026000130101FF2326110023248100130401013F
:10027000B7070050938707031307100123A0E70077
:10028000EFF01FFAB7070050938707031307200208
:1002900023A0E700EFF0DFF8B707005093870703CC
:1002A0001307000123A0E700EFF09FF7B707005006
:1002B000938707031307000223A0E700EFF05FF620
:1002C000130000008320C1000324810013010101F9
:1002D00067800000130101FF232611002324810001
:1002E00013040101B70700509387070313070001A8
:1002F00023A0E700EFF0DFF2B70700509387070372
:100300001307200223A0E700EFF09FF1B70700508A
:10031000938707031307100123A0E700EFF05FF0B6
:10032000130000008320C100032481001301010198
:1003300067800000130101FD23261102232481029E
:100340001304010393070500A30FF4FC230704FE25
:10035000B7070050938707031307100123A0E70096
:10036000A30704FE6F00C0078347E4FE93971700BE
:100370002307F4FEB70700509387070313072002F3
:1003800023A0E700B70700509387070383A7070060
:1003900013F7270093072000E31EF7FCEFF05FE858
:1003A000B70700509387070383A7070013F71700C9
:1003B000930710006318F7008347E4FE93E71700E4
:1003C0002307F4FEB70700509387070313070002C3
:1003D00023A0E7008347F4FE93871700A307F4FEEA
:1003E0000347F4FE93077000E3F0E7F88347F4FD5A
:1003F000638C0700B70700509387070313070001BA
:1004000023A0E7006F004001B70700509387070360
:100410001307100123A0E700B707005093870703D5
:100420001307200223A0E700EFF09FDFB70700507B
:10043000938707031307000223A0E700B7070050C4
:10044000938707031307100123A0E7008347E4FE07
:10045000138507008320C1020324810213010103D5
:1004600067800000130101FD23261102232481026D
:100470001304010393070500A30FF4FC9307800006
:10048000A307F4FE6F00C0068307F4FD63DC0700DA
:10049000B7070050938707031307100123A0E70055
:1004A0006F004001B707005093870703130700014F
:1004B00023A0E700B7070050938707031307200224
:1004C00023A0E7008347F4FD93971700A30FF4FCE4
:1004D000EFF01FD5B70700509387070313070002FB
:1004E00023A0E7008347F4FE9387F7FFA307F4FEFA
:1004F0008347F4FEE39A07F8B70700509387070392
:100500001307100123A0E700B707005093870703E4
:100510001307200223A0E700EFF09FD0B707005099
:100520009387070383A7070093F717009387F7FFC5
:1005300093B7170093F7F70F2307F4FEB7070050A0
:10054000938707031307000223A0E7008347E4FE15
:10055000138507008320C1020324810213010103D4
:1005600067800000130101FD23261102232481026C
:100570001304010393070500938605001307060083
:10058000A30FF4FC93870600230FF4FC93070700E6
:10059000A30EF4FCEFF0DFCC8347F4FD13850700D6
:1005A000EFF05FEC8347E4FD13850700EFF09FEB6E
:1005B0008347D4FD13850700EFF0DFEAEFF09FD10A
:1005C000232604FE6F004001130000008327C4FEB1
:1005D000938717002326F4FE0327C4FEB7470F00B6
:1005E0009387F723E3F2E7FE1300000013000000F7
:1005F0008320C102032481021301010367800000EC
:10060000130101FE232E1100232C8100130401028B
:1006100093070500138705002324C4FEA307F4FEF7
:10062000930707002307F4FEEFF09FC38347F4FE10
:1006300013850700EFF01FE38347E4FE13850700EF
:10064000EFF05FE2EFF0DFC18347F4FE93E71700BE
:1006500093F7F70F13850700EFF0DFE013050000B5
:10066000EFF05FCD9307050013870700832784FE13
:100670002380E700EFF01FC6130000008320C101B4
:10068000032481011301010267800000130101FDB1
:10069000232611022324810213040103232EA4FC28
:1006A000232CB4FC232AC4FCA30704FE8327C4FD27
:1006B00093F7F70F1307F4FE13060700938507005F
:1006C00013052007EFF0DFF3832784FD939787015D
:1006D00093D7874193C7F7FF139787011357874134
:1006E0008347F4FE9397870193D78741B377F70049
:1006F0009397870193D7874193F7F70FA307F4FEEA
:10070000832744FD13F7F70F832784FD93F7F70F33
:10071000B377F70013F7F70F8347F4FEB367F700DB
:1007200093F7F70FA307F4FE8327C4FD93F7F70FA2
:100730000347F4FE130607009385070013052007FF
:10074000EFF05FE2130000008320C1020324810266
:100750001301010367800000130101FE232E110025
:10076000232C810013040102A30704FE230704FEC7
:10077000A30604FE9307F4FE13860700930500000A
:1007800013052007EFF0DFE79307E4FE1386070069
:100790009305600F13052007EFF09FE69307D4FE43
:1007A000138607009305500F13052007EFF05FE550
:1007B0000347E4FE93071001631EF7040347D4FECA
:1007C000930750076318F704B7270010138547DB1A
:1007D000EFF0DF918347D4FE13850700EFF01F97FA
:1007E0008347E4FE13850700EFF05F96B7270010FC
:1007F000138547DCEFF09F8F8347F4FE13850700D6
:10080000EFF0DF94B72700101385C7DCEFF09F9D52
:100810006F008007B7270010138507DDEFF09F9C5E
:10082000B72700101385C7DEEFF05F8C8347F4FE17
:1008300013850700EFF09F91B72700101385C7DCE1
:10084000EFF05F9A1385C180EFF05F8A8347E4FE83
:1008500013850700EFF09F8FB72700101385C7DCC3
:10086000EFF05F9813858181EFF05F888347D4FEB6
:1008700013850700EFF09F8DB72700101385C7DCA5
:10088000EFF05F9613000000130000008320C10109
:10089000032481011301010267800000130101FF9D
:1008A00023261100232481001304010113060000F4
:1008B0009305000413051004EFF05FDD1300000042
:1008C000138507008320C100032481001301010167
:1008D00067800000130101FE232E1100232C8100EC
:1008E00013040102232604FE6F000006EFF05F9759
:1008F00013052007EFF01FB7B7270010138747D75E
:100900008327C4FE93971700B307F70083C7070038
:1009100013850700EFF01FB5B7270010138747D7DF
:100920008327C4FE93971700B307F70083C7170008
:1009300013850700EFF01FB3EFF0DF998327C4FEA4
:10094000938717002326F4FE0327C4FE9307E001D4
:10095000E3FEE7F813000000130000008320C1014C
:10096000032481011301010267800000130101FECD
:10097000232E81001304010293070500138705004D
:10098000A307F4FE930707002307F4FE8347F4FE52
:10099000139717008347E4FEB347F700372700108B
:1009A000130747E1B307F70083C707001385070064
:1009B0000324C1011301010267800000130101FE3D
:1009C000232E1100232C810013040102930705003C
:1009D0002324B4FE2322C4FEA307F4FE6F00C0024A
:1009E000832784FE138717002324E4FE03C7070030
:1009F0008347F4FE9305070013850700EFF01FF708
:100A000093070500A307F4FE832744FE1387F7FF2F
:100A10002322E4FEE39607FC8347F4FE13850700D8
:100A20008320C101032481011301010267800000BA
:100A3000130101FF2326810013040101B7070050B1
:100A40009387070437070100130707F023A0E70087
:100A5000B7070050938707041307202023A0E7005F
:100A6000B7070050938707041307404023A0E7000F
:100A7000B7070050938707041307101023A0E7005F
:100A8000B7070050938707043717000013078780C4
:100A900023A0E700B70700509387070437F700004B
:100AA00023A0E700130000000324C100130101018B
:100AB00067800000130101FD232611022324810217
:100AC00013040103232EA4FC232604FE6F008003DD
:100AD000B7070050938707041307001023A0E7000F
:100AE000EFF00FF4B70700509387070413071010B7
:100AF00023A0E700EFF0CFF28327C4FE938717000F
:100B00002326F4FE0327C4FE8327C4FDE342F7FC3B
:100B100013000000130000008320C102032481029F
:100B20001301010367800000130101FD2326110258
:100B30002324810213040103232EA4FC232CB4FCE0
:100B4000B7070050938707041307202023A0E7006E
:100B5000232404FE6F00000C930700F8A307F4FEA3
:100B6000832784FE0327C4FDB307F70083C707006C
:100B7000A301F4FE232204FE6F004008B7070050D3
:100B8000938707041307001023A0E700034734FEF0
:100B90008347F4FEB377F70093F7F70F638E0700F0
:100BA000B7070050938707043717000013078780A3
:100BB00023A0E7006F008001B70700509387070468
:100BC000371700001307078023A0E700EFF04FE579
:100BD000B7070050938707041307101023A0E700FE
:100BE0008347F4FE93D71700A307F4FEEFF04FE31B
:100BF000832744FE938717002322F4FE032744FE35
:100C000093077000E3DCE7F6832784FE93871700E1
:100C10002324F4FE032784FE832784FDE34EF7F2AA
:100C200013000000130000008320C102032481028E
:100C30001301010367800000130101FC232E110240
:100C4000232C8102130401042326A4FC2324B4FCD6
:100C500093078002232EF4FCB70700509387070404
:100C60001307002023A0E700232604FEB707005047
:100C7000938707041307001023A0E700B70700506D
:100C8000938707041307101023A0E700B70700504D
:100C90009387070483A7070013F787009307800053
:100CA0006318F7028327C4FE138717002326E4FE88
:100CB0000327C4FD635AF70013854192EFF08FD2EA
:100CC000930700006F00C011EFF08FD56FF01FFA8F
:100CD00013000000B70700509387070413070010A4
:100CE00023A0E700B70700509387070413071010ED
:100CF00023A0E700B70700509387070483A70700E6
:100D000013F7870093078000631AF7001385819318
:100D1000EFF04FCD930700006F00800C232404FEFA
:100D2000930720002322F4FE232004FE6F00C00955
:100D3000B7070050938707041307001023A0E700AC
:100D4000B7070050938707041307101023A0E7008C
:100D5000B70700509387070483A7070013F787009E
:100D600093078000631EF700832744FE13070008E3
:100D7000B357F740032784FEB367F7002324F4FE3C
:100D8000032744FE9307600063DAE702832704FE2B
:100D90000327C4FCB307F700032784FE1377F70F7C
:100DA0002380E700832704FE938717002320F4FEA7
:100DB000232404FE232204FE6F000001832744FE47
:100DC000938717002322F4FE032704FE832784FC65
:100DD000E340F7F613058000EFF0DFCD9307100036
:100DE000138507008320C103032481031301010439
:100DF00067800000130101FE232E1100232C8100C7
:100E000013040102930700042324F4FE231604FEB6
:100E1000930784FE13065000938507001305000016
:100E2000EFF0DFB993070500A307F4FE8347F4FE54
:100E3000939717009397870193D7874193E71700FC
:100E40009397870193D7874193F7F70FA306F4FE93
:100E5000930784FE9305600013850700EFF0DFCC55
:100E6000930744FE9305100013850700EFF0DFDCC5
:100E700093070500639A070013854195EFF08FB63D
:100E8000930700006F008002834744FE138507002C
:100E9000EFF0CFABB72700101385C7DCEFF08FB4AE
:100EA00013854197EFF00FB49307100013850700E7
:100EB0008320C10103248101130101026780000026
:100EC000130101FD232611022324810213040103CF
:100ED0009307050013870500A30FF4FC9307070091
:100EE000230FF4FC93078000A307F4FE930700048C
:100EF0002324F4FE231604FE034784FE8347F4FEF6
:100F0000B367F70093F7F70F2304F4FE8347B4FEAB
:100F100013978701135787418307F4FD93F7F70071
:100F20009397870193D78741B367F700939787011A
:100F300093D7874193F7F70FA305F4FE8347E4FDAA
:100F40002306F4FE930784FE1306500093850700E2
:100F500013050000EFF09FA6930705002307F4FE9A
:100F60008347E4FE939717009397870193D78741B0
:100F700093E717009397870193D7874193F7F70F6C
:100F8000A306F4FE930784FE930560001385070013
:100F9000EFF09FB9930704FE9305600013850700E7
:100FA000EFF09FC993070500639A07001385019826
:100FB000EFF04FA3930700006F00C00B834704FEC0
:100FC0000347F4FE630AF7001385019AEFF08FA13F
:100FD000930700006F00000A834734FE0347F4FDC7
:100FE000630AF7001385819BEFF0CF9F9307000002
:100FF0006F004008834744FE0347E4FD630AF7009F
:101000001385419DEFF00F9E930700006F0080064F
:10101000930704FE13065000938507001305000094
:10102000EFF0DF999307050013870700834754FE0D
:1010300093D7170093F7F70F630AF7001385019F03
:10104000EFF04F9A930700006F00C002834754FEF1
:1010500093F71700639A0700138581A0EFF08F982C
:10106000930700006F000001138501A2EFF08F9736
:1010700093071000138507008320C1020324810217
:101080001301010367800000130101FD23261102F3
:10109000232481021304010393070500231FF4FC9A
:1010A00093077003A307F4FE930700042324F4FEC0
:1010B000231604FE034784FE8347F4FEB367F7005C
:1010C00093F7F70F2304F4FE8357E4FD93D78700CB
:1010D0009397070193D7070193F7F70FA304F4FE43
:1010E0008357E4FD93F7F70F2305F4FE930784FE7F
:1010F000130650009385070013050000EFF01F8CC6
:10110000930705002307F4FE8347E4FE9397170037
:101110009397870193D7874193E7170093978701A8
:1011200093D7874193F7F70FA306F4FE930784FE46
:101130009305600013850700EFF01F9F930704FEDF
:101140009305600013850700EFF01FAF93070500BC
:10115000639A07001385C1A2EFF0CF8893070000C0
:101160006F004008834704FE0347F4FE630AF7005C
:101170001385C1A4EFF00F87930700006F0080066E
:10118000930704FE13065000938507001305000023
:10119000EFF0DF829307050013870700834754FEB3
:1011A00093D7170093F7F70F630AF700138541A64B
:1011B000EFF04F83930700006F00C002834754FE97
:1011C00093F71700639A07001385C1A7EFF08F818B
:1011D000930700006F000001138541A9EFF08F8095
:1011E00093071000138507008320C10203248102A6
:1011F0001301010367800000130101FC232E11027B
:10120000232C8102130401042326A4FC2324B4FC10
:1012100093079002A303F4FE930700042320F4FE37
:10122000231204FE034704FE834774FEB367F700EE
:1012300093F7F70F2300F4FE034714FE8327C4FC43
:1012400093D7870193F7F70F93F7070493F7F70FF7
:10125000B367F70093F7F70FA300F4FE8327C4FCEE
:1012600093D7070193F7F70F2301F4FE8327C4FCFC
:1012700093D7870093F7F70FA301F4FE8327C4FCED
:1012800093F7F70F2302F4FE930704FE13065000B2
:101290009385070013050000EFF04FF29307050058
:1012A0002303F4FE834764FE939717009397870107
:1012B00093D7874193E717009397870193D7874187
:1012C00093F7F70FA302F4FE930704FE9305600063
:1012D00013850700EFF05F85930784FD9305600099
:1012E00013850700EFF05F9593070500639A0700E9
:1012F000138501AAEFE01FEF930700006F000007BE
:10130000232604FE232404FE6F0000048327C4FE6A
:10131000939787002326F4FE832784FE9387170084
:10132000130704FFB307F70083C787FE138707007F
:101330008327C4FEB3E7E7002326F4FE832784FE59
:10134000938717002324F4FE032784FE93073000BD
:10135000E3DEE7FA832784FC0327C4FE23A0E7002B
:10136000138541ACEFE01FE89307100013850700D9
:101370008320C1030324810313010104678000005B
:10138000130101FB23261104232481041304010506
:10139000232EA4FA232CB4FA93072000A303F4FE0F
:1013A000930700042320F4FE231204FE034704FEE7
:1013B000834774FEB367F70093F7F70F2300F4FE3B
:1013C000930704FE130650009385070013050000E1
:1013D000EFF0CFDE930705002303F4FE834764FE9E
:1013E000939717009397870193D7874193E7170047
:1013F0009397870193D7874193F7F70FA302F4FEE2
:10140000930704FE9305600013850700EFF0CFF10A
:101410009307C4FC9305100113850700EFF0DF81EB
:1014200093070500639A0700138541ADEFE09FDB4A
:10143000930700006F000007832784FB2326F4FE38
:101440000327C4FE9307000163D6E700930700015A
:101450002326F4FE232404FE6F004003832784FE2A
:1014600013871700832784FE8326C4FBB387F60007
:10147000930604FF3387E6000347C7FD2380E70098
:10148000832784FE938717002324F4FE032784FE1A
:101490008327C4FEE344F7FC138541AFEFE09FD4FC
:1014A00093071000138507008320C10403248104DF
:1014B0001301010567800000130101FD23261102BD
:1014C0002324810213040103232EA4FC930730007C
:1014D000A307F4FE930700042324F4FE231604FE5E
:1014E000034784FE8347F4FEB367F70093F7F70FD3
:1014F0002304F4FE930784FE13065000938507002F
:1015000013050000EFF08FCB930705002307F4FECF
:101510008347E4FE939717009397870193D78741FA
:1015200093E717009397870193D7874193F7F70FB6
:10153000A306F4FE930784FE93056000138507005D
:10154000EFF08FDE930704FE93056000138507001C
:10155000EFF08FEE93070500639A0700138501B043
:10156000EFE05FC8930700006F008004834714FE1C
:10157000939787001397070113570741834724FE6A
:101580009397070193D70741B367F7009397070134
:1015900093D7074113970701135707018327C4FD0A
:1015A0002390E700138501B2EFE0DFC3930710003B
:1015B000138507008320C102032481021301010364
:1015C00067800000130101FC232E81021304010433
:1015D0002326A4FC2324B4FC2322C4FC2320D4FC13
:1015E000B70700402320F4FE032744FC8327C4FCF4
:1015F000B307F740232EF4FC032704FC832784FC65
:10160000B307F740232CF4FC8327C4FC2324F4FE07
:10161000832784FC2322F4FE832784FD139717007D
:101620008327C4FDB307F7402326F4FE6F00C00CE8
:101630008327C4FE63C60706032744FE93070700FB
:1016400093972700B387E7009397670013870700F6
:10165000832784FEB307F70093972700032704FE30
:10166000B307F700370700011307F7FF23A0E700D0
:10167000832744FE938717002322F4FE832784FDEB
:10168000139717008327C4FE3307F7008327C4FD91
:1016900093971700B307F7402326F4FE6F00000569
:1016A000032744FE9307070093972700B387E700BB
:1016B0009397670013870700832784FEB307F7001B
:1016C00093972700032704FEB307F70037070001AD
:1016D0001307F7FF23A0E700832784FD93971700E4
:1016E0000327C4FEB307F7002326F4FE832784FEF6
:1016F000938717002324F4FE032784FE832744FCEA
:10170000E348F7F213000000130000000324C103B4
:101710001301010467800000130101FB232611045B
:101720002324810413040105B7070040232CF4FC93
:10173000B7070050938707FF232AF4FCB707005030
:101740002328F4FC832704FD1307100023A0E700DF
:101750001385C1B2EFE01FA9EFF00F80138581B4AC
:10176000EFE05FA8EFF08F93138501B6EFE09FA73E
:10177000EFF04F961385C1B7EFE0DFA6EFF04FAB68
:10178000232604FE6F004001130000008327C4FEDF
:10179000938717002326F4FE0327C4FEB7470F00E4
:1017A0009387F723E3F2E7FE13054006EFF08FB0CF
:1017B000EFF04FE493070500639407006FF05FFCC0
:1017C00013000000232404FE6F00400113000000FA
:1017D000832784FE938717002324F4FE032784FEC7
:1017E000B7470F009387F723E3F2E7FE9305A00ABC
:1017F00013051000EFF0CFECB787FF402326F4FC71
:10180000232E04FA231D04FA13050000EFF0DF87EE
:101810009307050063980702232204FE6F0040012E
:1018200013000000832744FE938717002322F4FE51
:10183000032744FEB7470F009387F723E3F2E7FE41
:101840006F0080049307C4FB938507000325C4FC45
:10185000EFF09F9A93070500639A0702232004FE86
:101860006F00400113000000832704FE93871700D8
:101870002320F4FE032704FEB7470F009387F723C6
:10188000E3F2E7FE130000006FF01FF81300000002
:101890009307A4FB13850700EFF01FC2138541B91E
:1018A000EFE0DF848357A4FB93D7074193F7F70F4B
:1018B00013850700EFE09F898357A4FB93F7F70F89
:1018C00013850700EFE09F88B72700101385C7DC5A
:1018D000EFE05F911385C1B9EFE0DF90930720033C
:1018E000232EF4FC930720032324F4FC9307800C9D
:1018F0002322F4FC930760092320F4FC832604FCD4
:10190000032644FC832584FC0325C4FDEFF09FCB14
:10191000832744FD1307100023A0E7008327C4FD9D
:1019200093871700232EF4FC0327C4FD9307C012EE
:10193000E3DAE7FA93072003232EF4FC6FF09FFA13
:10194000130101FF930500002324810023261100C9
:1019500013040500EF00401803A541BC8327C5030D
:1019600063840700E780070013050400EF00C03818
:10197000130101FF2324810023202101930700008C
:10198000130900003309F940232611002322910096
:101990001359294063000902130400009304000056
:1019A000832704009384140013044400E780070095
:1019B000E31899FE93070000130900003309F9406A
:1019C0001359294063000902130400009304000026
:1019D000832704009384140013044400E780070065
:1019E000E31899FE8320C100032481008324410071
:1019F0000329010013010101678000001303F000B7
:101A000013070500637EC3029377F7006390070A0C
:101A100063920508937606FF1376F600B386E60018
:101A20002320B7002322B7002324B7002326B700C2
:101A300013070701E366D7FE631406006780000002
:101A4000B306C3409396260097020000B386560063
:101A50006780C6002307B700A306B7002306B700B8
:101A6000A305B7002305B700A304B7002304B700FC
:101A7000A303B7002303B700A302B7002302B700F4
:101A8000A301B7002301B700A300B7002300B700EC
:101A90006780000093F5F50F93968500B3E5D500B8
:101AA00093960501B3E5D5006FF0DFF69396270016
:101AB00097020000B386560093820000E78006FA82
:101AC00093800200938707FF3307F7403306F60041
:101AD000E378C3F66FF0DFF3130101FD232C41011E
:101AE00003AA41BC232021032326110203298A14BF
:101AF0002324810223229102232E3101232A510122
:101B00002328610123267101232481016300090434
:101B1000130B0500938B0500930A10009309F0FF47
:101B2000832449001384F4FF634204029394240045
:101B3000B304990063840B0483A744106380770582
:101B40001304F4FF9384C4FFE31634FF8320C1021F
:101B50000324810283244102032901028329C10154
:101B6000032A8101832A4101032B0101832BC10038
:101B7000032C8100130101036780000083274900C3
:101B800083A644009387F7FF638E870423A2040093
:101B9000E38806FA8327891833978A00032C4900C3
:101BA000B377F70063920702E78006000327490036
:101BB00083278A1463148701E38427F9E38807F8ED
:101BC000138907006FF0DFF58327C91883A5440840
:101BD0003377F700631C070013050B00E78006004E
:101BE0006FF0DFFC232289006FF09FFA1385050058
:101BF000E78006006FF09FFB130101FF23248100A3
:101C00001304000093070000B3878740232291004C
:101C10002326110093D42740638004029387C7FFD3
:101C200033848700832704009384F4FF1304C4FFE4
:101C3000E7800700E39804FE8320C10003248100AD
:101C40008324410013010101678000009305050012
:101C50009306000013060000130500006F0040000B
:101C600003A741BC83278714638C070403A747009D
:101C70001308F001634EE8061318270063060502F7
:101C8000338307012324C30883A887181306100091
:101C90003316E600B3E8C80023A417192324D31091
:101CA000930620006304D5021307170023A2E70060
:101CB000B387070123A4B700130500006780000065
:101CC0009307C7142324F7146FF05FFA83A6C7188D
:101CD0001307170023A2E70033E6C60023A6C718A0
:101CE000B387070123A4B700130500006780000035
:101CF0001305F0FF67800000930500001306000045
:101D00009306000013070000930700009308D00516
:101D100073000000634405006F000000130101FF21
:101D2000232481001304050023261100330480407E
:101D3000EF00C000232085006F00000003A541FFD5
:101D400067800000930700006388070037250010B4
:0C1D5000130585BF6FF09FEF6780000057
:101D5C003031323334353637383961626364656615
:101D6C00000000000D0A0000980301000218030097
:101D7C0014701520163018464080411049A8551093
:101D8C00560896F67307761F980399029AE09C30D2
:101D9C009D61A2A4A3A4A504AB40AF16BA60D1FF69
:101DAC00DE10E460FA7D00004964656E7469666952
:101DBC006564204144560000207265763A2000008C
:101DCC0000000000556E6B6E6F776E2048444D49D5
:101DDC0020656E636F64657220636869702E000005
:101DEC0043686970207265766973696F6E3A20007A
:101DFC004368697020494420303A20004368697078
:101E0C0020494420313A20000009121B242D363F72
:101E1C0048415A536C657E7719100B023D342F26BE
:101E2C005158434A757C676E323B2029161F040DAE
:101E3C007A7368615E574C452B2239300F061D149E
:101E4C00636A7178474E555C646D767F4049525B8E
:101E5C002C253E3708011A137D746F6659504B427E
:101E6C00353C272E1118030A565F444D727B60696E
:101E7C001E170C053A3328214F465D546B6279705E
:101E8C00070E151C232A31384148535A656C777E4E
:101E9C0009001B122D243F3658514A437C756E673E
:101EAC001019020B343D262F737A6168575E454C2E
:101EBC003B3229201F160D046A6378714E475C551E
:101ECC00222B3039060F141D252C373E0108131A0E
:101EDC006D647F7649405B523C352E2718110A03FE
:101EEC00747D666F5059424B171E050C333A2128EE
:101EFC005F564D447B7269600E071C152A233831DE
:101F0C00464F545D626B7079534420726573706FE9
:101F1C006E73652074696D656F7574005344206928
:101F2C006E76616C6964207472616E736D69747421
:101F3C006572206269740000434D44303A204E6F44
:101F4C0020726573706F6E73652066726F6D2053AF
:101F5C00442063617264000073645F636D643020BD
:101F6C004F4B0000434D44383A204E6F207265733E
:101F7C00706F6E73652066726F6D205344206361C1
:101F8C0072640000434D44383A20496E76616C69A6
:101F9C006420636F6D6D616E64000000434D4438C6
:101FAC003A20496E76616C696420766F6C74616757
:101FBC006520696400000000434D44383A20496EA6
:101FCC0076616C69642074657374207061747465D7
:101FDC00726E0000434D44383A20496E76616C694C
:101FEC006420636865636B73756D0000434D443802
:101FFC003A20496E76616C696420656E6420626972
:10200C007473000073645F636D6438204F4B000081
:10201C00434D4435353A204E6F20726573706F6EA8
:10202C0073652066726F6D20534420636172640087
:10203C00434D4435353A20496E76616C69642063B2
:10204C006F6D6D616E640000434D4435353A204927
:10205C006E76616C696420636865636B73756D0083
:10206C00434D4435353A20496E76616C6964206580
:10207C006E6420626974730073645F636D643535DC
:10208C00204F4B0041434D4434313A204E6F207267
:10209C006573706F6E73652066726F6D205344208C
:1020AC00636172640000000073645F61636D64348B
:1020BC0031204F4B00000000434D44323A204E6F0C
:1020CC0020726573706F6E73652066726F6D20532E
:1020DC00442063617264000073645F636D6432203A
:1020EC004F4B0000434D44333A204E6F20726573C2
:1020FC00706F6E73652066726F6D20534420636140
:10210C007264000073645F636D6433204F4B000096
:10211C004964656E74696679696E672048444D49F7
:10212C0020656E636F6465722E2E2E004B69636B97
:10213C002075702048444D4920656E636F6465724C
:10214C002E2E2E00506F7765722075702048444DEE
:10215C004920656E636F6465722E2E2E00000000A0
:10216C00496E697469616C697A65205344206361B6
:10217C0072642E2E2E0000005243412000000000FD
:10218C00496E697469616C697A6174696F6E2064F7
:10219C006F6E652C20657865637574696E67206455
:0721AC00656D6F2E2E2E0061
:0421B400B82100103E
:1021B80000000000A42400100C2500107425001055
:1021C8000000000000000000000000000000000007
:1021D80000000000000000000000000000000000F7
:1021E80000000000000000000000000000000000E7
:1021F80000000000000000000000000000000000D7
:1022080000000000000000000000000000000000C6
:1022180000000000000000000000000000000000B6
:1022280000000000000000000000000000000000A6
:102238000000000000000000000000000000000096
:102248000000000000000000000000000000000086
:102258000000000000000000010000000000000075
:102268000E33CDAB34126DE6ECDE05000B0000003A
:102278000000000000000000000000000000000056
:102288000000000000000000000000000000000046
:102298000000000000000000000000000000000036
:1022A8000000000000000000000000000000000026
:1025D800000000000000000000000000B82100100A
:0825E8000000000000000000EB
:0425F00000000000E7
:0425F4004C00001087
:0425F800940000103B
:0425FC00441D00106A
:0400000510000000E7
:00000001FF
