:020000042000DA
:1000000097510000938101B51385816E1386616E4F
:100010003306A64093050000EF00402817050000B6
:1000200013054567630805001705000013054561C2
:10003000EF000066EF0080040325010093054100F6
:1000400013060000EF0090466F004000130101FF0F
:1000500093050000232481002326110013040500CA
:10006000EF00C04B03A581BC8327C5036384070051
:10007000E780070013050400EF00406C130101FF47
:10008000232481002320210193070000130900008D
:100090003309F940232611002322910013592940E6
:1000A0006300090213040000930400008327040086
:1000B0009384140013044400E7800700E31899FEBA
:1000C00093070000130900003309F9401359294030
:1000D0006300090213040000930400008327040056
:1000E0009384140013044400E7800700E31899FE8A
:1000F0008320C100032481008324410003290100DF
:1001000013010101678000009307300063F8C70204
:10011000B367B50093F7370093063000639E07047A
:100120000327050083A705006318F7041306C6FF1D
:100130001305450093854500E3E4C6FE9306F6FFEC
:100140006308060293861600B306D5006F00800090
:100150006300D5028347050003C70500130515009A
:1001600093851500E386E7FE3385E740678000004E
:1001700013050000678000009306F6FF6FF09FFCF8
:10018000B3C7A50093F73700B308C500639207060D
:100190009307300063FEC70493773500130705000B
:1001A0006398070613F6C8FF930706FE636CF7080B
:1001B000637CC702938605009307070003A8060027
:1001C000938747009386460023AE07FFE3E8C7FE08
:1001D0009307F6FFB387E74093F7C7FF938747007E
:1001E0003307F700B385F5006368170167800000E7
:1001F00013070500E37C15FF83C7050013071700ED
:1002000093851500A30FF7FEE36817FF67800000D2
:1002100083C605001307170093773700A30FD7FE97
:1002200093851500E38007F883C6050013071700C0
:1002300093773700A30FD7FE93851500E39A07FC49
:100240006FF05FF683A6450083A2050083AF8500AB
:1002500003AFC50083AE050103AE450103A38501CD
:1002600003A8C5012322D70083A605022320570037
:100270002324F7012326E7012328D701232AC701D6
:10028000232C6700232E07012320D70213074702E0
:1002900093854502E368F7FA6FF09FF11303F000CE
:1002A00013070500637EC3029377F7006390070A84
:1002B00063920508937606FF1376F600B386E60090
:1002C0002320B7002322B7002324B7002326B7003A
:1002D00013070701E366D7FE63140600678000007A
:1002E000B306C3409396260097020000B3865600DB
:1002F0006780C6002307B700A306B7002306B70030
:10030000A305B7002305B700A304B7002304B70073
:10031000A303B7002303B700A302B7002302B7006B
:10032000A301B7002301B700A300B7002300B70063
:100330006780000093F5F50F93968500B3E5D5002F
:1003400093960501B3E5D5006FF0DFF6939627008D
:1003500097020000B386560093820000E78006FAF9
:1003600093800200938707FF3307F7403306F600B8
:10037000E378C3F66FF0DFF383A781FF23A4A70A16
:1003800023A6070A6780000003A881FFB785954C64
:100390009385D5F28326880A0327C80AB387B60255
:1003A00013861700B337F6002324C80A37F65158CE
:1003B0001306D6423386C6023307B702B3B6B60277
:1003C0003307C7003307D700B387E700139517003B
:1003D0002326F80A135515006780000093F6F50FE1
:1003E000937735006380060C638E07008347050012
:1003F0006386070A6386D70A1305150093773500CD
:10040000E39607FE93F5F50F93978500B3E5F500A6
:1004100003270500139305013363B3003708FFFE7C
:100420003346E3001308F8EFB3070601B3050701ED
:100430001346F6FF1347F7FFB3F7C70033F7E5009E
:10044000B7888080B3E7E70093880808B3F71701FF
:10045000639A0702032745001305450033466700EA
:10046000B3070701B30506011347F7FF1346F6FF6D
:10047000B3F7E70033F6C500B3E7C700B3F71701DA
:10048000E38A07FC83470500638A07006386F60852
:100490008347150013051500E39A07FE13050000B6
:1004A00067800000638C070083470500E38A07FE2E
:1004B0001305150093773500E39807FE0327050021
:1004C0003706FFFE1306F6EFB307C700B786808036
:1004D0001347F7FFB3F7E70093860608B3F7D70093
:1004E000639007020327450013054500B307C700C3
:1004F0001347F7FFB3F7E700B3F7D700E38407FE2E
:1005000083470500E38E07F88347150013051500A0
:10051000E39C07FE6780000067800000130101FD77
:10052000232C410103AA81BC23202103232611028D
:1005300003298A142324810223229102232E3101CC
:10054000232A5101232861012326710123248101DB
:1005500063000904130B0500938B0500930A100038
:100560009309F0FF832449001384F4FF63420402DB
:1005700093942400B304990063840B0483A744106C
:10058000638077051304F4FF9384C4FFE31634FFFC
:100590008320C10203248102832441020329010232
:1005A0008329C101032A8101832A4101032B01010F
:1005B000832BC100032C810013010103678000001D
:1005C0008327490083A644009387F7FF638E87043F
:1005D00023A20400E38806FA8327891833978A0048
:1005E000032C4900B377F70063920702E780060007
:1005F0000327490083278A1463148701E38427F9BA
:10060000E38807F8138907006FF0DFF58327C9181F
:1006100083A544083377F700631C070013050B001C
:10062000E78006006FF0DFFC232289006FF09FFA5D
:1006300013850500E78006006FF09FFB130101FFA3
:10064000232481001304000093070000B387874030
:10065000232291002326110093D4274063800402B3
:100660009387C7FF33848700832704009384F4FFB4
:100670001304C4FFE7800700E39804FE8320C10051
:1006800003248100832441001301010167800000DD
:1006900093050500930600001306000013050000F3
:1006A0006F00400003A781BC83278714638C070475
:1006B00003A747001308F001634EE806131827004C
:1006C00063060502338307012324C30883A8871820
:1006D000130610003316E600B3E8C80023A4171968
:1006E0002324D310930620006304D50213071700B8
:1006F00023A2E700B387070123A4B7001305000076
:10070000678000009307C7142324F7146FF05FFA83
:1007100083A6C7181307170023A2E70033E6C60015
:1007200023A6C718B387070123A4B7001305000049
:10073000678000001305F0FF67800000930500004C
:100740001306000093060000130700009307000043
:100750009308D00573000000634405006F0000009B
:10076000130101FF23248100130405002326110037
:1007700033048040EF00C000232085006F0000009C
:1007800003A581FF67800000630406023386C5006D
:100790001387819483C705001315150093851500F1
:1007A0003345F5003305A70003450500E394C5FE76
:1007B00067800000130101FF138581A42326110027
:1007C000EF0080658320C1001305000013010101C3
:1007D00067800000130101FF138581A52326110006
:1007E000EF0080638320C1001305000013010101A5
:1007F00067800000130101FF138541A62326110025
:100800002324810023229100130406009384050011
:10081000EF00806093850400130504001306002098
:10082000EF10C01A8320C1000324810083244100FB
:10083000130500001301010167800000130101FF8F
:10084000138501A723261100EF00005D8320C1005E
:10085000130500001301010167800000130101FF6F
:100860001385C1A723261100EF00005B8320C10080
:10087000130500001301010167800000130101D876
:1008800013060000938541BB13850100232E11261A
:10089000EF30802B13061000938581A81305810487
:1008A000EF30803493064100930581001306000465
:1008B00013058104EF300075138541A9EF00405204
:1008C00003454100EF00405A1385C1A9EF00C05411
:1008D00013058100A3030104EF00005413058104F4
:1008E000EF30D0368320C1271305100013010128F3
:1008F00067800000130101FD2326110223248102D9
:100900001304010393070500A30FF4FC232604FE40
:100910006F0040078307F4FD63DC0700B707005052
:10092000938707031307100123A0E7006F0040011E
:10093000B7070050938707031307000123A0E700C0
:10094000EF00400CB70700509387070313072002FE
:1009500023A0E700EF00000BB707005093870703C1
:100960001307000223A0E700EF00C0098347F4FD4E
:1009700093971700A30FF4FC8327C4FE93871700F7
:100980002326F4FE0327C4FE93077000E3F4E7F880
:10099000B7070050938707031307100123A0E70050
:1009A000EF004006B70700509387070313072002A4
:1009B00023A0E700EF000005B70700509387070367
:1009C00083A7070093F717009387F7FF93B71700E4
:1009D00093F7F70FA305F4FEB707005093870703BB
:1009E0001307000223A0E700EF00C0018347B4FE15
:1009F000138507008320C102032481021301010330
:100A0000678000009307A000130000009387F7FFA2
:100A1000E39C07FE67800000B70700501307100132
:100A200023A8E7029307A000130000009387F7FFB5
:100A3000E39C07FEB70700501307200223A8E70234
:100A40009307A000130000009387F7FFE39C07FEC5
:100A5000B70700501307000123A8E7029307A0007F
:100A6000130000009387F7FFE39C07FEB7070050D1
:100A70001307000223A8E7029307A0001300000059
:100A80009387F7FFE39C07FE67800000B7070050DD
:100A9000130710019308050023A8E702130680003E
:100AA00013050000B705005093062002130800024A
:100AB000131515001375F50F138705032320D700B1
:100AC0008327070093F72700E38A07FE9307A00018
:100AD000130000009387F7FFE39C07FE83A705033D
:100AE00093F7170063840700136515001306F6FFDC
:100AF00023A805031376F60F93870503E31A06FA76
:100B0000638008041307000123A0E700B707005023
:100B10001307200223A8E7029307A0001300000098
:100B20009387F7FFE39C07FEB70700501307000207
:100B300023A8E7021307100123A8E702678000003B
:100B40001307100123A0E7006FF05FFC130101FF02
:100B5000232611002324910023222101930406005F
:100B6000138905002320310193090500EFF0DFEA26
:100B700013850900EFF01FD813050900EFF09FD788
:100B800013850400EFF01FD7B707005013070001CB
:100B900023A8E7029307A000130000009387F7FF44
:100BA000E39C07FEB70700501307200223A8E702C3
:100BB0009307A000130000009387F7FFE39C07FE54
:100BC000B70700501307100123A8E7029307A000FE
:100BD000130000009387F7FFE39C07FE8320C1000A
:100BE00083248100032941008329010013010101AD
:100BF00067800000130101FF2326110023249100C8
:100C0000232221019304050013090600232031014A
:100C100093890500EFF05FE013850400EFF09FCDAE
:100C200013850900EFF01FCDEFF01FDF13E514006F
:100C3000EFF05FCC13050000EFF05FE5B707005061
:100C40002300A9001307000123A8E7029307A000CF
:100C5000130000009387F7FFE39C07FEB7070050DF
:100C60001307200223A8E7029307A0001300000047
:100C70009387F7FFE39C07FEB707005013071001A7
:100C800023A8E7029307A000130000009387F7FF53
:100C9000E39C07FE8320C1008324810003294100D7
:100CA000832901001301010167800000130101FE87
:100CB000138541AA232E1100232C8100232A9100A1
:100CC000232821012326310123244101EF00C014F0
:100CD000EF1040191385C1ABEF000014EF00505D19
:100CE000138581ADEF004013EFF05FB9138401234A
:100CF0001385C1AEEF0040129304044B1389012306
:100D0000130A00149309000FEFF00FE8B3674503CF
:100D10001309C900232AF9FEEFF00FE7B367350383
:100D2000232CF9FEEFF04FE69357F54113D7E70177
:100D3000B307E50093F73700B387E74093871700C1
:100D4000232EF9FEE31299FC37080010130500006A
:100D5000930E000037BE0440370300401308F8FF2D
:100D60009308F013930F1000370F0050B70700409F
:100D700023A0A70093874700E39CC7FF1305150036
:100D8000130704006F0000012320D7001307C700DA
:100D90006300970403264700832607008325870006
:100DA00093172600B387C70093976700B387D700D0
:100DB00093972700B307F30023A00701B386B6007B
:100DC000E3D4D8FC232007001307C700E31497FCE3
:100DD000B38EDF4193FEFE0F2328DFFF6FF01FF974
:100DE000130101FF232481002326110013040500B1
:100DF00003450500630A050013041400EF00507555
:100E000003450400E31A05FE8320C100032481008A
:100E10001301010167800000130101FF23248100F9
:100E2000232611001304050003450500630A05008D
:100E300013041400EF00D07103450400E31A05FE0B
:100E4000138481AF1305D00013041400EF00507019
:100E500003450400E31A05FE8320C100032481003A
:100E600013010101678000009387C1AF03C7070129
:100E700003A8070083A5470003A6870083A6C70031
:100E8000130101FD230EE1009357450013070102F2
:100E90002324810223261102232601012328B100E5
:100EA000232AC100232CD100B307F7001304050047
:100EB00003C5C7FE1374F400EF00906993070102A5
:100EC000338487000345C4FE032481028320C102CA
:100ED000130101036F00D067B717000037070050F8
:100EE000938707802320F704930700202320F7042B
:100EF0009306A0021307070413080010130610102E
:100F00006F0080006380060C232007012320C700A8
:100F1000832707009386F6FF93F78700E39407FE85
:100F2000930700102320F7002320C7008327070022
:100F300093F78700639807086350B006B706005020
:100F40001306000013080000130720009386060410
:100F5000930F0010130F1010930E0008130E600073
:100F600023A0F60123A0E60183A7060033D3EE40B9
:100F7000B308C50093F787006384070033686800EF
:100F80006356EE04238008011306160013070000C1
:100F900013080000E346B6FC3707005093078000B3
:100FA0001307070413060010930610102320C70030
:100FB0002320D7009387F7FFE39A07FE130510005D
:100FC000678000001305000067800000130717000A
:100FD000E348B6F86FF05FFC130101FE93070004CD
:100FE0001306500093058100130500002324F1002F
:100FF000232E110023160100EFF00FF993171500AF
:1010000093E71700B7060050B7180000A306F100D9
:101010009307202023A0F604138E08801303810079
:10102000930EE100938606041308001093888880CD
:101030001305101083450300130780009307000871
:101040006F00800123A0160123A0A6001307F7FF5D
:1010500093D717006302070223A0060133F6F500B9
:10106000E31206FE23A0C60123A0A6001307F7FF84
:1010700093D71700E31207FE13031300E31CD3FBFF
:1010800037070050930740061307070413060010A4
:10109000930610102320C7002320D7009387F7FF63
:1010A000E39A07FE8320C10113051000130101021A
:1010B00067800000130101FE930700042320F10064
:1010C000232C81009377F500232A9100231201003D
:1010D00093840500130780049305010013040500A1
:1010E0001306500013050000A301F100232E110088
:1010F00023240100231601002300E10023029100B4
:10110000EFF08FE89317150093E71700B70600502C
:10111000371E0000A302F1009307202023A0F6044D
:1011200013050E8093050100930E6100938606045B
:1011300013030010130E8E809308101003C80500CF
:1011400013078000930700086F00800123A0C601E9
:1011500023A016011307F7FF93D7170063020702B6
:1011600023A066003376F800E31206FE23A0A60053
:1011700023A016011307F7FF93D71700E31207FE0A
:1011800093851500E39CD5FB930560001305810052
:10119000EFF09FD4630805000347810093078000A8
:1011A000630EF700130500008320C10103248101B1
:1011B0008324410113010102678000008347B100CD
:1011C000E39287FE8347C100E39E97FC130650001D
:1011D0009305810013050000EFF00FDB8347D1007A
:1011E00013D71700E310E5FC13F517006FF0DFFBD2
:1011F000130101FE130700042320E10093070500FB
:1012000013578500930670071306500093050100DD
:10121000130500002300D1002301F100232E11004B
:1012200023120100A300E100EFF00FD69317150081
:1012300093E71700B7060050B7180000A302F100AB
:101240009307202023A0F604138E088013030100C7
:10125000930E61009386060413080010938888801B
:10126000130510108345030013078000930700083F
:101270006F00800123A0160123A0A6001307F7FF2B
:1012800093D717006302070223A0060133F6F50087
:10129000E31206FE23A0C60123A0A6001307F7FF52
:1012A00093D71700E31207FE13031300E31CD3FBCD
:1012B0009305600013058100EFF01FC2630805006D
:1012C0000347810093077003630AF7008320C1017D
:1012D000130500001301010267800000130650008F
:1012E0009305810013050000EFF00FCA8347D1007A
:1012F00013D71700E31CE5FC8320C10113F5170089
:101300001301010267800000130101FE13578501DC
:1013100093070500135805011377070493568500BA
:1013200093089006232A910023120100938405005C
:10133000130650009305010013050000230011015E
:10134000A300E100230101012302F100232E11007B
:10135000232C8100A301D100EFF00FC393171500D8
:1013600093E7170037070050B7180000A302F100F9
:10137000930720202320F70413830880930501009E
:10138000130E610013070704130800109388888068
:101390001305101003C6050013048000930700080E
:1013A0006F008001232017012320A7001304F4FFFE
:1013B00093D717006302040223200701B376F600D7
:1013C000E39206FE232067002320A7001304F4FF06
:1013D00093D71700E31204FE93851500E39CC5FB29
:1013E0009305600013058100EFF01FAF630605044D
:1013F000034781009307F00313050000631EF70203
:10140000930781009306C10003C7170013148400DB
:101410009387170033648700E398D7FE1305000015
:10142000635C04000347D1009307F00F6316F700D5
:1014300023A08400130510008320C101032481012F
:10144000832441011301010267800000130101FEA2
:10145000930700042320F100232C8100930730041C
:101460001304050013065000930501001305000046
:101470002300F100232E110023120100EFF0CFB062
:101480009317150093E71700B706005037130000B5
:10149000A302F1009307202023A0F6041305038084
:1014A000130E0100930E610093860604930800104A
:1014B000130383801308101083450E001307800068
:1014C000930700086F00800123A0660023A0060197
:1014D0001307F7FF93D717006302070223A0160133
:1014E00033F6F500E31206FE23A0A60023A00601B2
:1014F0001307F7FF93D71700E31207FE130E1E0022
:10150000E31CDEFB9305600013058100EFF0DF9C18
:10151000630405028347A1000347910013051000EF
:1015200093978700B3E7E7001397870093D7870067
:10153000B367F7002310F4008320C1010324810165
:101540001301010267800000130101FE130700046C
:101550002320E100930705001357850093067004CC
:101560001306500093050100130500002300D1006D
:101570002301F100232E110023120100A300E1003A
:10158000EFF08FA09317150093E71700B7060050F0
:10159000B7180000A302F1009307202023A0F6044F
:1015A000138E088013030100930E610093860604D6
:1015B00013080010938888801305101083450300DA
:1015C00013078000930700086F00800123A0160115
:1015D00023A0A6001307F7FF93D7170063020702A3
:1015E00023A0060133F6F500E31206FE23A0C60190
:1015F00023A0A6001307F7FF93D71700E31207FEF7
:1016000013031300E39C6EFA930560001305810039
:10161000EFF09F8C6308050003458100130595FFDB
:10162000133515008320C1011301010267800000FA
:10163000130101FE93070500135885019356050118
:10164000135785009308000523120100130650006C
:10165000930501001305000023001101A3000101FF
:101660002301D1002302F100232E1100A301E10088
:10167000EFF08F919317150093E71700B70600500E
:10168000B7180000A302F1009307202023A0F6045E
:10169000138E088013030100930E610093860604E5
:1016A00013080010938888801305101083450300E9
:1016B00013078000930700086F00800123A0160124
:1016C00023A0A6001307F7FF93D7170063020702B2
:1016D00023A0060133F6F500E31206FE23A0C6019F
:1016E00023A0A6001307F7FF93D71700E31207FE06
:1016F00013031300E39C6EFA930560001305810049
:10170000EFF08FFD6308050003458100130505FF19
:10171000133515008320C101130101026780000009
:10172000130101FE93070500135885019356050127
:10173000135785009308100523120100130650006B
:10174000930501001305000023001101A30001010E
:101750002301D1002302F100232E1100A301E10097
:10176000EFF08F829317150093E71700B70600502C
:10177000B7180000A302F1009307202023A0F6046D
:10178000138E088013030100930E610093860604F4
:1017900013080010938888801305101083450300F8
:1017A00013078000930700086F00800123A0160133
:1017B00023A0A6001307F7FF93D7170063020702C1
:1017C00023A0060133F6F500E31206FE23A0C601AE
:1017D00023A0A6001307F7FF93D71700E31207FE15
:1017E00013031300E39C6EFA130581009305600058
:1017F000EFF08FEE8320C1013335A0001301010209
:1018000067800000130101FEB337A0001307000436
:101810002320E100939717002312010013076004AF
:101820001306500093050100130500002302F10088
:10183000232E11002300E100EFE01FF593171500A0
:1018400093E71700B7060050B7180000A302F10095
:101850009307202023A0F604138E088013030100B1
:10186000930E610093860604130800109388888005
:101870001305101083450300130780009307000829
:101880006F00800123A0160123A0A6001307F7FF15
:1018900093D717006302070223A0060133F6F50071
:1018A000E31206FE23A0C60123A0A6001307F7FF3C
:1018B00093D71700E31207FE13031300E31CD3FBB7
:1018C0009305600013058100EFF00FE16308050048
:1018D000034581001305A5FF133515008320C101C1
:1018E0001301010267800000130101FEB337A0005D
:1018F000130700042320E10093971700231201002F
:101900001307A006130650009305010013050000FD
:101910002302F100232E11002300E100EFE0DFE6B7
:101920009317150093E71700B7060050B71800008B
:10193000A302F1009307202023A0F604138E088051
:1019400013030100930E6100938606041308001030
:1019500093888880130510108345030013078000C7
:10196000930700086F00800123A0160123A0A600A2
:101970001307F7FF93D717006302070223A006019E
:1019800033F6F500E31206FE23A0C60123A0A6004D
:101990001307F7FF93D71700E31207FE1303130093
:1019A000E31CD3FB9305600013058100EFF0CFD259
:1019B0006308050003458100130565FD1335150017
:1019C0008320C1011301010267800000130101FFA0
:1019D0002324810023229100232611001384050073
:1019E00093040600EFF0DFD36308050A37070050C1
:1019F00093070040B72600002320F7049386A63201
:101A00001307070413050010930510106F008000E2
:101A1000638406082320A7002320B700832707003C
:101A20009386F6FF93D7470093F7F700E39207FEFC
:101A3000930504003308940063840404B70700503E
:101A400093870704130500101306101023A0A700A6
:101A500023A0C70003A7070023A0A70023A0C70057
:101A600083A607001377070F9385150093D64600CA
:101A700093F6F6003367D700A38FE5FEE318B8FCB2
:101A80008320C1000324810083244100130510003A
:101A900013010101678000008320C100032481003D
:101AA0008324410013050000130101016780000039
:101AB000130101FCB707010037070050232E110264
:101AC000232C8102232A9102938707F02320F70415
:101AD000930720202320F704930700402320F704D6
:101AE000930710102320F704B7170000938787800F
:101AF0002320F704B7F700002320F7041306001093
:101B00009307400613070704930610102320C7000D
:101B10002320D7009387F7FFE39A07FEEFF0CFCBA0
:101B20009305A00A13051000EFF0CFD813050000AD
:101B30001304C0002328010023170100B78401000B
:101B4000EFF00FEB630C0502930501013785FF40B1
:101B5000EFF08FFB631E05021304F4FF6300040221
:101B60009387046A130000009387F7FFE39C07FE46
:101B700013050000EFF0CFE7E31805FC8320C10355
:101B800003248103832441031301010467800000BF
:101B900093070004232AF1009305410193072004D1
:101BA0001306500013050000230AF100231C010056
:101BB000EFE09FBD9317150093E71700370400501F
:101BC00037180000A30CF100930720202320F40411
:101BD00093080880130341019304A1011304040432
:101BE00013050010130888809305101003460300A6
:101BF00013078000930700086F0080012320040171
:101C00002320B4001307F7FF93D7170063020702DE
:101C10002320A400B376F600E39206FE23201401ED
:101C20002320B4001307F7FF93D71700E31207FE32
:101C300013031300E31C93FA930510011305C1016C
:101C4000EFF08FA91305E100EFF05F808357E1000B
:101C500013070004232AE1009306900413D787009A
:101C6000130650009305410113050000230BF100FA
:101C7000231C0100230AD100A30AE100EFE0DFB03A
:101C80009317150093E71700A30CF100930720208A
:101C9000371300002320F400B7070050130E038011
:101CA00093084101938707041308001013038380EE
:101CB0001305101083C50800930680001307000861
:101CC0006F00800123A0670023A0A7009386F6FF82
:101CD000135717006382060223A0070133F6E500BD
:101CE000E31206FE23A0C70123A0A7009386F6FFF8
:101CF00013571700E39206FE93881800E39C14FB29
:101D0000930510011305C101EFF00F9D0355E1008C
:101D1000EFF09F8313050020EFF09F910355E10042
:101D2000EFF00FCD13051000EFF0DFAD0355E1002C
:101D3000EFF00FCC13051000EFF01FBB8320C103A1
:101D400003248103832441031301010467800000FD
:101D5000B707005023A8A70067800000130101FE09
:101D60001306D1009305000013052007232E110050
:101D7000232C8100A306010023070100A307010013
:101D8000EFE05FE71306E1009305600F13052007FE
:101D9000EFE05FE61306F1009305500F13052007EF
:101DA000EFE05FE50347E100930710016318F700D8
:101DB0000347F100930750076304F706138581B2C8
:101DC000EFF08F85138541B4EFF08F810345D1008B
:101DD000EFF08F89138541BBEFF00F84138541B578
:101DE000EFF00F800345E100EFF00F88138541BB52
:101DF000EFF08F82138501B6EFE09FFE0345F100FF
:101E0000EFF08F86138541BBEFF00F818320C10176
:101E10000324810113050000130101026780000003
:101E2000138501B1EFE0DFFB0345F100EFF0CF8355
:101E30000345E100EFF04F83138501B2EFE05FFA55
:101E40000345D100EFF04F82138541BBEFE0DFFC8B
:101E50008320C10103248101130510001301010235
:101E600067800000130101FE232E1100232C810046
:101E7000232A9100EFF09FEE631E05008320C1012D
:101E80000324810183244101130510001301010281
:101E9000678000001306F100930510041305200766
:101EA000A3070100EFE01FD50346F10093051004DE
:101EB000130520071376F60BA307C1009384C1B660
:101EC000EFE0DFC813842400130630009384E4039A
:101ED000930580096F000001834504000346140048
:101EE0001304240013052007EFE05FC6E39684FE89
:101EF0008320C101032481018324410113051000C3
:101F00001301010267800000930505000325050009
:101F1000630A050293070500930600021306A00357
:101F20006F008000630CC70003C70700938717008A
:101F3000E3EAE6FE130500006780000013072500B2
:101F40006386E7001305F0FF678000008346050005
:101F5000130700031305F0FFE398E6FE23A0F50046
:101F6000130500006780000063060506832705004F
:101F7000130101FE232C8100232E11001304050000
:101F8000638C070003C707006308070083564500FA
:101F900003D767006380E6021305900093070000F3
:101FA0008320C1010324810123A0F5001301010254
:101FB0006780000003C517002326B100EFE09F8172
:101FC000137515008325C100E31805FC8327040061
:101FD0006FF01FFD930700001305900023A0F5008C
:101FE00067800000130101FF232481002322910058
:101FF00023202101232611000326C5021304050016
:102000000345150013090403930610009305090006
:10201000EFE0DF8293041000631605020326C4027A
:102020008327040203278401A3010400B307F640B9
:102030009304050063F8E70083462400930720001B
:102040006380F6028320C10003248100032901007C
:1020500013850400832441001301010167800000FF
:1020600003451400930610003306E60093050900AB
:10207000EFE0CFFC6FF01FFD130101FE232A91005A
:1020800023282101232E1100232C81002326310136
:102090008347350093040500138905006390070A00
:1020A00083A744019305E9FF130900009387E7FF25
:1020B00063FAF50003D9A40083A784023309B902A7
:1020C0003309F9009389040323A62403130600208F
:1020D0009305000013850900EFE04F9C83D7A4000F
:1020E0001304000013050000639A07006F00C0028C
:1020F00003D5A400130414006370A40203C51400E4
:10210000330689009306100093850900EFE00FF372
:10211000E30005FE03D5A4008320C1013305A440DC
:102120000324810183244101032901018329C10082
:102130003335A0001301010267800000EFF09FEA31
:102140009307050013051000E38C07F48320C101F9
:102150000324810183244101032901018329C10052
:102160001301010267800000130101FF2324810095
:10217000232611008347350013040500639A0702E4
:102180000347040093073000630EF7020345140071
:102190001306000093050000EFE04FEC3335A0007C
:1021A0008320C10003248100130101016780000026
:1021B000EFF05FE3E31605FE0347040093073000EA
:1021C000E316F7FC0347440093071000E310F7FC05
:1021D00093070403130600209305000013850700EE
:1021E000EFE0CF8B832604010327C4000326C4013C
:1021F00093070500930050050345140013032005C1
:1022000093051006130810049308200793D3860043
:1022100093D2060193DF860113061600135F870031
:10222000935E0701135E8701230714229300A0FA2F
:102230002309B402A30BB420230CD420A307142237
:1022400023086402A3086402A3090403230A1421D7
:10225000A30A1421230B0421A30C7420230D542062
:10226000A30DF421230EE420A30EE421230FD42197
:10227000A30FC4212326C4029306100093850700F0
:10228000EFE0CFDB230204006FF05FF0130101FFEA
:102290002324810023229100232611008347350047
:1022A000130405009384050063900704034514009C
:1022B000930610001386040093050403EFE08FD308
:1022C000631E0500232694028320C100032481009D
:1022D00083244100130101016780000013051000F1
:1022E0009304F0FF6FF01FFEEFF0DFCFE30005FC7B
:1022F0008320C100032481008324410013010101D4
:1023000067800000130101FF2324810023202101A5
:1023100023261100232291001309F0FFA3010500D9
:1023200023262503130405006382250503451500B4
:10233000938405001386050093061000930504039B
:10234000EFE04FCB63020502232624031305400070
:102350008320C1000324810083244100032901005C
:102360001301010167800000232694028344F422B4
:102370008346E42283470403939484001307B00E3A
:10238000B3E4D4006380E7049387870193F7F70FE2
:10239000130710006378F70237B500008320C100EF
:1023A00003248100130555A53385A4403335A000CF
:1023B00083244100032901001305250013010101B5
:1023C00067800000B7B70000938757A56380F40EBD
:1023D0008347C4030347B4038346D403939787001A
:1023E000B3E7E7001387F7FF3377F70013053000F3
:1023F000E31007F61307002013053000E39AE7F413
:10240000E38806F49387F6FFB3F6D700E39206F469
:102410008347F4030347E40393978700B3E7E70098
:10242000E38C07F683470404130710009387F7FF34
:10243000E364F7F683472404034714049397870063
:10244000B3E7E700E38A07F4834744048346340490
:102450001307F00793978700B3E7D700636AF70283
:1024600083461405034604050347240583473405C2
:1024700093968600B3E6C600131707013367D700AB
:1024800093978701B3E7E70037070100E3E6E7F03A
:10249000834774040347640493978700B3E7E70016
:1024A000E38C07EE130500006FF09FEA130680002F
:1024B0009385C1BA13052408EFD01FC59307050003
:1024C00013050000E38607E88347C4030347B4030A
:1024D0001305200093978700B3E7E7001387F7FF02
:1024E0003377F700E31607E6130700208346D4038B
:1024F000E390E7E66FF0DFF0130101FD23202103F5
:10250000232E31012326110223248102232291024A
:1025100023A005009389050013090600EFF0DF9E54
:102520006346053A931725001387016EB307F7003A
:1025300003A40700930405006306043C23A089005C
:10254000834704001379E90F6382070403451400ED
:10255000EFE04FA8137715009307050063180702F3
:10256000130500006306090093F7470063920724F0
:102570008320C10203248102832441020329010232
:102580008329C101130101036780000013F5F40FD3
:1025900023000400A300A400EFE0CFA113771500EF
:1025A0009307050013053000E31407FC63060900D8
:1025B00093F74700639E071E930500001305040070
:1025C000EFF05FD413072000930705006302E520B6
:1025D0001307400013051000E38CE7F86368F52C3F
:1025E0008347C4038346B4031307002093978700EF
:1025F000B3E7D700639CE72A834774040347640466
:1026000093978700B3E7E7006396070203475405F3
:102610000346440583476405834674051317870002
:10262000939707013367C70033E7E7009397860165
:10263000B3E7E70083460404232CF40013061000DC
:102640001387F6FF2301D4001377F70F8325C40205
:10265000636EE6248348D4031397080113570701D8
:102660002315E400630407241387F8FF3377170169
:10267000631E07220346240403471404131686002E
:102680003366E6002314C4001377F60063100722B4
:102690000347440403453404131787003367A70036
:1026A0006316070203481405034304050345240584
:1026B00003473405131888003368680013150501B3
:1026C00033650501131787013367A7000345F4033A
:1026D0000348E40313158500336505016308051CF1
:1026E000B386F602135846003308A8003308D80012
:1026F000636E071B33070741335317036368171BC8
:1027000037070010130757FF6362671A3707010086
:10271000130757FF930823003305B50033880501DD
:102720006366671E37170000130757FF232A14013B
:10273000232EB4002320A4022324040363606736FD
:10274000630606161397180033071701B386A60011
:102750001357170093F818002322D40233071701E8
:10276000930610001307F71F1357970063E0E71451
:102770009307F0FF2328F4002326F400930700F8C2
:102780002302F40093F6F60F1387416E8357070078
:102790002300D400130500009387170093970701C7
:1027A00093D707012310F7002313F4006FF05FDCC9
:1027B0008320C102032481028324410203290102F0
:1027C0008329C1011305A0001301010367800000E4
:1027D000034F741F834E7420034E742103437422ED
:1027E0008344641F8348841F8343642003488420F8
:1027F0008342642103458421834F642283458422DC
:102800000346941F834694200347942183479422D0
:10281000131F8F00939E8E00131E8E0013138300D0
:10282000336F9F0093980801B3EE7E0013180801E0
:10283000336E5E00131505013363F30193950501B3
:10284000B3E8E801131686013368D8019396860130
:102850003365C50113178701B3E5650093978701B9
:1028600033661601B3E606013367A700B3E7B70086
:102870002320C1002322D1002324E1002326F100DC
:1028800093040100130901019309100083A50400BA
:102890009307300093844400639A0504E31899FE7B
:1028A0001307400013051000E384E7CC8320C10226
:1028B0000324810283244102032901028329C101E7
:1028C0001305D00013010103678000008320C102BB
:1028D0000324810283244102032901028329C101C7
:1028E0001305B00013010103678000001305040005
:1028F000EFF05FA193070500E3F4A9CEE31899F880
:102900006FF01FFA1305C0006FF09FC60347B405B0
:102910008346A405232A1401131787003367D700C1
:10292000232EB4002320A402232404033366C7000B
:10293000E31E06F60347D4050345C4050346E40534
:102940008346F405131787003367A70013160601A3
:102950003366E6009396860113972800B3E6C60017
:102960001307F71F2322D40213579700E3E0E7F47D
:1029700083471406834604061307F0FF93978700E6
:102980002328E4002326E400130700F82302E400D0
:10299000B3E7D700130710006386E7009306300003
:1029A0006FF09FDE9385150013050400EFF01F8E76
:1029B000E31605FE8347F4220347E42223020400C2
:1029C00093978700B3E7E70037B70000130757A5D1
:1029D000E396E7FC834614030346040303472403FA
:1029E0008347340393968600B3E6C60013170701A6
:1029F0003367D70093978701B3E7E7003757614103
:102A000013072725E39CE7F8834654210346442116
:102A1000034764218347742193968600B3E6C6007A
:102A2000131707013367D70093978701B3E7E700D0
:102A30003777416113072727E392E7F6034594218F
:102A40008345D421834884210346A4210348C4211B
:102A50008346E4210347B4218347F42113158500FD
:102A6000939585003365150113160601B3E505013D
:102A700093960601B3E6B6003366A60013178701E6
:102A800093978701B3E7D7003367C7002328E40093
:102A90002326F400930630006FF01FCFE30806E012
:102AA000B386A6002322D4021397180093062000B1
:102AB0006FF05FCB130101FE232C8100232A9100CC
:102AC00023263101232E1100232821012324410133
:102AD000232251018347050013072000130405003A
:102AE00093840500930906006380E7041307300010
:102AF000638CE7169306100013072000638ED70837
:102B00008320C101032481018324410103290101A0
:102B10008329C100032A8100832A4100130507008D
:102B20001301010267800000032605028327C50206
:102B300013D985003309C900130A05036306F90296
:102B4000834735006390072403451400130A0403E8
:102B5000930610001306090093050A00EFD09FC9E1
:102B6000631C050E232624039395140093970901F3
:102B700093F5E51F93D70701330ABA0093D787006F
:102B8000A300FA0023003A0193071000A301F40008
:102B9000130700006FF0DFF60326050213D91500B6
:102BA0003309B9008327C502135A9900330ACA00B2
:102BB000930A05036306FA0283473500639C071AEC
:102BC00003451400930A04039306100013060A0039
:102BD00093850A00EFD01FC2631005082326440323
:102BE000130A190093F414001379F91F33892A0189
:102BF00013569A006382041203470900B7160000B7
:102C000093974900938606FF1377F700B3F7D70031
:102C1000B367F7002300F900032904028327C402E5
:102C200013071000A301E400330926016304F91619
:102C300013050400EFF00FBB13070500E31205ECCA
:102C400003451400930610001306090093850A003B
:102C5000EFD05FBA6304050A9307F0FF2326F4025E
:102C6000130710006FF0DFE9032605028327C50272
:102C700013DA7500330ACA00130905036306FA0262
:102C8000834735006390070E0345140013090403BE
:102C90009306100013060A0093050900EFD09FB5B4
:102CA000E31C05FA232644039394240093F4C41FE1
:102CB000B304990083C73400139649009359460022
:102CC00093978701370600F033F6C7003366360165
:102CD0001357060193578601935686002381E4001B
:102CE000A381F4002380C400A380D40093071000C4
:102CF000A301F400130700006FF09FE0137AFA1F9E
:102D000023262403B38A4A01638A040213D64900A6
:102D10001376F60F6F00C003230039010329040264
:102D20008327C40213071000A301E400330926011E
:102D3000E310F9F0137AFA1FB38A4A0103C60A00B6
:102D400093D9890093F9F9001376060F336636019B
:102D50002380CA0093071000A301F40013070000AA
:102D60006FF01FDAEFF00FA813070500E30E05F070
:102D70006FF01FD9EFF00FA713070500E30205E47A
:102D80006FF01FD8EFF00FA613070500E30E05DA6A
:102D90006FF01FD7137AFA1FB38A4A016FF01FF73B
:102DA000130710006378B70683264501130101FE5F
:102DB000232C8100232A9100232E11002328210196
:102DC00023263101232441011384050093040500C7
:102DD0009307100063FED50083460500130620000C
:102DE0006388C616130630006384C60E638AE60243
:102DF0008320C101032481018324410103290101AE
:102E00008329C100032A81001385070013010102F1
:102E1000678000009307100013850700678000009B
:102E20000326050213D915003309B9000327C5028B
:102E300093599900B389C9006388E9028347350033
:102E4000639E071803C5140093061000138609003B
:102E500093850403EFD01F9A631C051403A6040294
:102E600023A63403138709009309190013DA990084
:102E70001379F91F33892401330ACA00034909036E
:102E80006304470383C734006392071603C5140025
:102E90009306100013060A0093850403EFD09F9554
:102EA0006318051023A6440393F9F91FB384340172
:102EB00083C704031374140093978700B3E72701B3
:102EC000631404089397470193D747016FF05FF2AB
:102ED000032605028327C50293D97500B389C9006B
:102EE000130905036386F902834735006398070CCD
:102EF00003C5140013890403930610001386090008
:102F000093050900EFD01F8F6314050A23A634032D
:102F1000131424001374C41F33048900834614005F
:102F20000346040003472400834734009396860039
:102F3000B3E6C600131707013367D70093978701DD
:102F4000B3E7E7009397470093D747006FF05FEA36
:102F5000032605028327C50213D985003309C9005A
:102F6000930905036306F90283473500639007065A
:102F700003C5140093890403930610001306090087
:102F800093850900EFD01F876314050223A624034D
:102F90009315140093F5E51FB385B90083C7150099
:102FA00003C7050093978700B3E7E7006FF05FE47E
:102FB0009307F0FF23A6F4026FF09FE3EFF08F82F8
:102FC000E30805F29307F0FF6FF09FE2EFF08F81C7
:102FD000E30005FA9307F0FF6FF09FE1EFF08F80B9
:102FE000E30205E69307F0FF6FF09FE0138504000E
:102FF000EFE05FFFE30C05E89307F0FF6FF05FDFA2
:10300000130101FE232C8100232E1100232A91009D
:103010002328210123263101930710001384050082
:1030200063F8B70A032745019304050063F2E50A34
:1030300093050600631C0608130910009309F0FFAE
:103040009305040013850400EFF09FD513070500D6
:103050009307040093050400130600001385040081
:10306000130407006304070463042707630C37098C
:103070006370F90603A7440163FCE704EFF09FA324
:10308000631A050483A7440103A704019386E7FF9D
:1030900013061700637AD70003C7440023A8C400AF
:1030A000136717002382E400E36CF4F88320C10166
:1030B0000324810183244101032901018329C100E3
:1030C0001305000013010102678000006312F6027D
:1030D000130520008320C1010324810183244101C1
:1030E000032901018329C100130101026780000047
:1030F000E370E6FE1306F0FFEFF0DF9BE30E05F250
:103100006FF05FFD8320C10103248101832441010D
:10311000032901018329C1001305100013010102D5
:1031200067800000130101FE232441012322510185
:10313000232E1100232C8100232A91002328210112
:1031400023263101138A0500930A050063960510B2
:103150008324C500639C040E9304100083A70A0116
:103160006380070C83A74A0113840400130910002D
:103170009309F0FF6F004001630A2515630C3515B4
:103180006380840A83A74A011304140013850A008C
:103190006366F40063769908130420009305040025
:1031A000EFF01FC0E31A05FC9307100063F08712CD
:1031B00083A74A01637CF4101306F0FF9305040013
:1031C00013850A00EFF01F8F631E050E63040A02C9
:1031D00093071000630CFA0E83A74A016378FA0E76
:1031E0001306040093050A0013850A00EFF09F8C74
:1031F000631A050C83A74A0103A70A0123A68A00C4
:103200009387E7FF63E6E7001307F7FF23A8EA00C9
:1032100083C74A0093E717002382FA006F008000FB
:10322000130400008320C10113050400032481015D
:1032300083244101032901018329C100032A81005C
:10324000832A4100130101026780000083274501A2
:10325000E3E6F4F06FF05FF0EFF09FB49307100037
:103260001304050063F4A7069307F0FF6304F50653
:1032700083A74A01E368F5FA03A70A01E30207FA04
:1032800013041A006364F40013042000930504007F
:1032900013850A00EFF0DFB0130710006308E502A2
:1032A0009307F0FF6308F502630A050283A4CA00CE
:1032B00083A74A0163749700E3E8F4EA93040A00E1
:1032C0006FF09FEA930710006306F50013041000E7
:1032D0006FF05FF51304F0FF6FF0DFF4E31A04EC16
:1032E00083A74A0193040A006FF01FE8130101FE4F
:1032F00083258500232C8100232A9100232E110091
:1033000023282101232631012328050083240500D9
:1033100013040500639E050403C7040093072000FF
:1033200063E2E70483D784006384070883A7440229
:10333000232CF400232AB400638C0706938404032F
:10334000232E9400130500008320C1010324810172
:1033500083244101032901018329C10013010102D2
:103360006780000083A74402E38E07FA9385070075
:1033700083D7A4001309F0FF93091000638A0700A4
:103380006F00000563F6A90283A744016372F5028A
:1033900003250400EFF0DFA093050500E31425FFEB
:1033A000130510006FF05FFA232C0400232AB400E9
:1033B0008320C101032481018324410103290101E8
:1033C0008329C1001305200013010102678000005A
:1033D00003A744019386E5FF1307E7FFE3F6E6FC46
:1033E000B387D70203A78402B387E700232CF40036
:1033F0006FF05FF4130101FE232A9100832405017D
:10340000232C8100232E11002328210123263101A2
:10341000232441012322510123206101B707200009
:10342000938404021304050063EAF402232C0400CD
:10343000130540008320C10103248101832441013D
:10344000032901018329C100032A8100832A410045
:10345000032B01001301010267800000832785010F
:103460006386071013FAF41F03290500631A0A0A7A
:10347000938905008325450193871700232CF500C8
:10348000638C050A8357A90093DA94009387F7FFAA
:10349000B3FA570163960A0813050900EFF05F902D
:1034A00093071000130B050063FEA70A9307F0FFB4
:1034B0006306F50A832749016362F504E38809F688
:1034C0008325440103250400EFF0DFC5130B05003D
:1034D00013057000E3000BF6930710006304FB086C
:1034E0009307F0FF630CFB0693050B00130509001F
:1034F000EFE09FB86314050683274901232A64017E
:103500009387E7FF130BEBFF637AFB00835AA90055
:1035100083278902B38A6A03B38AFA00232C5401F1
:10352000130909033309490123289400232E240198
:10353000130500006FF01FF08357890013D7540064
:10354000E376F7EE130909033309490123289400B0
:10355000232E2401130500006FF0DFED130510008A
:103560006FF05FED130520006FF0DFEC13054000F6
:103570006FF05FEC130101FB23248103032C050092
:1035800023248104232E31032326110423229104B2
:1035900023202105232C4103232A510323286103DF
:1035A00023267103232291032320A103232EB1019B
:1035B00013040500938905001307F0029306C00564
:1035C00083C709006384E7006396D70093891900D5
:1035D0006FF01FFF2324040003C709009307F001C5
:1035E00063F4E73413090402130BC005930BE002E4
:1035F000930700022300F900A300F9002301F9005A
:10360000A301F9002302F900A302F9002303F90042
:10361000A303F9002304F900A304F9002305F9002A
:1036200083C4090063F89706930A0000930680009C
:10363000130A1000130700001306F0029308000895
:103640001303F009130FF003930DE007930CC0016F
:10365000130D00026380C414638E6413638E7407B9
:1036600063FADA0263F8980A637893009387040296
:1036700093F7F70F63EAFC0EB387490183C707008E
:10368000637AFF0063F2FD1A93C507081305C007AC
:10369000637CB518130A60008320C10403248104ED
:1036A00083244104032901048329C103832A41039C
:1036B000032B0103832BC102032C8102832C4102C3
:1036C000032D0102832DC10113050A00032A810382
:1036D00013010105678000009307B000E38CF6FA40
:1036E00013070A00930A80009306B000B387E9002D
:1036F00083C40700130A1700E36E9DF40347040216
:103700009307500EB38949016306F72893074000D9
:103710006F00000C93850400138581BB2326D10024
:10372000EFC0DFCBE31805F69387F4F993F7F70FB3
:10373000130E90018326C1001306F00293080008BF
:103740001303F009130FF0036366FE00938404FE75
:1037500093F4F40FB307590123809700938A1A005A
:1037600013070A006FF09FF893850400138581BB4F
:103770002326D100EFC09FC68326C1001306F002A6
:10378000930800081303F009130FF003E30405FC8A
:103790006FF05FF0B38749019306F00203C707009B
:1037A000938907006304D7006316670193871700A6
:1037B0006FF0DFFEE3800AEE834604021307500E2B
:1037C0006384E61C83C7070093B71702939727000B
:1037D000A305F4021305040083240400EFF01FB1D5
:1037E000130A05006314050C938A0403832D8401D6
:1037F00083A7C4026380FD0683C734006392070A6F
:1038000003C514009306100013860D0093850A006B
:10381000EFC05FFE630E05029307F0FF23A6F402DC
:10382000130A10006FF05FE79385F6FFE3F4BAE642
:1038300093851A003305590123009500B305B9009B
:1038400013072700938A2A002380F5006FF01FEAF0
:1038500023A6B4038327C4011306B000930509000F
:1038600003C70700138507006304071083CDB70063
:1038700013F7FD032303E40083C7B70093F7870022
:1038800063960700EFC05F88630C05029305000094
:1038900013050400EFF01FB6E30A05F46F00000102
:1038A00013850400EFE00FF4E30C05F41307400068
:1038B0008347B4026300E50C130A05006FF0DFDDF7
:1038C0008347B40293F74700E39807DC93FD0D01AB
:1038D00063880D0A0327040193070C0303460C00B9
:1038E0001377F71FB387E70003C7B70183C5A701A5
:1038F00093063000131787003367B7006306D600BE
:103900002324E4006FF0DFCE83C6570103C64701CE
:1039100093978600B3E7C700939707013367F700D3
:103920002324E4006FF0DFCC930700F8A305F40232
:1039300013050400032481048320C104832441046B
:10394000032901048329C103032A8103832A410334
:10395000032B0103832BC102032C8102832C410220
:10396000032D0102832DC101130101056FF01F9882
:103970008347B40293F74700130A4000E39E07D041
:10398000130A50006FF05FD1130750002300E402C8
:103990006FF05FE3930750002300F40293074000A9
:1039A0006FF01FE3130101FE232C81002328210166
:1039B00023225101232E1100832A0500232A91007E
:1039C000232631012324410113040500EFF01F9247
:1039D00013090500630A0500930740006312F516FA
:1039E000130970006F004004138A0A039309500EF4
:1039F0008324840183A7CA02638EF40483C73A0038
:103A00006392071203C51A00930610001386040080
:103A100093050A00EFC01FDE630C05029307F0FF59
:103A200023A6FA02130910008320C1010324810197
:103A3000832441018329C100032A8100832A410094
:103A40001305090003290101130101026780000029
:103A500023A69A020327C40183470700638837011E
:103A600093051000130504006398070A832484015A
:103A700083A7CA026386F40283C73A00639C070ADD
:103A800003C51A00930610001386040093850A03E9
:103A9000EFC05FD6E31405F80327C40123A69A02FA
:103AA000130600029305000013050700EFC00FFF87
:103AB0008327C401834E1402034F0402034E2402E1
:103AC000034334028348440203485402034564021A
:103AD0008345740203468402834694020347A4028A
:103AE0002380E701A380D7012381C701A381670059
:103AF00023821701A38207012383A700A383B700B2
:103B00002384C700A384D7002385E7009307100010
:103B1000A381FA006FF05FF1EFF0DF8DE30A05ECAF
:103B20006FF09FEB13850A00EFE0CFCBE30C05ECC1
:103B30006FF09FEA13850A00EFE0CFCAE30205F4B5
:103B4000130905006FF05FEE130101FD2326A100AC
:103B50001305C10123248102232611022324B1006D
:103B600013040600232EB100EFE00FBA63440506EC
:103B70009387016E131525003387A70003270700DD
:103B800063040700230007000327C1006304070044
:103B9000230007003385A7002320E500130500005C
:103BA000631A04008320C10203248102130101036C
:103BB000678000009305C100130581001306000013
:103BC000EFE09F938320C1020324810213010103CC
:103BD000678000008320C102032481021305B00026
:103BE0001301010367800000130101F92326110668
:103BF000232481062322910623202107232E310529
:103C0000232C4105232A510523286105232671050C
:103C1000232481052326B1006304051C9379F60350
:103C2000130405001309060093050101138609001A
:103C30001305C100EFE05F8C93040500630E0502DD
:103C4000232004008320C1060324810603290106E2
:103C50008329C105032A8105832A4105032B010518
:103C6000832BC104032C81041385040083244106A3
:103C70001301010767800000832701018325C1002C
:103C800013054101232AF100EFF0DF8E63180502CE
:103C90008307F10363CA07141377C9018347A1019E
:103CA000630A070293F71701639807149377490093
:103CB0006380072A930480006FF09FF81379C9018D
:103CC0006306090093074000630CF5129304050096
:103CD0006FF01FF713F70701631C07101379290012
:103CE0006306090093F7170063980710832A010100
:103CF00003A7CA0293F789006384070093E90904C4
:103D0000832701032320E402130730002322F40257
:103D100003C9B70103C5A70183C60A0013198900A7
:103D20003369A9006388E6202324240183C6D701D0
:103D300083C5C70103C7E70103CAF701939786004C
:103D400003D66A00B3E6B70093170701B3E7D700BD
:103D5000131A8A01336AFA00130B84022312C40077
:103D6000230834012326440123205401A30804001E
:103D7000232E0400232A04001306002093050000CC
:103D800013050B0093F90902EFC04FD1E38C09EA48
:103D9000E30A0AEA83D9AA00232A440193999900E5
:103DA00063F4491D930B1000130CF0FF6F004001EA
:103DB000330A3A41630A851763F8491B832A0400D2
:103DC0009305090013850A00EFE09FFD1309050024
:103DD000E3E0ABFE93042000232C24016FF05FE6A8
:103DE000930490006FF01FE6930460006FF05FE5AE
:103DF000930440006FF0DFE4930470006FF05FE421
:103E000013054101EFF01FBA93E98900E31005ECB7
:103E100083270101032701031306100293060005FF
:103E20002308C70023070700A3070700A308D7003C
:103E30000327010393053000938A0700230CC70072
:103E4000230B0700A30B0700A30CD70003270103D4
:103E500083C607000349B7010346A7011319890068
:103E60003369C900639EB600834657010346470184
:103E700093968600B3E6C600939606013369D9008F
:103E800093060002A305D700032701039306300021
:103E9000230D0700A30D070003C607006316D60015
:103EA000230A0700A30A070003270103230E0700C4
:103EB000A30E0700230F0700A30F0700130710002E
:103EC000A381E700630409100325410113060000E4
:103ED0009305090003AAC702EFF08F92E31805DEED
:103EE000832A01011309F9FF03A7CA02630AEA0E34
:103EF00083C73A00639A070E03C51A0093061000A1
:103F000013060A0093850A03EFC0DF8E6304050CD5
:103F10009307F0FF23A6FA02832701019304100000
:103F200023A627016FF0DFD193041000232C240176
:103F30006FF01FD103C7570183C6470113178700CE
:103F40003367D700131707013369E9006FF0DFDD2E
:103F5000832A01011379890093870A00E31C09EA87
:103F600003A7CA026FF0DFD9232C24019377FA1F2D
:103F7000E38A07CC032701011309E9FF83274701DF
:103F80009387E7FF637CF9008357A7000326870226
:103F9000B3872703B387C700639607009304200005
:103FA0006FF01FCA13569A003306F600232EC40082
:103FB000034517009306100093050B00EFC09F8385
:103FC000E30205C8930410006FF09FC703A7C70260
:103FD0006FF05FD223A64A03832A010103A7CA0216
:103FE00023A62A016FF01FD113850A00EFD09FFF8F
:103FF000E30405F0832701019304050023A62701AC
:104000006FF01FC4130101FB2324810423229104B8
:1040100023202105232E3103232481032326110489
:10402000232C4103232A51032328610323267103F0
:10403000232291032320A103232EB101938905009C
:1040400023A006009305C100138906001304050090
:1040500093040600EFD05FF1130C05006318050C04
:10406000034C140163140C0C8347040193F71700ED
:104070006380071C83274401832CC400B38CFC405D
:1040800063E2941963840C0A930A0020130BF01F57
:10409000130A8402930BF0FF93F5F71F6392051048
:1040A0008326C10093DD970003D7A6001307F7FF0F
:1040B000B37DB70163880D128327840103A74601EE
:1040C0009387E7FF1307E7FF63FCE70403D7A60026
:1040D00003A68602B387E702B387C700638207049B
:1040E000B384FD0063749B0913DD9C00B387AD01AD
:1040F0006374F700330DB74103C51600138604003F
:1041000093060D0093850900EFC0CFEE63100510F4
:104110008307040163C60714131D9D006F00000A86
:1041200093072000A308F400130C20008320C1048F
:104130000324810483244104032901048329C10346
:10414000032A8103832A4103032B0103832BC1022A
:10415000832C4102032D0102832DC10113050C00A4
:10416000032C810213010105678000000326C401AE
:10417000630296028307040103C5160063CE070A93
:10418000930610001386040093050A00EFC08FE623
:10419000631E050683254401232E940093F5F51F25
:1041A000338DBA4063F4AC01138D0C0013060D007F
:1041B000B305BA0013850900EFB09FFC032709007F
:1041C00083274401B38CAC413307A7012320E900C6
:1041D000B307FD00232AF400B389A901E39E0CEA8A
:1041E0006FF0DFF4639C070283278400130710003D
:1041F000E378F7F2638C77018326C100232CF40067
:104200006FF0DFEB938C04006FF0DFE79307100093
:10421000A308F400130C10006FF05FF183258401F4
:1042200003250400EFE0DFB7930705006FF01FFCE4
:10423000130C70006FF09FEF9306100093050A00B7
:10424000EFC0CFDFE31405FC8347040193F7F707C2
:104250002308F4008327C10003C517006FF05FF245
:104260008327C401B3879740E3F8A7EB93979700A0
:104270001306002093050A003385F900EFB05FF0C4
:10428000131D9D006FF09FF3630E050A8327050041
:10429000130101FF23248100232611002322910012
:1042A0002320210113040500638C070003C70700C6
:1042B000630807008356450003D767006380E60262
:1042C000130590008320C100032481008324410052
:1042D00003290100130101016780000003C51700D5
:1042E000EFC04FCF13751500E31C05FC8347040195
:1042F00013F70704E30807FC9397870193D78741D7
:104300008324040063C407100329040283A7C402A2
:104310006300F90483C734006392071203C51400D5
:10432000930610001306090093850403EFC08FCC99
:10433000630E05009307F0FF23A6F4021305100097
:104340006FF05FF8130590006780000023A6240338
:10435000832744021306300003C7B7001367070220
:10436000A385E70003278400832504009316070133
:1043700093D6060193D68600238DE700A38DD70040
:1043800083C60500639AC60013570701935687003A
:10439000238AE700A38AD7000327C400238B0700E2
:1043A000A38B0700238EE700935587001356070160
:1043B0009356870113071002238CE70013070005AB
:1043C000A38EB700238FC700A38FD700A38CE7006D
:1043D00023890700A389070093071000A381F40035
:1043E00013850400EFD05FD88347040193F7F7FBF0
:1043F0002308F4008320C1000324810083244100AA
:104400000329010013010101678000000326C40194
:1044100003C514009306100093058402EFC00FC279
:104420009307050013051000E39E07E88347040186
:1044300093F7F7072308F4006FF01FED13850400CE
:10444000EFD05FBAE30C05EC6FF0DFE7130101FE7C
:10445000232C8100232E110013040500EFF0DFE26E
:10446000630A05008320C1010324810113010102B5
:10447000678000009305C10013050400EFD0DFAE94
:10448000E31205FE8320C1012320040003248101DF
:08449000130101026780000026
:104498000009121B242D363F48415A536C657E771C
:1044A80019100B023D342F265158434A757C676E0C
:1044B800323B2029161F040D7A7368615E574C45FC
:1044C8002B2239300F061D14636A7178474E555CEC
:1044D800646D767F4049525B2C253E3708011A13DC
:1044E8007D746F6659504B42353C272E1118030ACC
:1044F800565F444D727B60691E170C053A332821BC
:104508004F465D546B627970070E151C232A3138AB
:104518004148535A656C777E09001B122D243F369B
:1045280058514A437C756E671019020B343D262F8B
:10453800737A6168575E454C3B3229201F160D047B
:104548006A6378714E475C55222B3039060F141D6B
:10455800252C373E0108131A6D647F7649405B525B
:104568003C352E2718110A03747D666F5059424B4B
:10457800171E050C333A21285F564D447B7269603B
:104588000E071C152A233831464F545D626B70792B
:104598006469736B5F696E697469616C697A6500D7
:1045A8006469736B5F737461747573006469736BAA
:1045B8005F726561640000006469736B5F7772699C
:1045C800746500006469736B5F696F63746C0000E5
:1045D800726561646D652E7478740000526561645B
:1045E8002000000020627974657321002A2A20497E
:1045F8006E697469616C697A6520566964656F2EA5
:104608002E2E00002A2A20496E697469616C697A25
:104618006520534420636172642E2E2E0000000032
:104628002A2A20496E697469616C697A6520465343
:104638002E2E2E002A2A205265616479000000007F
:104648000D0A00003031323334353637383961627B
:1046580063646566000000004964656E7469666994
:104668006564204144560000207265763A200000B7
:10467800556E6B6E6F776E2048444D4920656E63AA
:104688006F64657220636869702E00004368697002
:10469800207265766973696F6E3A200043686970A5
:1046A80020494420303A200043686970204944205A
:1046B800313A2000980301000218030014701520F5
:1046C800163018464080411049A85510560896F6ED
:1046D8007307761F980399029AE09C309D61A2A403
:1046E800A3A4A504AB40AF16BA60D1FFDE10E46006
:1046F800FA7D00004641543332202020000000009B
:0F4708002A2B2C3A3B3C3D3E5B5D7C223F7F00E1
:044718002047002016
:10472000000000000C4A0020744A0020DC4A0020EF
:104730000000000000000000000000000000000079
:104740000000000000000000000000000000000069
:104750000000000000000000000000000000000059
:104760000000000000000000000000000000000049
:104770000000000000000000000000000000000039
:104780000000000000000000000000000000000029
:104790000000000000000000000000000000000019
:1047A0000000000000000000000000000000000009
:1047B00000000000000000000000000000000000F9
:1047C00000000000000000000100000000000000E8
:1047D0000E33CDAB34126DE6ECDE05000B000000AD
:1047E00000000000000000000000000000000000C9
:1047F00000000000000000000000000000000000B9
:1048000000000000000000000000000000000000A8
:104810000000000000000000000000000000000098
:104B400000000000000000002047002000000000DE
:0400000520000000D7
:00000001FF
