:020000041000EA
:10000000EF0000046F00000000000000000000008E
:1000100000000000000000000000000000000000E0
:1000200000000000000000000000000000000000D0
:1000300000000000000000000000000000000000C0
:10004000130101FD2326810213040103B7070040B9
:100050002320F4FEB7070050232EF4FCA30704FE70
:10006000230704FEA30604FE0347D4FE8327C4FD32
:1000700023A0E700232404FE6F008009232204FE4E
:100080006F00C0068347F4FE139707018347E4FE21
:10009000939787003367F7008347D4FEB366F70072
:1000A000032784FE9307070093972700B387E70091
:1000B0009397670013870700832744FEB307F70071
:1000C00093972700032704FEB307F7001387060062
:1000D00023A0E7008347F4FE93871700A307F4FEED
:1000E000832744FE938717002322F4FE032744FE50
:1000F0009307F013E3D8E7F88347E4FE93871700EC
:100100002307F4FE832784FE938717002324F4FE3D
:10011000032784FE9307F00EE3D2E7F68347D4FE6D
:0C01200093871700A306F4FE6FF01FF495
:04012C0000000000CF
:0400000510000000E7
:00000001FF
