:020000041000EA
:1000000097210000938101CA1385C1021386C102A2
:100010003306A64093050000EF10C0081715000036
:100020001305852D630805001715000013058527A6
:10003000EF10402CEF00D06B032501009305410029
:1000400013060000EF1040396F009067130101FFA5
:100050002324810083C70101232611006390070236
:1000600093070000638807001385010097000000D4
:10007000E7000000930710002388F1008320C100EF
:100080000324810013010101678000009307000031
:10009000638A07009385410113850100170300005F
:1000A000670000006780000013151500B7170010E7
:1000B0003345B5009387C745B387A70003C507003D
:1000C00067800000B71700103386C5009387C745C7
:1000D0006394C5006780000003C705001315150071
:1000E000938515003345E5003385A70003450500DA
:1000F0006FF01FFEB707005083A707021307100019
:10010000639E05003315A7001345F5FFB3F7A7005D
:10011000370700502320F70267800000E39AE5FECE
:10012000B395A500B3E7B7006FF09FFEB707005087
:1001300083A7470213071000639E05003315A7002D
:100140001345F5FFB3F7A700370700502322F70246
:1001500067800000E39AE5FEB395A500B3E7B7001A
:100160006FF09FFE130101FF23260100130790008B
:100170008327C1006376F700130101016780000047
:100180008327C100938717002326F1006FF05FFEDD
:10019000130101FF2326110023248100930710017E
:1001A000370400502328F402EFF0DFFB930720020E
:1001B0002328F402EFF01FFB930700012328F40229
:1001C000EFF05FFA930700022328F4020324810072
:1001D0008320C100130101016FF0DFF8130101FF5B
:1001E00023261100232481009307000137040050C7
:1001F0002328F402EFF01FF7930720022328F402CC
:10020000EFF05FF6930710012328F4020324810026
:100210008320C100130101016FF0DFF4130101FE1F
:10022000232C8100232A9100232821012326310138
:100230002324410123225101232E1100B70700502E
:10024000130710019309050023A8E7029304800017
:100250001304000037090050930A2002130A000219
:10026000131414001374F40F130709032320570108
:100270008327070093F72700E38A07FEEFF09FEE3E
:100280008327090393F7170063840700136414009E
:100290009384F4FF2328490393F4F40F930709038D
:1002A000E39004FC13070001639409001307100195
:1002B000B704005023A0E7009307200223A8F4020C
:1002C000EFF05FEA8320C1019307000213050400E9
:1002D0000324810123A8F4029307100123A8F40248
:1002E00003290101832441018329C100032A8100DC
:1002F000832A41001301010267800000130101FEFF
:10030000232C810037040050232A91002328210147
:10031000232631012324410123225101232061019D
:10032000232E110093040500130980001304040315
:10033000930A0001130B1001130A20029309000213
:100340009397840193D7874163D8070623206401DC
:10035000232044011309F9FF93941400EFF09FE068
:100360001379F90F2320340193F4F40FE31A09FCF5
:10037000930710012320F400930720022320F400A8
:10038000EFF05FDE032504008320C1012320340148
:100390000324810183244101032901018329C10030
:1003A000032A8100832A4100032B010013751500E5
:1003B0001301010267800000232054016FF05FF9F0
:1003C000130101FE232E1100232C8100232A91000A
:1003D00013040600938405002326A100EFF05FDBE1
:1003E0000325C100EFF09FF113850400EFF01FF12A
:1003F00013050400EFF09FF0032481018320C10165
:1004000083244101130101026FF05FDD130101FF3D
:10041000232611002324810023229100232021017F
:10042000930406001389050013040500EFF05FD65E
:1004300013050400EFF09FEC13050900EFF01FEC2B
:10044000EFF01FD513651400EFF05FEB130500000C
:10045000EFF0DFDC032481008320C10003290100C9
:100460002380A40083244100130101016FF01FD7F2
:10047000B386B640B307A64093961600370800012E
:10048000B388F64013971700130E0014B70E004000
:100490001308F8FF6344C50067800000B387C503F5
:1004A00033831601B387A70093972700B387FE0015
:1004B00023A0070163C60800938515003303E340BA
:1004C00013051500930803006FF0DFFC130101FF13
:1004D0002324810023261100130405000345040092
:1004E000631A05008320C100032481001301010168
:1004F00067800000EF00C07D130414006FF01FFE42
:10050000130101FF23261100EFF05FFC8320C100DF
:1005100013850193130101016FF05FFB130101FDCE
:1005200023248102130610011304050093854193CF
:100530001305C10023261102EF00502493574400F5
:1005400093870702B387270003C5C7FE1374F4001F
:10055000EF00007893070402338427000345C4FEAC
:10056000032481028320C102130101036F0040763E
:100570009307000037070050930600101306101071
:1005800063C4A700678000002320D7042320C7048A
:10059000938717006FF0DFFEB70700501307202086
:1005A000B716000023A0E70413830680130700009A
:1005B000938707049308001093868680130E10100B
:1005C0006344B700678000003306E500834E0600F1
:1005D000130800081306800023A0170133FF0E0143
:1005E00063000F0223A0D70023A0C7011306F6FF64
:1005F00013581800E31206FE130717006FF05FFC94
:1006000023A067006FF05FFE130101FFB7070050E2
:10061000130700202326110023A0E704130800106D
:100620001307A002938707041306101023A00701E5
:1006300023A0C70083A6070093F686006382060204
:100640001307F7FFE31407FE13858194EFF05FEBC8
:10065000130500008320C100130101016780000021
:100660001307001023A0E70023A0C70083A70700FB
:1006700093F78700638E07041385C1956FF01FFD04
:100680002320160523206604032806041378880017
:10069000630608003358FE40B3E606016396D703AD
:1006A000B307E5002380D700130717009307000066
:1006B00093060000E346B7FC13058000EFF05FEB04
:1006C000130510006FF01FF9938717006FF09FFE5E
:1006D0001307000093072000930600003706005020
:1006E0009308001013031010130E0008930E7000EF
:1006F0006FF05FFC130101FE930700041306500026
:100700009305810013050000232E1100232C810086
:100710002324F10023160100EFF0DF9A13151500D2
:1007200013651500A306A100930560001305810061
:10073000EFF09FE69305100013054100EFF0DFECAA
:10074000631205021304050013858197EFF05FDB48
:100750008320C10113050400032481011301010258
:10076000678000000345410013041000EFF01FDB19
:10077000138581B5EFF0DFD813858199EFF05FD84D
:100780006FF01FFD130101FE930700042320F10009
:100790002312010093078004232A910023282101BA
:1007A0002300F1002302B1009377F50013065000F7
:1007B000130905009384050013050000930501004B
:1007C000232E1100232C8100A301F100EFF09F8F55
:1007D0009317150093E717009305600013050100B8
:1007E000A302F100EFF05FDB9305600013058100C9
:1007F000EFF09FE163160502130405001385419A8B
:10080000EFF01FD08320C1011305040003248101F0
:1008100083244101032901011301010267800000C3
:100820000347810093078000630AF7001385419C0A
:10083000EFF01FCD130400006FF0DFFC8347B10021
:10084000638627011385C19D6FF09FFE8347C1001A
:10085000638697001385819F6FF09FFD13065000FC
:100860009305810013050000EFF0DF858347D10079
:1008700013D717006306E500138541A16FF05FFBF6
:1008800093F71700639607001385C1A26FF05FFA14
:10089000138541A4EFF0DFC6130410006FF09FF63C
:1008A000130101FE930700042320F1009307700752
:1008B0002300F1002301A100935785001306500087
:1008C0009305010013050000232E1100232C810045
:1008D000A300F10023120100EFF0CFFE1315150065
:1008E00013651500A302A100930560001305010024
:1008F000EFF09FCA9305600013058100EFF0DFD091
:100900006312050213040500138501A5EFF05FBF14
:100910008320C10113050400032481011301010296
:10092000678000000347810093077003630AF700A4
:10093000138501A7EFF0DFBC130400006FF05FFD2B
:10094000130650009305810013050000EFF08FF7A8
:100950008347D10013D717006306E500138581A8EC
:100960006FF05FFD93F7170063960700138501AAE8
:100970006FF05FFC138581ABEFF09FB8130410009C
:100980006FF01FF9130101FE930790062300F10099
:100990009357850193F7070423120100A300F10088
:1009A00093570501232A91002301F1002302A1009E
:1009B000935785001306500093840500130500002B
:1009C00093050100232E1100232C8100A301F100C7
:1009D000EFF04FEF1315150013651500A302A100EA
:1009E0009305600013050100EFF01FBB9305600045
:1009F00013058100EFF05FC16314050213040500C5
:100A0000138541ACEFF0DFAF8320C1011305040073
:100A10000324810183244101130101026780000046
:100A20001307000093070000930640001307170008
:100A3000130681003306E6000346060093978700FD
:100A4000B367F600E314D7FE23A0F400138581AE4C
:100A5000EFF01FAB130410006FF01FFB130101FD3B
:100A60009307000423248102232021032322F10081
:100A70001306500093072004130905001384050092
:100A80001305000093054100232611022322910241
:100A90002302F10023140100EFF0CFE293171500B9
:100AA00093E717009305600013054100A304F100CC
:100AB000EFF09FAE930510011305C100EFF0DFB416
:100AC0006316050293040500138581AFEFF05FA361
:100AD0008320C1020324810203290102138504003B
:100AE0008324410213010103678000009307000182
:100AF0001306040063D28702130600019305D10098
:100B000013050900EF008047138581B1EFF05F9F67
:100B1000930410006FF0DFFBE35204FE13060000A5
:100B20006FF0DFFD130101FE93070004232A9100FB
:100B30002320F100130650009307300493050100B1
:100B40009304050013050000232E1100232C8100BF
:100B50002300F10023120100EFF0CFD69317150008
:100B600093E717009305600013050100A302F1004D
:100B7000EFF09FA29305600013058100EFF0DFA85E
:100B80006314050213040500138541B2EFF05F976B
:100B90008320C10113050400032481018324410142
:100BA00013010102678000008347A1000347910001
:100BB00093978700B3E7E7001397870093D78700E1
:100BC000B367F7002390F400138541B4EFF05F930F
:100BD000130410006FF0DFFB130101FD3707010064
:100BE00023261102B70700502324810223229102F9
:100BF000130707F023A0E7041307202023A0E7042E
:100C00001307404023A0E7041307101023A0E704B4
:100C1000371700001307878023A0E70437F7000089
:100C200023A0E70413054006EFF09F94EFF09FAC7C
:100C30009305A00A13051000EFF0DFB413050000C0
:100C40002326010023150100EFF09FC59305C10085
:100C50003785FF40EFF01FD3930500011305010115
:100C6000EFF0DFDF138501B5EFF05F8613040000BE
:100C70009304000193070101B387870003C50700B0
:100C800013041400EFF09F89E31694FE138581B5D9
:100C9000EFF01F871305A100EFF0DFE81385C1B562
:100CA000EFF0DF828354A10013050000EFF01F87EF
:100CB00013F5F40FEFF09F86138581B503248102AD
:100CC0008320C10283244102130101036FF05F837B
:100CD000B707005023A8A70067800000130101FD9B
:100CE0002324810223229102138405009304060029
:100CF0009375F50F1306F101130520072326110242
:100D00002326B100A30F0100EFF04FF00346F101DD
:100D10009347F4FF8325C100337494003376F600C3
:100D2000336686001376F60F13052007A30FC10064
:100D3000EFF00FE98320C1020324810283244102E2
:100D40001301010367800000130101FE1306D100A7
:100D50009305000013052007232E1100232C81008A
:100D6000A306010023070100A3070100EFF00FEA2B
:100D70001306E1009305600F13052007EFF00FE95C
:100D80001306F1009305500F13052007EFF00FE84D
:100D90000347E10093071001631AF7040347F100CA
:100DA000930750076314F704138541B6EFF00FF271
:100DB0000345F100EFF08FF60345E100EFF00FF689
:100DC000138541B7EFF08FF00345D100EFF00FF539
:100DD000138581B5EFF0CFF2130510008320C10118
:100DE0000324810113010102678000001385C1B74C
:100DF000EFF00FF1138581B9EFF04FED0345D1000E
:100E0000EFF0CFF1138581B5EFF08FEF138581BA45
:100E1000EFF0CFEB0345E100EFF04FF0138581B524
:100E2000EFF00FEE138541BBEFF04FEA0345F10001
:100E3000EFF0CFEE138581B5EFF08FEC13050000D6
:100E40006FF0DFF91306000093050004130510048A
:100E50006FF0DFE8130101FF232481001384C18BAD
:100E600023229100232611009304E4030346140077
:100E7000834504001305200713042400EFF04FD42A
:100E8000E31694FE8320C1000324810083244100E3
:100E90001301010167800000130101FF23261100E7
:100EA000EFF09FEA63060500EFF0DFF9EFF09FFA3D
:100EB0008320C100130510001301010167800000A9
:100EC000130101FF93050000232481002326110054
:100ED00013040500EF00C02A03A501BC8327C50346
:100EE00063840700E780070013050400EF00404B10
:100EF000130101FF23248100232021019307000017
:100F0000130900003309F940232611002322910020
:100F100013592940630009021304000093040000E0
:100F2000832704009384140013044400E78007001F
:100F3000E31899FE93070000130900003309F940F4
:100F400013592940630009021304000093040000B0
:100F5000832704009384140013044400E7800700EF
:100F6000E31899FE8320C1000324810083244100FB
:100F7000032901001301010167800000B347B50098
:100F800093F73700B308C500639607069307300050
:100F900063F2C7069377350013070500639A070CC1
:100FA00013F6C8FFB306E64093070002930200025F
:100FB00063C2D70693860500930707006378C702CC
:100FC00003A80600938747009386460023AE07FFD9
:100FD000E3E8C7FE9307F6FFB387E74093F7C7FF41
:100FE000938747003307F700B385F500636817015F
:100FF0006780000013070500E37C15FF83C7050029
:101000001307170093851500A30FF7FEE36817FF7A
:101010006780000083A6450083A7C50183AF050054
:1010200003AF850083AEC50003AE050103A34501F0
:1010300003A885012322D70083A605022320F701F8
:101040002324E7012326D7012328C701232A670089
:10105000232C0701232EF70013074702B307E640AE
:10106000232ED7FE93854502E3C6F2FA6FF09FF474
:1010700083C605001307170093773700A30FD7FE29
:1010800093851500E38E07F083C60500130717004C
:1010900093773700A30FD7FE93851500E39A07FCDB
:1010A0006FF01FF01303F00013070500637EC30207
:1010B0009377F7006390070A63920508937606FF1B
:1010C0001376F600B386E6002320B7002322B7008C
:1010D0002324B7002326B70013070701E366D7FED2
:1010E0006314060067800000B306C3409396260091
:1010F00097020000B38656006780C6002307B7003A
:10110000A306B7002306B700A305B7002305B70061
:10111000A304B7002304B700A303B7002303B70059
:10112000A302B7002302B700A301B7002301B70051
:10113000A300B7002300B7006780000093F5F50F08
:1011400093968500B3E5D50093960501B3E5D500E8
:101150006FF0DFF69396270097020000B3865600E3
:1011600093820000E78006FA93800200938707FFCE
:101170003307F7403306F600E378C3F66FF0DFF38A
:10118000130101FD232C410103AA01BC23202103EB
:101190002326110203298A14232481022322910287
:1011A000232E3101232A51012328610123267101B5
:1011B0002324810163000904130B0500938B0500B0
:1011C000930A10009309F0FF832449001384F4FF6D
:1011D0006342040293942400B304990063840B04D3
:1011E00083A74410638077051304F4FF9384C4FF3E
:1011F000E31634FF8320C1020324810283244102C9
:10120000032901028329C101032A8101832A4101A3
:10121000032B0101832BC100032C81001301010367
:10122000678000008327490083A644009387F7FF67
:10123000638E870423A20400E38806FA83278918B3
:1012400033978A00032C4900B377F70063920702B3
:10125000E78006000327490083278A146314870167
:10126000E38427F9E38807F8138907006FF0DFF5B7
:101270008327C91883A544083377F700631C070048
:1012800013050B00E78006006FF0DFFC23228900C6
:101290006FF09FFA13850500E78006006FF09FFB53
:1012A000130101FF232481009307000013040000B1
:1012B0003304F44023229100232611009354244048
:1012C000638004021304C4FF3304F4008327040082
:1012D0009384F4FF1304C4FFE7800700E39804FE3F
:1012E0008320C100032481008324410013010101F4
:1012F00067800000930505009306000013060000B8
:10130000130500006F00400003A701BC832787146A
:10131000638C070403A747001308F001634EE80637
:101320001318270063060502338307012324C3082B
:1013300083A88718130610003316E600B3E8C80028
:1013400023A417192324D310930620006304D50285
:101350001307170023A2E700B387070123A4B700F0
:1013600013050000678000009307C7142324F714B7
:101370006FF05FFA83A6C7181307170023A2E700D0
:10138000B3E6C60023A6D718B387070123A4B70086
:1013900013050000678000001305F0FF6780000060
:1013A0009308D00573000000634405006F0000003F
:1013B000130101FF232481001304050023261100DB
:1013C00033048040EF00C000232085006F00000040
:1013D00003A541FF67800000130101FE1385C18F43
:1013E000232E1100232C8100232A91002328210180
:1013F00023263101EFF0CF9013850191EFF04F904C
:10140000EFF08FFD13858192EFF08F8F130420038F
:10141000B7040050130910009309D01213050400FB
:10142000930660091306800C93052003EFF04F84A8
:101430001304140023A824FFE31234FF1304200331
:101440006FF0DFFD93070000638807003715001079
:0C1450001305052A6FF01FEA67800000FA
:10145C000009121B242D363F48415A536C657E7788
:10146C0019100B023D342F265158434A757C676E78
:10147C00323B2029161F040D7A7368615E574C4568
:10148C002B2239300F061D14636A7178474E555C58
:10149C00646D767F4049525B2C253E3708011A1348
:1014AC007D746F6659504B42353C272E1118030A38
:1014BC00565F444D727B60691E170C053A33282128
:1014CC004F465D546B627970070E151C232A313818
:1014DC004148535A656C777E09001B122D243F3608
:1014EC0058514A437C756E671019020B343D262FF8
:1014FC00737A6168575E454C3B3229201F160D04E8
:10150C006A6378714E475C55222B3039060F141DD7
:10151C00252C373E0108131A6D647F7649405B52C7
:10152C003C352E2718110A03747D666F5059424BB7
:10153C00171E050C333A21285F564D447B726960A7
:10154C000E071C152A233831464F545D626B707997
:10155C009803010002180300147015201630184669
:10156C004080411049A85510560896F67307761F0F
:10157C00980399029AE09C309D61A2A4A3A4A504AF
:10158C00AB40AF16BA60D1FFDE10E460FA7D00000C
:10159C00496E697469616C697A6520566964656F16
:1015AC002E2E2E00496E697469616C697A65205320
:1015BC004420636172642E2E2E000000526561641B
:1015CC00790000000D0A00003031323334353637E3
:1015DC003839616263646566000000005344207210
:1015EC006573706F6E73652074696D656F757400CB
:1015FC00534420696E76616C6964207472616E73F9
:10160C006D6974746572206269740000434D4430D6
:10161C003A204E6F20726573706F6E736520667220
:10162C006F6D2053442063617264000073645F63C8
:10163C006D6430204F4B0000434D44383A204E6FC0
:10164C0020726573706F6E73652066726F6D2053B8
:10165C004420636172640000434D44383A20496E63
:10166C0076616C696420636F6D6D616E640000005F
:10167C00434D44383A20496E76616C696420766F2C
:10168C006C7461676520696400000000434D443848
:10169C003A20496E76616C696420746573742070AD
:1016AC0061747465726E0000434D44383A20496E83
:1016BC0076616C696420636865636B73756D00009B
:1016CC00434D44383A20496E76616C696420656EEE
:1016DC00642062697473000073645F636D64382006
:1016EC004F4B0000434D4435353A204E6F20726508
:1016FC0073706F6E73652066726F6D205344206338
:10170C0061726400434D4435353A20496E76616C04
:10171C00696420636F6D6D616E640000434D4435E8
:10172C00353A20496E76616C696420636865636B39
:10173C0073756D00434D4435353A20496E76616CB6
:10174C00696420656E6420626974730073645F63FE
:10175C006D643535204F4B0041434D4434313A20B4
:10176C004E6F20726573706F6E73652066726F6D4D
:10177C0020534420636172640000000073645F6155
:10178C00636D643431204F4B00000000434D4432F4
:10179C003A204E6F20726573706F6E73652066729F
:1017AC006F6D2053442063617264000073645F6347
:1017BC006D6432204F4B0000434D44333A204E6F42
:1017CC0020726573706F6E73652066726F6D205337
:1017DC00442063617264000073645F636D64332042
:1017EC004F4B00005344204349443A200000000072
:1017FC0052434120000000004964656E74696669BB
:10180C006564204144560000207265763A20000041
:10181C00556E6B6E6F776E2048444D4920656E6334
:10182C006F64657220636869702E0000436869708C
:10183C00207265766973696F6E3A2000436869702F
:10184C0020494420303A20004368697020494420E4
:04185C00313A2000FD
:0418600068180010F4
:1018680000000000541B0010BC1B0010241C0010BA
:101878000000000000000000000000000000000060
:101888000000000000000000000000000000000050
:101898000000000000000000000000000000000040
:1018A8000000000000000000000000000000000030
:1018B8000000000000000000000000000000000020
:1018C8000000000000000000000000000000000010
:1018D8000000000000000000000000000000000000
:1018E80000000000000000000000000000000000F0
:1018F80000000000000000000000000000000000E0
:1019080000000000000000000100000000000000CE
:101918000E33CDAB34126DE6ECDE05000B00000093
:1019280000000000000000000000000000000000AF
:10193800000000000000000000000000000000009F
:10194800000000000000000000000000000000008F
:10195800000000000000000000000000000000007F
:101C880000000000000000000000000068180010BC
:081C9800000000000000000044
:041CA0000000000040
:041CA4004C000010E0
:041CA8008C0000109C
:041CAC0044140010CC
:0400000510000000E7
:00000001FF
