:10000000130101FE232C8100232A910023282101C2
:10001000232631012324410123225101232E1100E3
:1000200013040000EF008012B75A0100376A010084
:10003000B75901009304A0001309400633759402D8
:10004000EF00401C13850A57EF000013335594024C
:100050001375F50FEF00001B13054AD1EF00401593
:10006000930504001385890F13041400EF109034D6
:10007000E31624FD375501001305C50FEF004013AB
:100080006F000000930700006388070037550000E9
:10009000130545466FF0C036678000009771010078
:1000A0009381C1881385C11C138681443306A64001
:1000B00093050000EF10501E17F50000130585345E
:1000C00063080500175500001305053AEFF04033AB
:1000D000EF10D00003250100930541001306000036
:1000E000EFF01FF26F10807C130101FF23248100C9
:1000F00083C7C11D232611006392070293070000E6
:10010000638A070037650100130545119700000059
:10011000E700000093071000238EF11C8320C1002C
:100120000324810013010101678000009307000090
:10013000638C0700376501009385011E1305451187
:10014000170300006700000067800000130101FF33
:10015000232611002324810013040101EF0000294C
:1001600093070000138507008320C100032481004A
:100170001301010167800000130101FF23248100A6
:10018000232611001304050003450500630A05003A
:1001900013041400EF00C00B03450400E31A05FE2E
:1001A0008320C10003248100130101016780000046
:1001B000130101FF232481002326110013040500ED
:1001C00003450500630A050013041400EF0040080E
:1001D00003450400E31A05FE3754010013044410DC
:1001E0001305D00013041400EF008006034504003B
:1001F000E31A05FE8320C1000324810013010101DD
:1002000067800000130101FF23248100375401009F
:100210001304841093574500B307F4002322910080
:100220009304050003C5070093F4F400232611008E
:1002300033049400EF00C00103450400032481004F
:100240008320C10083244100130101016F0040009D
:10025000B707005023A8A70067800000B707005029
:1002600003A507011375F50F678000009387C11B75
:1002700003A707003305A70023A0A7001305070065
:1002800067800000130101FF1305C5F92326110043
:10029000EF00C01C8320C100130500001301010101
:1002A00067800000130101FF232481002326110031
:1002B000930740061384050063C4A7028320C1008E
:1002C00003248100B72700002390050023A2F50036
:1002D000239705001305000013010101678000004A
:1002E0001305C5F9EF0000182328A40093050500A5
:1002F000375501001305C511EF10D00B8320C10045
:100300000324810013050000130101016780000030
:1003100013255506678000009307300663C6A700C3
:1003200013050000678000006F0040146F0000009C
:10033000678000001305F0FF67800000130101FFD4
:100340002320210123261100232481002322910050
:1003500013090600635EC00013840500B384C50062
:100360000345040013041400EFF09FEEE31A94FE1B
:100370008320C10003248100832441001305090068
:100380000329010013010101678000009307300673
:1003900063CAA704130101FF2324810023229100D3
:1003A00023202101232611001384050013090600D0
:1003B000B384C500635AC000EFF05FEA1304140071
:1003C000A30FA4FEE39A84FE8320C10003248100CE
:1003D00083244100130509000329010013010101D1
:1003E000678000001305C5F96F00401067800000AA
:1003F0001305000067800000130101FF13050600CC
:100400001306002023261100EF00403F9307002031
:100410006300F5023755010013058515EF10902094
:100420008320C10013051000130101016780000043
:10043000375501001305C513EF10D01E8320C100EE
:10044000130500001301010167800000130530004F
:100450006780000013050000678000001385811F7E
:100460006F10401603A5412067800000130101FFB3
:1004700023261100232481006304060413071000BF
:10048000938705006304E60413072000631CE60459
:100490001387811F8325C7001385811FB385B7008C
:1004A000EF100017631005041384811F0325440116
:1004B0008320C10003248100130101016780000033
:1004C0001385811FEF10C0146FF0DFFD1387811FAC
:1004D000832547011385811FB385B700EF104013B3
:1004E0006FF05FFC1305F0FF6FF09FFC130101FE3E
:1004F0009306C1001385811F232E1100EF00504C7D
:10050000631A05000325C1008320C1011301010204
:10051000678000001305F0FF6FF01FFF9307A00036
:10052000130000009387F7FFE39C07FE678000003D
:10053000130101FDB7170000232481022322910239
:1005400023202103232E3101232C4101232A510191
:10055000370400502326110223286101232671014C
:100560002324810123229101938707802320F4040F
:10057000930700202320F404930A0500138A050042
:100580009304A0021304040493090010130910102B
:100590006F0080006388040C23203401EFF01FF803
:1005A00023202401EFF09FF7832704009384F4FFB6
:1005B00093F78700E39007FE930700102320F400D1
:1005C000EFF0DFF523202401EFF05FF5832704002F
:1005D00093F7870063980708635C4005B7040050F1
:1005E00013090000130420009309000093840404FD
:1005F000930C0010130C1010930B0008130B7000D9
:1006000023A09401EFF09FF123A08401EFF01FF1EC
:1006100083A7040033D78B4093F7870063840700D8
:10062000B3E9E900630C640713041400E34A49FDCD
:10063000B70400501304800093840404930900104D
:100640001309101023A03401EFF05FED1304F4FF41
:1006500023A02401EFF09FECE31604FE1305100025
:100660006F008000130500008320C1020324810273
:1006700083244102032901028329C101032A810144
:10068000832A4101032B0101832BC100032C81002C
:10069000832C41001301010367800000B3872A0106
:1006A0002380370113091900130400009309000087
:1006B000E34849F56FF0DFF7130101FC93070500EC
:1006C0001358850193560501135785002312010025
:1006D0009308100513065000930501001305000050
:1006E0002328210323206103232E7101232C810160
:1006F000232A91012302F100232E1102232C8102CF
:10070000232A910223263103232441032322510368
:1007100023001101A30001012301D100A301E10085
:10072000EF10C0159317150093E717003709005015
:10073000371B0000A302F100930720202320F904B7
:10074000930C0B80930B0100130C61001309090437
:10075000130B8B8083CA0B009304800013040008E2
:10076000130A0010930910106F0000022320690182
:10077000EFF0DFDA9384F4FF2320390113541400DF
:10078000EFF0DFD96386040223204901B3F78A0022
:10079000E39E07FC23209901EFF05FD89384F4FFD8
:1007A0002320390113541400EFF05FD7E39E04FCBB
:1007B000938B1B00E3908BFB130581009305600076
:1007C000EFF01FD78320C103032481038324410357
:1007D000032901038329C102032A8102832A4102DA
:1007E000032B0102832BC101032C8101832C4101C6
:1007F0003335A0001301010467800000130101FDDF
:10080000232E3101232C41012326110223248102AE
:100810002322910223202103232A5101232861014D
:10082000232671012324810123229101138A0500CB
:1008300093090600EFF05FE8630A0510B704005063
:10084000930700403729000023A0F4041309A932BC
:1008500093840404130B0010930A10106F0080009F
:100860006306090E23A06401EFF05FCB23A05401BF
:10087000EFF0DFCA03A404001309F9FF1354440086
:100880001374F400E31E04FC375B01006384090861
:100890003709005013090904930C0010130C0010C1
:1008A000930A1010930BF0006F00C00013041400A3
:1008B0006382890623208901EFF05FC62320590156
:1008C000EFF0DFC58324090023209901EFF01FC555
:1008D00023205901EFF09FC48327090093F5040FEB
:1008E00033078A0093D7470093F7F700B3E5F50085
:1008F0002300B70013050B17EF10C02B9377F400FC
:10090000E39677FB1305A00013041400EF10C02F2B
:10091000E39289FA138509008320C102032481022E
:1009200083244102032901028329C101032A810191
:10093000832A4101032B0101832BC100032C810079
:10094000832C4100130101036780000013050000A0
:100950006FF09FFC6306050683270500130101FE67
:10096000232C8100232E110013040500638C070043
:1009700003C70700630807008356450003D76700D5
:100980006380E60213059000930700008320C101F5
:100990000324810123A0F5001301010267800000F8
:1009A00003C517002326B100EFF09FA413751500AF
:1009B0008325C100E31805FC832704006FF01FFDA9
:1009C000930700001305900023A0F5006780000046
:1009D000130101FF23248100232291002320210100
:1009E000232611000326C502130405000345150044
:1009F000130904039306100093050900EFF01FA5E7
:100A000093041000631605020326C4028327040220
:100A100003278401A3010400B307F64093040500F3
:100A200063F8E70083462400930720006380F60202
:100A30008320C100032481000329010013850400E1
:100A40008324410013010101678000000345140065
:100A5000930610003306E60093050900EFF01F9F90
:100A60006FF01FFD130101FF2324810023261100D5
:100A70008347350013040500639A07020347040007
:100A800093073000630EF7020345140013060000BD
:100A900093050000EFF01F9C3335A0008320C100B8
:100AA000032481001301010167800000EFF05FF271
:100AB000E31605FE0347040093073000E316F7FC36
:100AC0000347440093071000E310F7FC9307040367
:100AD000130600209305000013850700EF00D07B6C
:100AE000832604010327C4000326C40193070500DD
:100AF00093005005034514001303200593051006C9
:100B0000130810049308200793D3860093D206019C
:100B100093DF860113061600135F8700935E0701BB
:100B2000135E8701230714229300A0FA2309B4025D
:100B3000A30BB420230CD420A3071422230864029F
:100B4000A3086402A3090403230A1421A30A14219D
:100B5000230B0421A30C7420230D5420A30DF42196
:100B6000230EE420A30EE421230FD421A30FC421DC
:100B70002326C4029306100093850700EFF01F8D13
:100B8000230204006FF05FF08327C5026382B70879
:100B9000130101FF23248100232291002326110049
:100BA0008347350013040500938405006390070410
:100BB00003451400930610001386040093050403F4
:100BC000EFF09F83631E0500232694028320C1005B
:100BD0000324810083244100130101016780000088
:100BE000130510009304F0FF6FF01FFEEFF05FDEBF
:100BF000E31E05FC03451400930610001386040051
:100C000093050403EFF04FFFE30005FC6FF05FFD79
:100C10001305000067800000130710006374B70617
:100C200003274501130101FE232C81002328210104
:100C3000232E1100232A910023263101138405005D
:100C4000130905009307100063FEE5000347050044
:100C5000930620006308D70C93063000630AD7067A
:100C60006308F7028320C101032481018324410129
:100C7000032901018329C100138507001301010223
:100C8000678000009307100013850700678000004D
:100C900093D4150083270502B384B40093D5940040
:100CA000B385F500EFF05FEE6308050A8320C1010C
:100CB000032481019307F0FF8324410103290101EB
:100CC0008329C1001385070013010102678000001A
:100CD0008327050293D57500B385F500EFF0DFEAB1
:100CE000E31605FC131424001374C41FB307890012
:100CF00083C6170303C6070303C7270383C7370346
:100D000093968600B3E6C600131707013367D70032
:100D100093978701B3E7E7009397470093D747007E
:100D20006FF05FF48327050293D58500B385F50046
:100D3000EFF09FE5E31C05F6131514001375E51F8E
:100D40003305A900834715030347050393978700DD
:100D5000B3E7E7006FF01FF18327090293891400BE
:100D600093D5990093F4F41FB3049900B385F5006B
:100D70001305090083C40403EFF01FE1E31805F233
:100D800093F9F91FB309390183C7090313741400D8
:100D900093978700B3E79700E31204F8939747010E
:100DA00093D747016FF01FEC130101FD232481024B
:100DB00023229102232E3101232611022320210315
:100DC000232C4101232A510123286101232671018B
:100DD000034A0500930720001304050093840500CF
:100DE000930906006304FA04930730006306FA10BF
:100DF0009307100013092000630EFA068320C10236
:100E000003248102832441028329C101032A810131
:100E1000832A4101032B0101832BC1001305090023
:100E200003290102130101036780000083270502E3
:100E300093D58500B385F500EFF01FD513090500A4
:100E4000E31E05FA93941400139709019307040312
:100E500093F4E41F13570701B387970013578700D4
:100E600023803701A380E70093071000A301F4005B
:100E70006FF0DFF88327050293DA1500B38ABA0012
:100E800093D59A00B385F500EFF01FD01309050044
:100E9000E31605F6938B1A00130B040393FAFA1F5B
:100EA00093F41400B30A5B0113D69B00638C040A0D
:100EB00083C70A00B716000013974900938606FF00
:100EC0003377D70093F7F700B3E7E7002380FA0002
:100ED000032704028327C402A3014401330AE60066
:100EE0006384470D13050400EFF09FAE6308050C03
:100EF000130905006FF09FF08327050293D5750055
:100F0000B385F500EFF05FC813090500E31805EE9F
:100F1000939424001307040393F4C41F330797002A
:100F200083473700B70600F09399490093978701EC
:100F3000B3F7D70093D94900B3E7370193D58700BA
:100F400013D6070193D687012300F700A300B7004B
:100F50002301C700A301D70093071000A301F400E9
:100F60006FF0DFE923803A01032704028327C402DC
:100F7000A3014401330AE600E316FAF693FBFB1FD4
:100F8000330B7B0183470B0093D9890093F9F90058
:100F900093F707FFB3E737012300FB009307100027
:100FA000A301F4006FF09FE593FBFB1F330B7B0164
:100FB00093D7490093F7F70F6FF01FFE0345140016
:100FC0009306100013060A0093050B00EFF0CFC242
:100FD000630A05009307F0FF2326F40213091000AB
:100FE0006FF0DFE193FBFB1F23264403330B7B01F0
:100FF000E38A04F86FF0DFFB130101FE23244101B3
:1010000023225101232E1100232C8100232A910039
:101010002328210123263101138A0500930A0500A4
:10102000639605108324C500639C040E930410008E
:1010300083A70A016380070C83A74A011384040075
:10104000130910009309F0FF6F004001630A251592
:10105000630C35156380840A83A74A0113041400C6
:1010600013850A006366F4006386240913042000D4
:1010700093050400EFF05FBAE31A05FC9307100034
:1010800063F0871283A74A01637CF4101306F0FF14
:101090009305040013850A00EFF01FD1631E050EAF
:1010A00063040A0293071000630CFA0E83A74A0137
:1010B0006378FA0E1306040093050A0013850A00EC
:1010C000EFF09FCE631A050C83A74A0103A70A011C
:1010D00023A68A009387E7FF63E6E7001307F7FF7D
:1010E00023A8EA0083C74A0093E717002382FA0087
:1010F0006F008000130400008320C1011305040069
:101100000324810183244101032901018329C100B2
:10111000032A8100832A4100130101026780000035
:1011200083274501E3E6F4F06FF05FF0EFF0DFAE08
:10113000930710001304050063F4A7069307F0FF5C
:101140006304F50683A74A01E368F5FA03A70A01D9
:10115000E30207FA13041A006364F4001304200086
:101160009305040013850A00EFF01FAB130710006E
:101170006308E5029307F0FF6308F502630A0502BE
:1011800083A4CA0083A74A0163749700E3E8F4EAE2
:1011900093040A006FF09FEA930710006306F500BE
:1011A000130410006FF05FF51304F0FF6FF0DFF42D
:1011B000E31A04EC83A74A0193040A006FF01FE8C6
:1011C000130101FA232C8104232A910423282105E9
:1011D00023263105232C8103232E110423244105CA
:1011E0002322510523206105232E7103232A910315
:1011F0002328A1032326B1039389050023A0060019
:101200009305C10113890600130405009304060029
:10121000EFF04FF4130C05006318050C034C140198
:1012200063140C0C8347040193F717006384071CB5
:1012300083274401832CC400B38CFC4063E29419DF
:1012400063840C0A930A0020130BF01F130A840214
:10125000930BF0FF93F5F71F639405100327C1016B
:1012600093D69700835DA700938DFDFFB3FDDD004E
:10127000638A0D1283278401832647019387E7FF42
:101280009386E6FF63FCD7048356A70003268702F4
:10129000B387D702B387C70063820704B384FD0016
:1012A00063749B0913DD9C00B387AD0163F4F60002
:1012B000338DB6410345170093060D0013860400D5
:1012C00093850900EFF04F93631005108307040125
:1012D00063CA0714131D9D006F00400A9307200086
:1012E000A308F400130C20008320C105032481050A
:1012F00083244105032901058329C104032A8104AC
:10130000832A4104032B0104832BC103832C410353
:10131000032D0103832DC10213050C00032C81034F
:1013200013010106678000000326C40163049602CE
:10133000830704012326E1000345170063C0070C5F
:10134000930610001386040093050A00EFF0CF8A7D
:10135000631C050683254401232E940093F5F51F95
:10136000338DBA4063F4AC01138D0C0013060D00ED
:10137000B305BA0013850900EF00805F0327090059
:1013800083274401B38CAC413307A7012320E90034
:10139000B307FD00232AF400B389A901E39C0CEAFA
:1013A0006FF09FF4639A070283278400930610006E
:1013B000E3F6F6F2638A7701232CF4006FF0DFEB9B
:1013C000938C04006FF0DFE793071000A308F4008C
:1013D000130C10006FF05FF18325840103250400D6
:1013E0002326E100EFF05F830327C1009307050088
:1013F0006FF0DFFB130C70006FF01FEF930610000F
:1014000093050A00EFF08F84E31005FC8347040185
:101410000327C10093F7F7072308F40003451700DB
:101420006FF01FF28327C401B3879740E3F4A7EB63
:10143000939797001306002093050A003385F9005F
:10144000EF000053131D9D006FF05FF36300051460
:1014500083270500130101FF2324810023261100A7
:101460002322910013040500638C070003C70700C3
:10147000630807008356450003D76700638EE600C4
:10148000130590008320C1000324810083244100C0
:10149000130101016780000003C51700EFE05FF54D
:1014A00013751500E31E05FC8347040113F70704B9
:1014B000E30A07FC9397870193D7874183240400AD
:1014C00063CA070C8325040213850400EFF0CFEBF9
:1014D000E31A05FA832744021306300003C7B70056
:1014E00013670702A385E700032784008325040010
:1014F0009316070193D6060193D68600238DE70045
:10150000A38DD70083C60500639AC6001357070151
:1015100093568700238AE700A38AD7000327C400D5
:10152000238B0700A38B0700238EE70093558700CA
:10153000135607019356870113071002238CE70007
:1015400013070005A38EB700238FC700A38FD70012
:10155000A38CE70023890700A389070093071000E5
:10156000A381F40013850400EFF0CFCF834704017B
:1015700093F7F7FB2308F4008320C10003248100C4
:1015800083244100130101016780000013059000CE
:10159000678000000326C40103C5140093061000F1
:1015A00093058402EFE09FEA9307050013051000FE
:1015B000E39A07EC8347040193F7F7072308F40045
:1015C0006FF05FF0130101FE232C8100232E110028
:1015D00013040500EFF09FE7630A05008320C101B3
:1015E0000324810113010102678000009305C100FB
:1015F00013050400EFF00FB6E31205FE8320C101CE
:1016000023200400032481011301010267800000EC
:10161000130101FB232A5103938A05009305C1019D
:101620002324810423286103232611042322910407
:1016300023202105232E3103232C4103232671036C
:1016400013040500EFF00FB1130B0500631605142A
:10165000034B140163120B148327C40063FA570170
:10166000034704011377270063140700938A0700D8
:1016700003274401232A040063880A14832BC10131
:1016800003D9AB0013199900630407141307F7FF7C
:101690009387FAFFB3D72703B356270363EAD7121A
:1016A000B307204183248401B3F7E700232AF40021
:1016B000B38AFA40638A0408637A59059309F0FFF4
:1016C000130A100003470401B307F900232AF400AA
:1016D000937727000325040093850400B38A2A41E9
:1016E000638C0712EFF05F91930405006300051807
:1016F0006382341563789A1483A74B0163F4F4145E
:10170000232C940083274401E36E59FBB3875701D0
:10171000232AF40013F7FA1F630E071403A74B01E3
:101720009384E4FF1307E7FF63FEE41003D7AB00E5
:1017300083A68B02330797023307D7006304071091
:1017400093D59A00B384E5000327C40093F6F71FEE
:10175000637AF700034704012326F4009367070424
:101760002308F400638206060326C401630696027A
:101770008307040103C51B009305840263C4070AA1
:101780009306100013860400EFE01FC7130B05003B
:101790006312050A232E94008320C10403248104CC
:1017A00083244104032901048329C103032A8103FB
:1017B000832A4103832BC10213050B00032B010372
:1017C0001301010567800000130B00006FF0DFFCC0
:1017D000832484009307000063880400232C940072
:1017E000E38404F66FF05FED032504009305000029
:1017F000EFF09F8093071000930405006304F50445
:101800009307F0FF6308F502832744012324A40013
:10181000232C94006FF0DFFCEFF00FC09304050061
:101820006FF01FED930610002326B100EFE01FC2FA
:101830006302050293071000A308F400130B1000C5
:101840006FF09FF593072000A308F400130B20000E
:101850006FF09FF4834704018325C10093F7F707D6
:101860002308F40003C51B006FF09FF18327440198
:101870006FF09FED930400006FF01FED630606020A
:10188000375701003386C5001307871783C7050044
:1018900013151500938515003345F5003305A70092
:1018A00003450500E394C5FE67800000130101FFB6
:1018B0009305000023248100232611001304050052
:1018C000EF30403B03A5811B8327C50363840700DA
:1018D000E780070013050400EFE05FA5130101FF97
:1018E00023248100232021019387C17E1389C17E97
:1018F0003309F9402326110023229100135929406E
:10190000630009021384C17E93040000832704004E
:101910009384140013044400E7800700E31899FE41
:101920003764010037690100930784111309091214
:101930003309F94013592940630009021304841143
:1019400093040000832704009384140013044400CC
:10195000E7800700E31899FE8320C100032481007B
:101960008324410003290100130101016780000065
:10197000B347B50093F73700B308C5006396070671
:101980009307300063F2C70693773500130705000D
:10199000639A070C13F6C8FFB306E64093070002EC
:1019A0009302000263C2D7069386050093070700DF
:1019B0006378C70203A80600938747009386460012
:1019C00023AE07FFE3E8C7FE9307F6FFB387E740C0
:1019D00093F7C7FF938747003307F700B385F500F8
:1019E000636817016780000013070500E37C15FF9B
:1019F00083C705001307170093851500A30FF7FE93
:101A0000E36817FF6780000083A6450083A7C50130
:101A100083AF050003AF850083AEC50003AE0501AB
:101A200003A3450103A885012322D70083A605024D
:101A30002320F7012324E7012326D7012328C70108
:101A4000232A6700232C0701232EF70013074702E0
:101A5000B307E640232ED7FE93854502E3C6F2FA8C
:101A60006FF09FF483C605001307170093773700C4
:101A7000A30FD7FE93851500E38E07F083C60500FC
:101A80001307170093773700A30FD7FE9385150030
:101A9000E39A07FC6FF01FF01303F0001307050033
:101AA000637EC3029377F7006390070A6392050889
:101AB000937606FF1376F600B386E6002320B70080
:101AC0002322B7002324B7002326B70013070701FA
:101AD000E366D7FE6314060067800000B306C340C8
:101AE0009396260097020000B38656006780C600D2
:101AF0002307B700A306B7002306B700A305B70066
:101B00002305B700A304B7002304B700A303B7005D
:101B10002303B700A302B7002302B700A301B70055
:101B20002301B700A300B7002300B70067800000BF
:101B300093F5F50F93968500B3E5D50093960501CF
:101B4000B3E5D5006FF0DFF693962700970200000B
:101B5000B386560093820000E78006FA9380020065
:101B6000938707FF3307F7403306F600E378C3F6A1
:101B70006FF0DFF3130101FC2324C1022326D102FD
:101B80002328E102232AF102232C0103232E11032F
:101B9000138605008325850093068102232E1100FC
:101BA0002326D100EF0080318320C10113010104FD
:101BB0006780000003A3011C130101FC2324C10260
:101BC0002326D1022322B1022328E102232AF10293
:101BD000232C0103232E1103832583009306410246
:101BE0001306050013050300232E11002326D10040
:101BF000EF00C02C8320C1011301010467800000A5
:101C0000032685006F00800183A7011C9305050052
:101C100003A68700138507006F004000130101FE33
:101C2000232C2101232E1100130905006306050052
:101C30008327850363860704832786009387F7FF3E
:101C40002324F60063DC07000327860163C6E7044C
:101C500093F7F50F1307A0006380E70483270600BE
:101C600013F5F50F138717002320E6002380B70034
:101C70008320C10103298101130101026780000053
:101C80002326C1002324B100EF30C0790326C10010
:101C9000832581006FF05FFA8320C10113050900DD
:101CA00003298101130101026F20904C130101FFF0
:101CB0002320210103A9011C232481002322910058
:101CC0002326110093040500138405006306090010
:101CD00083278903638A0704832784009387F7FF98
:101CE0002324F40063DC07000327840163C4E704B2
:101CF00093F7F40F1307A000638EE7028327040015
:101D000013F5F40F138717002320E40023809700B6
:101D10008320C100032481008324410003290100A2
:101D2000130101016780000013050900EF30806F87
:101D30006FF09FFA13060400032481008320C10082
:101D40009385040013050900832441000329010041
:101D5000130101016F20D041130101FC232C8102EA
:101D60001304050013850500232A9102232E110276
:101D700093840500EF00C00BB757010093878713CA
:101D80002324F102930710002326F1020327840382
:101D90009307010293061500232AF1009307200000
:101DA000232091022322A102232ED100232CF10013
:101DB00083258400630E07048397C50013972701CA
:101DC0006342070203A74506B7260000B3E7D70022
:101DD000B7E6FFFF9386F6FF3377D7002396F5002B
:101DE00023A2E5061306410113050400EF3050302D
:101DF0008320C103032481033335A0003305A040B1
:101E0000832441031365A5001301010467800000CA
:101E1000130504002326B100EF30C0608325C10004
:101E20006FF09FF99305050003A5011C6FF0DFF229
:101E30009377350013070500639C0704B7867F7FFF
:101E40009386F6F79305F0FF032607001307470074
:101E5000B377D600B387D700B3E7C700B3E7D7009F
:101E6000E384B7FE8346C7FFB307A7406384060435
:101E70008346D7FF638C06020345E7FF3335A00096
:101E80003305F5001305E5FF67800000E38806FAD7
:101E9000834707001307170093763700E39807FE80
:101EA0003307A7401305F7FF678000001385D7FFAE
:101EB000678000001385C7FF67800000130101E100
:101EC0002326111E232A511D2328611D2326711D3F
:101ED000930A0600938B0500232AD1002324811E38
:101EE0002322911E2320211F232E311D232C411D2F
:101EF0002324811D2322911D2320A11D232EB11BEC
:101F0000130B0500EF60903383270500138507004E
:101F10002328F102EFF0DFF12326A1022328010E8E
:101F2000232A010E232C010E232E010E63060B0023
:101F300083278B03638207700397CB00B7260000CB
:101F40009317070193D7070133F6D70063180602EA
:101F500003A64B06B367D7009397070137E7FFFF48
:101F600093D707411307F7FF3377E6002396FB006B
:101F70009397070123A2EB0693D7070113F7870076
:101F8000630A072E03A70B016306072E93F7A70129
:101F90001307A0006382E7309307C1102322F10EDC
:101FA00093880700B75701009387C72B138D0A004A
:101FB000232CF10003470D00B75701009387074D0D
:101FC0002326010E2324010E23200102232A0102CD
:101FD000232C0102232E01022324010423260104C1
:101FE000232601002324F1006308072213040D00B7
:101FF00093065002630AD7300347140013041400F9
:10200000E31A07FEB304A4416308A4218326C10E8A
:102010000327810E23A0A801B3869600130717009B
:1020200023A298002326D10E2324E10E93067000EC
:102030009388880063C2E62E8327C100034704000B
:10204000B38797002326F1006308071C1303F0FFF2
:10205000034E1400A303010C1304140093040000A6
:10206000130900009309A005930A9000130CA00225
:10207000130A0300938D080013041400930C0E0040
:1020800093870CFE63E4F9040327810193972700EB
:10209000B387E70083A70700678007009304000069
:1020A00093860CFD834C040093972400B38797001C
:1020B00093971700B384F60093860CFD1304140065
:1020C000E3F2DAFE93870CFEE3F0F9FC93880D004F
:1020D00063840C1423069115A303010C93091000CB
:1020E000130C1000130DC11423280100130300006A
:1020F0002324010223220102232E0100937A2900C6
:1021000063840A0093892900137A49080327C10EC2
:1021100063160A0033883441E34400498346710C56
:10212000638A06028326810E1306710C23A0C80061
:1021300013071700130610009386160023A2C80089
:102140002326E10E2324D10E130670009388880005
:102150006344D62E638A0A028326810E1306810CFD
:1021600023A0C8001307270013062000938616003B
:1021700023A2C8002326E10E2324D10E13067000EB
:1021800093888800E344D65293060008E302DA24D9
:10219000B30D8341E348B03393760910E39C060EF8
:1021A0008327810E3307870123A0A8019387170097
:1021B00023A288012326E10E2324F10E930670004A
:1021C00063C4F63A938888001379490063060900CE
:1021D00033893441634A203B63D43401938409003A
:1021E0008327C100B38797002326F100E316073841
:1021F000832701012324010E638807008325010141
:1022000013050B00EF30C03E9308C110130D0400FE
:1022100003470D00E31C07DC8327C10E638407001E
:102220006F10D04483D7CB0093F707046384070073
:102230006F2040298320C11E0324811E0325C10075
:102240008324411E0329011E8329C11D032A811DE8
:10225000832A411D032B011D832BC11C032C811CD0
:10226000832C411C032D011C832DC11B1301011F55
:102270006780000093850B0013050B00EF20100909
:10228000630405006F20002483D7CB001307A00050
:1022900093F7A701E392E7D08397EB00E3CE07CE55
:1022A0008326410113860A0093850B0013050B005A
:1022B000EF2000602326A1006FF0DFF713050B006D
:1022C000EF60C07783274500138507002326F104BC
:1022D000EFF01FB69307050013050B00938C070062
:1022E0002324F104EF60807583278500232EF102FB
:1022F000E3980C74034E04006FF01FD8034E0400E3
:10230000136909026FF05FD7B304A441E310A4D1AD
:10231000034704006FF05FD31306410E93850B0053
:1023200013050B00EFB01043E31E05EE9308C11038
:102330006FF09FD01377890013030A0093880D0074
:10234000E312077283274101232841011305010B82
:10235000138A7700137A8AFF83250A0003264A002E
:1023600093078A00232EB101232AF100EF20417F39
:102370008325010B0326410B8326810B0327C10B09
:102380008328C101032301011305010F232E11012D
:1023900023286100232EE10E2328B10E232AC10E2B
:1023A000232CD10EEF6080612326A10C130720009F
:1023B000032301018328C1016314E5006F10405A13
:1023C000130710006314E5006F10406F1307100629
:1023D0006394EC006F10000213071004930780054C
:1023E0006394EC006F10400193F7FCFD1307F0FFBE
:1023F0002324F1026314E3006F20801D130770048F
:102400006394E7006F20C01B832AC10F232021059E
:10241000032A010F832E410F032F810F1367091029
:1024200063D40A006F10D025232C01041309070080
:10243000232801006F1080011306410E93850B00C5
:1024400013050B0023206104EFB0D030E310051416
:102450000327C10E032301049308C1106FF09FCF1F
:10246000832A810E832701029306100023A0A8016E
:10247000930D1700938A1A00938C8800E3D8F63CDA
:102480009306100023A2D8002326B10F2324510F56
:102490009306700063D456016F1000268327C10293
:1024A00003270103938A1A00B38DFD0023A0EC00DB
:1024B00023A2FC002326B10F2324510F93067000A2
:1024C000938C8C0063D456016F1040258326010F36
:1024D0009305010A1305010B2328D10A8326410F16
:1024E0002320010A2322010A232AD10A8326810FED
:1024F0002324010A2326010A232CD10A8326C10F93
:10250000232ED10AEFF0103C83270102138CF7FF32
:10251000E30E0536938A1A0093071D00B38D8D01D3
:1025200023A0FC0023A28C012326B10F2324510FEA
:1025300093077000938C8C00E3C857338326810384
:102540009307410D938A1A003387B60123A0FC003C
:1025500023A2DC002326E10E2324510F93077000F1
:1025600093888C00E3D257C71306410E93850B0066
:1025700013050B00EFB0101EE31A05000327C10E70
:102580009308C1106FF05FC4930600018327810E8A
:1025900063C426016F10D073B7560100938D064CAB
:1025A000930A0001130C70006F00C000130909FFAB
:1025B00063D62A05130707019387170023A0B801E4
:1025C00023A258012326E10E2324F10E93888800CC
:1025D000E35EFCFC1306410E93850B0013050B0014
:1025E000EFB050176314057A130909FF0327C10ED2
:1025F0008327810E9308C110E3CE2AFB33072701FE
:102600009387170023A0B80123A228012326E10EF7
:102610002324F10E93067000E3D0F6BC1306410E9E
:1026200093850B0013050B00EFB0D01263100576F5
:102630000327C10E6FF05FBA13050B00EF20905E09
:102640006FF09F8F0327410193880D00A303010CB6
:102650008327070013074700232AE1002306F1140C
:1026600093091000130C1000130DC1146FF0DFA7B5
:1026700083274101A303010C13030A0003AD0700E4
:1026800093880D00138A4700E3020D4E1307F0FFF5
:102690006314E3006F100037130603009305000076
:1026A00013050D00232A6100232EB101EF60507144
:1026B0002328A100032341018328C10163140500DD
:1026C0006F10904D832701010347710C232A4101AC
:1026D000338CA7419349FCFF93D9F941232801008A
:1026E0002324010223220102232E0100B3793C019D
:1026F00013030000E30407A0938919006FF01FA0E3
:102700008327410183A4070093874700E3DE042A5F
:10271000B3049040232AF100034E040013694900DA
:102720006FF09F95832641019377090293880D00EE
:1027300013874600E396072E937709016384070009
:102740006F10802A93770904638407006F10806CF0
:1027500013790920631409006F10002983274101B0
:10276000232AE1000327C10083A70700130D0400FB
:102770002380E7006FF0DFA9034E04009307C00633
:10278000E30AFE38136909016FF01F8F0327410127
:10279000B787FFFF93C707832314F10C9307470004
:1027A000232AF10083290700B75701009387872860
:1027B00093880D00232AF10213030A00930A0000F4
:1027C000936D290093072000930C800713070000E6
:1027D000A303E10C1307F0FF630AE31E33E759017B
:1027E00013F9FDF76312071E631803246394071A95
:1027F00013FC1D00130D011BE31E0C1C0347710C81
:1028000093090C0063546C00930903002328010012
:102810002324010223220102232E0100E31E07ECE0
:102820006FF0DF8D034E040093078006E30CFE2E4D
:10283000136909046FF05F849307B002034E04002C
:10284000A303F10C6FF05F83034E040013690908C2
:102850006FF09F82834C04001307140063948C0173
:102860006F10907F93860CFD13040700130A00007D
:10287000E3E8DA80834C040093172A00B38747010A
:1028800093971700338AD70093860CFD1304140026
:10289000E3F2DAFE6FF0CFFE034E04001369190075
:1028A0006FF08FFD8347710C034E0400639607FCA5
:1028B00093070002A303F10C6FF00FFC13030A004F
:1028C00093880D001369090193770902E38E0706C7
:1028D00083274101138A7700137A8AFF83290A002C
:1028E000832A4A0093078A00232AF100937DF9BFC7
:1028F000930700006FF09FED93880D0013030A000B
:10290000936D090193F70D02E388070683274101C0
:10291000138A7700137A8AFF93078A00232AF1002B
:1029200083290A00832A4A00930710006FF01FEAE8
:10293000034E0400136989006FF00FF413030A00BB
:1029400093880D0013690901937709026384077A5C
:1029500083274101138A7700137A8AFF83274A006D
:1029600083290A0013078A00232AE100938A0700BB
:1029700063CC077A9307F0FF930D09006304F30219
:10298000B3E75901937DF9F7639E070063120302D1
:1029900013890D0013030000130C0000130D011B1D
:1029A0006FF0DFE5E3960A5A93079000E3E2375BA6
:1029B00093890903A307311B13890D00130C100021
:1029C000130DF11A6FF09FE3930D09001307100028
:1029D000E38AE7FC13072000638CE706130D011B55
:1029E0009397DA0113F7790093D939001307070396
:1029F000B3E9370193DA3A00A30FEDFEB3E75901CB
:102A000013060D00130DFDFFE39C07FC93F61D005C
:102A1000638A0606930600036306D7061306E6FFDD
:102A20009307011BA30FDDFE338CC74013890D00F4
:102A3000130D06006FF09FDC130710006394E7008E
:102A40006F10D02C13072000930D0900E398E7F8CE
:102A500083264103130D011B93F7F900B387F6009A
:102A600003C7070093D949009397CA01B3E9370117
:102A700093DA4A00A30FEDFEB3E75901130DFDFFF2
:102A8000E39C07FC9307011B338CA74113890D00BE
:102A90006FF0DFD693065006E3D4969D8326010F90
:102AA0009305010A1305010B2328D10A8326410F40
:102AB000232211052320E104232AD10A8326810F32
:102AC0002320010A2322010A232CD10A8326C10FC5
:102AD0002324010A2326010A232ED10AEFF0805E67
:102AE00003270104832841046316053E8327810ED2
:102AF000B75601009386862B23A0D8001307170032
:102B0000930610009387170023A2D8002326E10E16
:102B10002324F10E9306700093888800E3C6F65EC6
:102B20008327C10C8326010263D2D7688327010360
:102B30008326C1029388880023ACF8FE8327810E88
:102B40003307D70023AED8FE938717002326E10E64
:102B50002324F10E9306700063CAF67E83270102D8
:102B6000938AF7FF635250E7930600018327810E93
:102B7000E3DC565B130C0001930C70006F00C00087
:102B8000938A0AFFE3525C5B8326810013070701E7
:102B90009387170023A0D80023A288012326E10EE3
:102BA0002324F10E93888800E3DCFCFC1306410E1D
:102BB00093850B0013050B00EFB0C0396318051C9B
:102BC0000327C10E8327810E9308C1106FF05FFBAE
:102BD000338A3441635E40DB130600018326810E95
:102BE000635A460923208104930D000113840B00CE
:102BF000930A7000930B0B00130B0A00138A090051
:102C0000930903006F00C000130B0BFF63D86D0521
:102C100083278100130707019386160023A0F8007D
:102C200023A2B8012326E10E2324D10E9388880025
:102C3000E3DCDAFC1306410E9305040013850B0058
:102C4000EFB04031E3180550130B0BFF0327C10E03
:102C50008326810E9308C110E3CC6DFB138309001A
:102C600093090A00130A0B00138B0B00930B04004B
:102C7000032401048327810033074701938616004C
:102C800023A0F80023A248012326E10E2324D10E1D
:102C90001306700093888800635CD6CE1306410E3D
:102CA00093850B0013050B0023206104EFB0802AED
:102CB000631E050C0327C10E032301049308C110F2
:102CC0006FF00FCD130600018326810E6352B60705
:102CD000130A0001930A70006F00C000938D0DFF6E
:102CE0006358BA05832781001307070193861600EE
:102CF00023A0F80023A248012326E10E2324D10EAD
:102D000093888800E3DCDAFC1306410E93850B0000
:102D100013050B00EFB00024631A0506938D0DFF19
:102D20000327C10E8326810E9308C110E34CBAFB22
:102D3000832781003307B7019386160023A0F8008C
:102D400023A2B8012326E10E2324D10E130670001E
:102D5000938888006352D6C41306410E93850B00F6
:102D600013050B00EFB0001F631205020327C10E0D
:102D70009308C1106FF04FC21306410E93850B00EC
:102D800013050B00EFB0001D630405C68325010188
:102D9000638A05C813050B00EF2090056FF08FC8FC
:102DA000B7570100130600018326810E938D074C4F
:102DB0006358060B232081042322910413040B0083
:102DC00093840B00130F0001938B0D00930370008D
:102DD000930D0D00130B0800138D090093090300D8
:102DE0006F00C000130B0BFF635A6F051307070139
:102DF0009386160023A0780123A2E8012326E10E82
:102E00002324D10E93888800E3DED3FC1306410E01
:102E10009385040013050400EFB0C013E310052EE2
:102E2000130F0001130B0BFF0327C10E8326810E26
:102E30009308C11093037000E34A6FFB13830900EA
:102E400013080B0093090D00130B0400138D0D00E4
:102E500003240104938D0B00938B0400832441040D
:102E6000330707019386160023A0B80123A20801A7
:102E70002326E10E2324D10E1306700093888800C8
:102E8000635ED6A81306410E93850B0013050B0055
:102E900023206104EFB0000CE31A05EE0327C10EF6
:102EA000032301049308C1106FF04FA71306410ECE
:102EB00093850B0013050B0023206104EFB08009FC
:102EC000E31605EC0327C10E032301049308C11088
:102ED0006FF08FAB8325C10CE352B01A8327C10179
:102EE00083260102138C070063C0F63A6356800301
:102EF0008326810E3307870123A0A801938616003D
:102F000023A288012326E10E2324D10E130670008C
:102F100093888800E34CD66A9346FCFF8327C1015F
:102F200093D6F641337CDC00338C87416340804785
:102F30008327C10193760940B30CFD00E394064A50
:102F40008326C10C8327010263C6F600137619009D
:102F5000E304066A032601038327C1029305700078
:102F600023A0C8000326810E3307F70023A2F80030
:102F7000130616002326E10E2324C10E9388880031
:102F800063D4C5006F10C03D03260102B307CD0016
:102F9000B306D640B38A974163D45601938A06009C
:102FA000635850038327810E3307570123A09801EC
:102FB0009387170023A258012326E10E2324F10E44
:102FC00013067000938888006354F6006F10404029
:102FD00093C7FAFF93D7F741B3FAFA00B38A564181
:102FE0006354509F930600018327810EE3DE56133E
:102FF000130C0001930C70006F00C000938A0AFF4D
:10300000E3545C138326810013070701938717009D
:1030100023A0D80023A288012326E10E2324F10E49
:1030200093888800E3DCFCFC1306410E93850B00BB
:1030300013050B00EFA01072E31A05D40327C10E8D
:103040008327810E9308C1106FF05FFB9375190001
:10305000639805C223A2D8002326B10F2324510F61
:103060009307700063DC57CD1306410E93850B0068
:1030700013050B00EFA0106EE31A05D0832DC10ECF
:10308000832A810E930CC1106FF04FCB635880CB15
:1030900093070001E3DC8721130D70006F00C0006F
:1030A000130C0CFFE3D4872103278100938D0D01BE
:1030B000938A1A0023A0EC0023A2FC002326B10F60
:1030C0002324510F938C8C00E35C5DFD1306410EAD
:1030D00093850B0013050B00EFA0D067E31805CA1A
:1030E000832DC10E832A810E930CC110930700011A
:1030F0006FF01FFB03274101937709018329070024
:1031000013074700232AE100639607109377090409
:10311000638E070E9399090193D9094193DAF94116
:1031200093870A00E3D80784B3373001B30A5041CC
:10313000B38AFA40B3093041930D09001307D00256
:10314000930710006FF0CFE803274101937709013F
:103150008329070013074700232AE1006394070A25
:1031600093770904638C07089399090193D909019E
:10317000930A00006FF08FF70327410193F70D01C9
:103180008329070013074700232AE10063920706FB
:1031900093F70D04638807049399090193D90901F2
:1031A000930A0000930710006FF04FE29377190025
:1031B000639407006FF04F816FF05F9713030A006D
:1031C00093880D006FF04FF8034E0400232AF1009E
:1031D0006FE09FEA93070003A307F11A130DF11A9A
:1031E0006FF0CFE193F70D206384070093F9F90F97
:1031F000930A0000930710006FF04FDD93770920CA
:10320000E39E0742930A00006FF04FEE9377092088
:10321000E39C074293DAF94193870A006FF04FF578
:103220000326C10083A70600232AE1009356F64136
:1032300023A0C70023A2D700130D04006FE05FFD99
:103240008327C103034E0400639407006FE0DFE2AD
:1032500083C70700639407006FE01FE2136909400A
:103260006FE09FE18327410103A707009387470091
:10327000232AF100832507000326470083268700C1
:103280000327C7006FF04F90138C0600E34280C7FE
:103290006FF09FC893880D0013030A00930D090077
:1032A0006FF04FE6B75701009387872813030A0092
:1032B00093880D00232AF102937709026386074061
:1032C00083274101138A7700137A8AFF83290A0032
:1032D000832A4A0093078A00232AF1009377190072
:1032E000638E0700B3E75901638A07009307000361
:1032F0002304F10CA304910D13692900937DF9BFF8
:10330000930720006FF08FCC13030A0093880D0001
:103310006FF08FDB034E14001369090213041400CD
:103320006FE09FD5034E14001369092013041400A5
:103330006FE09FD4B75701009387C72913030A0092
:1033400093880D00232AF1026FF01FF71306410E38
:1033500093850B0013050B00EFA0D03FE31805A2E7
:103360000327C10E9308C1106FF04FFF9307600051
:10337000130C0300E3EE6726B757010093090C0016
:10338000232A4101138D072B6FE01FD6130600017E
:103390008326810E63548675930D0001930C700093
:1033A0006F00C000130C0CFF63DA8D73832781005C
:1033B000130707019386160023A0F80023A2B80183
:1033C0002326E10E2324D10E93888800E3DCDCFC65
:1033D0001306410E93850B0013050B00EFA09037E9
:1033E000E316059A0327C10E8326810E9308C110A8
:1033F0006FF05FFB9307800713070003A304F10C32
:10340000936729002304E10C2320F10413073006FD
:1034100023280100130DC114E348672A832AC10F32
:1034200093F7FCFD2324F102232C0104032A010F4E
:10343000832E410F032F810F13692910E3C60A243D
:10344000130710066394EC006F1000221387FCFB37
:103450009306500263EEE600B756010013172700EB
:10346000938686423307D7000327070067000700CB
:1034700093060300130620009309010B9307010D27
:103480001307C10C1308C10D9385090013050B0028
:1034900023281105232261042322D102232AD10BE0
:1034A0002320D103232CE10B232EE1012328410B00
:1034B000232E510BEF40002783278102130770044E
:1034C000032FC101832E01028326410203234104FD
:1034D00083280105130D0500E382E76413076004E8
:1034E0003306D500E398E720834505001307000362
:1034F0006394E5006F100028130C010A0327C10C28
:103500003306E60093050C001385090023221103FE
:103510002320C102232E61002328410B232AD10B33
:10352000232CE10B232E510B2320010A2322010A15
:103530002324010A2326010AEFE0D03803260102E2
:103540000323C10183284102930706006302050299
:103550008327C10D63FEC70093060003138717007E
:10356000232EE10C2380D7008327C10DE3E8C7FE9B
:10357000B387A7412320F1028327C10C13077004EE
:10358000232EF10083278102E384E7508327810201
:1035900013076004E386E7708327C10193051004D5
:1035A00093F6FC0F1387F7FF832781022326E10C94
:1035B000130600006398B7009386F60093F6F60FA3
:1035C00013061000230AD10C9306B002635A0700B9
:1035D0008327C101130710009306D0023307F74079
:1035E000A30AD10C93069000E3DAE66E1303310EC2
:1035F000130503001306A000930E3006B367C7023D
:1036000093050500930607001305F5FF938707034D
:10361000A38FF5FE3347C702E3C2DEFE130707039D
:103620001376F70FA30FC5FE1387E5FF63646700EA
:103630006F10801E9306610D6F0080000346070027
:103640002380C6001307170093861600E31867FE51
:103650001307510E9307610D3307B7403387E70017
:103660009306410DB307D740232CF10283270102B3
:103670008326810313071000338CD700E35EF774B1
:103680008327C102330CFC00832701049349FCFF0C
:1036900093D9F94113F9F7BF13690910B3793C01C4
:1036A0002324010223220102232E01008327810506
:1036B000E38007401307D002A303E10C13030000CB
:1036C000938919006FE09FA30327410193770901B4
:1036D0008329070013074700232AE10063960706A2
:1036E00093770904638E07049399090193D909011B
:1036F000930A00006FF09FBE1306410E93850B00E6
:1037000013050B00EFA01005631205E8832DC10E11
:10371000832A810E930CC1106FE05FD81306410E0F
:1037200093850B0013050B00EFA0D002631005E694
:10373000832DC10E832A810E930CC1106FE01FD917
:10374000937709206396076E930A00006FF01FB904
:10375000B7DFCCCCB7060010138CDFCC0329C10334
:1037600093F20D40130700009305011B9386F6FFAB
:10377000130F5000938FCFCC130E9000130AF00F4D
:103780006F000006B3EE7E00B3F7D900B3FEDE0093
:10379000B387D701B3870701B3F7E703B387F940CE
:1037A00033B6F9003386CA403385F7033306860300
:1037B000B3B587033306A600B38787033306B60085
:1037C0009315F6011356160093D71700B3E7F500CB
:1037D00063800A5C93890700930A060093050D0035
:1037E000939E4A0093D3C90133E67E003376D60018
:1037F000B3F7D900B387C70013D88A01B38707018D
:10380000B3F7E703138DF5FF13071700B387F940EC
:1038100033B5F9003385AA4033B6870333058503F2
:10382000B38787033305C5001315F50113D61700B9
:103830003366C50093172600B387C7009397170018
:10384000B387F94093870703A38FF5FEE38C02F259
:1038500083470900E318F7F2E30647F363940A2C61
:1038600063623E2D9307011B232E21032320E102D7
:10387000338CA74113890D006FE05FF88326810E1A
:10388000375601001306862B23A0C8001307170024
:10389000130610009386160023A2C8002326E10E0B
:1038A0002324D10E13067000938888006346D64EF9
:1038B000639E05188327010293761900B3E6F6008C
:1038C000639406006FE05F90832601038327C102A3
:1038D0001306700023A0D8008326810E3387E700EB
:1038E00023A2F800938616002326E10E2324D10E8E
:1038F0006346D65A938888006F008018130B040023
:10390000938B04006FF08FC81306410E93850B0054
:1039100013050B00EFA00064631A05C60327C10E50
:103920009308C1106FF0CF9F8326810033075701A2
:1039300023A2580123A0D800938717002326E10E65
:103940002324F10E9306700063C4F6006FE09F8796
:103950006FE09FC1138B0B00930B04006FF00FC33C
:103960008327010F9305010A1305010B2328F10A90
:103970008327410F232811012320010A232AF10A5A
:103980008327810F2322010A2324010A232CF10A11
:103990008327C10F2326010A232EF10AEFE090139B
:1039A00083280101E342051E0347710C930770044D
:1039B00063D89741B7570100138DC727232801000B
:1039C0002324010223220102232E01001379F9F797
:1039D00093093000130C3000130300006304070048
:1039E0006FE09FD16FE08FF183274101130D040039
:1039F00083A70700232AE1000327C10023A0E700D3
:103A00006FE01F8113050D002320B105EFE04FC2C9
:103A10000347710C9349F5FF93D9F941232A4101DA
:103A2000232801002324010223220102232E010066
:103A300083280104130C0500B3793501130300003A
:103A4000630407006FE05FCB6FE04FEB8326010359
:103A50008327C1021306700023A0D8008326810E9D
:103A60003387E70023A2F800938616002326E10E91
:103A70002324D10E938888006342D642E3C20518FE
:103A8000832701029386160023A0A8013387E7004D
:103A900023A2F8002326E10E2324D10E9307700001
:103AA00063C4D7006FE00FF26FE01FAC8327810083
:103AB000B38D8D01938A1A006FE09FA68327C10FF3
:103AC00063CE07380347710C93077004E3DC970F4C
:103AD000B7570100138D47286FF05FEE83278100F1
:103AE000330787019386160023A0F80023A28801DC
:103AF0002326E10E2324D10E13067000938888003C
:103B00006358D6C21306410E93850B0013050B00B4
:103B1000EFA04044631C05A60327C10E9308C11003
:103B20006FF00FC1832781048325C104232E510226
:103B3000330DFD401386070013050D0023241103E8
:103B40002322610223207102232E01012328D101A7
:103B5000EF701012832E010183230102B7070010BA
:103B60009386F7FF0328C10133E77E003377D70040
:103B7000B3F7D900B387E700B3870701130F5000ED
:103B8000B3F7E70303461900B7D5CCCC938FC5CC68
:103B90003336C0003309C900032341028328810260
:103BA0008322C10313070000130E9000B387F9406E
:103BB00033B6F9003386CA40B385F703330686036C
:103BC00033B587033306B600B38587033306A600F3
:103BD0009317F6011356160093D51500B3E7B700F7
:103BE0006FF05FBF83270102832A4102232E8100E9
:103BF00023202105232291042322310383248102DF
:103C00002324A1030324C103032981048329C104BC
:103C1000130C7000330AFD00930D000163860A083F
:103C2000639604081304F4FF938AFAFF8327810E36
:103C30003307270123A038019387170023A2280107
:103C40002326E10E2324F10E93888800634CFC0E9A
:103C500083460400330D9A4163D4A601138D0600F8
:103C60006356A0038326810E3307A70123A0980182
:103C70009386160023A2A8012326E10E2324D10E49
:103C80006344DC0E83460400938888001346FDFFDE
:103C90001356F641B377CD00338DF640634CA00147
:103CA000B38CDC00E39E0AF6638C045A9384F4FF21
:103CB0006FF0DFF78326810E63C8AD016F008005CA
:103CC000130D0DFF63D8AD0583278100130707018E
:103CD0009386160023A0F80023A2B8012326E10E44
:103CE0002324D10E93888800E35CDCFC1306410E8C
:103CF00093850B0013050B00EFA0C0256318058802
:103D0000130D0DFF0327C10E8326810E9308C110EA
:103D1000E3CCADFB832781003307A7019386160010
:103D200023A0F80023A2A8012326E10E2324D10E0C
:103D30006342DC608346040093888800B38CDC0017
:103D40006FF05FF61306410E93850B0013050B0011
:103D5000EFA04020630405006FF04F830327C10EDE
:103D60009308C1106FF0DFEE1306410E93850B0030
:103D700013050B00EFA0001E630405006FF00F8118
:103D8000834604000327C10E9308C1106FF01FF093
:103D9000E3623EA56FF01FAD1306410E93850B0045
:103DA00013050B00EFA0001B630405006FE01FFE6E
:103DB0008325C10C0327C10E9308C1106FF05FAFBC
:103DC000B7570100138D87276FF05FBF1306410EB1
:103DD00093850B0013050B00EFA0C01763040500CB
:103DE0006FE0DFFA0327C10E9308C1106FF0CF9286
:103DF000130C60006FF04FD803260102B307CD000B
:103E0000B306D640B38A974163D4569D938A060081
:103E10006FF00F9C83274101232AE1000327C10093
:103E200083A70700130D04002390E7006FE04FBE47
:103E300093F9F90F930A00006FF04FCA93F9F90F45
:103E4000930A00006FE09FAA9399890193D9894151
:103E500093DAF94193870A006FE09FB19307D0028C
:103E6000A303F10C1307D0026FF01FC61306410E17
:103E700093850B0013050B00EFA0C00D6FE08FBA08
:103E80002328010013090700370700809307D00299
:103E9000B34A5701232CF1046FF08FDA1306410E59
:103EA00093850B0013050B00EFA0C00A6304050007
:103EB0006FE0DFED8325C10C0327C10E8326810E41
:103EC0009308C1106FF09FBB9305130013050B00FF
:103ED000232E110123286100EF40106E03230101FE
:103EE0008328C101130D0500E30A05182328A1004A
:103EF0006FF0CFD2130C010A6FF0CFE093061300DE
:103F0000130620006FF04FD793060300130630000E
:103F10006FF08FD69309010B13850900232E11052D
:103F2000232A6104232AD10B232CE10B232E510BCE
:103F30002328410BEF0091621306C10CEF700002C1
:103F4000138605009305050013850900EF00514114
:103F50000327010B130C010A930A01092328E10826
:103F60000327410B1306010893850A00232AE10861
:103F70000327810B13050C002322C104232CE10825
:103F80000327C10B2320010823220108232EE10867
:103F90003707FC3F2326E10823240108EFE0C04750
:103FA0008327010A0328410A832E810A032FC10AAD
:103FB00093050C00138509002328F10A2328F10436
:103FC000232A010B23220103232CD10B2320D1030D
:103FD000232EE10B232EE1012320010A2322010AD3
:103FE0002324010A2326010AEFE0C00D032FC1019B
:103FF000832E010203284102832701050323410583
:104000008328C10563160500130710002326E10C61
:10401000375701001307C7292322E102930DF3FF4D
:104020002322210723249106232A6107232C7107C9
:10403000138B0D00930B0D00232EA107232E81045B
:10404000232091072326610623281107138D0700DB
:10405000930D080093840E0013090F006F00800475
:1040600093050C00138509002320C102232EF101C2
:10407000232CF10B232EC10A2328410B232A910B59
:104080002320010A2322010A2324010A2326010AEC
:10409000EFE04003130BFBFF938F040013060900AE
:1040A0006302050EB707034013860A0093050C0050
:1040B00013850900232EF1082320A10B2322B10B25
:1040C0002324910A2326210B23280108232A0108EF
:1040D000232C0108EFE0403413850900EF00D101E3
:1040E000930505001304050013850900832C010BBB
:1040F0000329410B032A810B8324C10BEF0011110B
:104100008327010B0326410493850A002320F1082D
:104110008327410B13050C00232891092322F10862
:104120008327810B232A2109232C41092324F10809
:104130008327C10B232E91082326F108EFF0C0310D
:1041400083274102032A010A832C410AB38787008F
:1041500083C70700832F810A0326C10A232A71051A
:104160002380FB00232861059307F0FF938B1B003E
:10417000130D0A00938D0C0093840F0013090600A1
:10418000E310FBEE0323C1068328010793030A0013
:1041900093820C00B70AFE3F93050C0013850900BB
:1041A00023206102232E110103294106832C0106DD
:1041B000930D04002328710A0324C10523227106EC
:1041C000232A510A23205106232CF10B232EF1051B
:1041D000232EC10A2322C1042320010A2322010A1B
:1041E0002324010A2326510BEFD0907A138A0B0067
:1041F00083248106032B4107032DC107832B8107ED
:104200008328C101032301026346A03093050C00FB
:104210001385090023201103232E6100EFD0906A3B
:104220000323C101832801026316050093FA1D00D0
:1042300063920A2E83270105130600039386170055
:10424000B306DA0063C80700130A1A00A30FCAFEF8
:10425000E39C46FFB307AA412320F1026FF0CFB1E0
:10426000032D810283270102232E810203290104E9
:10427000B306FD000324C1018324410483294102C4
:1042800063E496016FE0DFCB938C06006FE05FCBB9
:104290008327C1011307D0FF63C4E7006354F3020F
:1042A000938CECFF93F7FCFD2324F1026FF0CFAE6B
:1042B0000347710C13030000630407006FE0CFC3D2
:1042C0006FD0DFE3832701020327C1016340F71AA0
:1042D0008327010413F717008327C101138C0700FC
:1042E000630607000327C102338CE700832701041C
:1042F00013F70740630607008327C1016346F02ECA
:104300009349FCFF93D9F941B3793C01930C7006B2
:1043100023240102232201026FF04FB983270104F5
:104320003306D50013F71700E31607BC8327C10D2A
:104330006FF00FA41306410E93850B0013050B00BD
:10434000EF905041630405006FE05FA483460400D2
:104350000327C10E9308C110B38CDC006FF09F944B
:104360001306410E93850B0013050B00EF90903E52
:10437000630405006FE09FA18326C10C0327C10ED3
:104380009308C1106FE05FC09307D002A303F10C44
:104390001307D0026FF08FE10347710C232A41010C
:1043A0002324010223220102232E0100930903008A
:1043B000130C030013030000630407006FE0CFB386
:1043C0006FD0DFD3B7570100138D07286FF00FDFD1
:1043D0001306410E93850B0013050B00EF909037E9
:1043E000630405006FE09F9A8326C10C83270102B6
:1043F0000327C10E9308C110B386D7406FE05FBD9D
:10440000130600FFB30AB04063D6C516130C0001B3
:10441000930C70006F00C000938A0AFF635C5C1508
:1044200083278100130707019386160023A0F80055
:1044300023A288012326E10E2324D10E938888002D
:10444000E3DCDCFC1306410E93850B0013050B0027
:10445000EF905030630405006FE05F930327C10EB7
:104460008326810E9308C1106FF01FFB8327010282
:104470000327C102930C7006338CE7008327C10128
:104480006356F0368327010413F7074063100716BD
:104490009349FCFF93D9F941B3793C016FF05FE791
:1044A0008327010413F717008327C10133676700CF
:1044B000635AF03663180734032CC101930C60066D
:1044C0006FF05FFC9307F0FF2326F1006FD09FD6BB
:1044D000B7560100938D064C6FE04F929306610D25
:1044E0006318060093060003230BD10C9306710D8D
:1044F0009307011B3386F640130707039307D60D76
:104500002380E600232CF1026FF04F96930D0900F3
:104510006FE00FCA8327410593060A00232EF10C92
:10452000832741020346FAFF83C5F7006390C50263
:1045300013050003A38FA6FE8326C10D9387F6FF04
:10454000232EF10C03C6F6FFE386C5FE9305160085
:104550001305900393F5F50F6306A600A38FB6FE2F
:104560006FF05FCF8327410283C5A700A38FB6FEFC
:104570006FF05FCE832781003307570193861600C3
:1045800023A0F80023A258012326E10E2324D10EF4
:10459000130670006350D6B61306410E93850B00C8
:1045A00013050B00EF90101B630405006FE00FFE76
:1045B0000327C10E8326810E9308C1106FF04FCCE4
:1045C000630403006FD05FE4130310006FD0DFE3D8
:1045D000130360006FD05FE38327010413F7170014
:1045E0006304078A6FF0CF89930C70060326C1031A
:1045F0009306F00F03470600630AD7288327C101FB
:104600001305000093050000635EF700B387E740E1
:10461000034716006304070493851500130616006C
:10462000E314D7FE232EC102232EF1002322B10270
:104630002324A10283278102032741023387E70055
:10464000832781043307F702330C87019349FCFF6A
:1046500093D9F941B3793C016FF04F8503470600C8
:10466000130515006FF0DFFB9309010B138509009B
:10467000232E1105232A6104232AD10B232CE10BBD
:10468000232E510B2328410BEF00416D1306C10C63
:10469000EF60D00C13860500930505001385090013
:1046A000EF00014C0327010B130C010A930A0109C7
:1046B0002328E1080327410B1306010893850A000C
:1046C000232AE1080327810B13050C002322C104D0
:1046D000232CE1080327C10B232001082322010812
:1046E000232EE1083707FC3F2326E1082324010895
:1046F000EFD090528327010A0328410A832E810AB2
:10470000032FC10A93050C00138509002328F10A21
:104710002328F104232A010B23220103232CD10B8C
:104720002320D103232EE10B232EE1012320010AB4
:104730002322010A2324010A2326010AEFD090181C
:10474000032FC101832E01020328410283270105A3
:10475000032341058328C1056316050013071000D4
:104760002326E10C37570100130787282322E10293
:104770006FF0DF8A130C010A93050C001385090002
:10478000232A11052328C10423226102232AD10BE5
:104790002320D103232CE10B232EE1012322D1047A
:1047A0002328410B232E510B2320010A2322010A27
:1047B0002324010A2326010AEFD0D010032FC101C0
:1047C000832E0102032341020326010583284105AC
:1047D000631405006FE09FD2832641041307100085
:1047E0003307D7402326E10C6FE09FD1330CFC4008
:1047F000130C1C009349FCFF93D9F941B3793C0198
:104800006FF01FB10327C102930C6006338CE700E1
:10481000330C6C006FF01FC793072000232CF102AC
:104820006FE0DFE4631A070093091000930C600641
:10483000130C10006FF0DFAD8327C102930C6006EC
:10484000138C1700330C6C009349FCFF93D9F9418A
:10485000B3793C016FF0DFAB8327410103AA070066
:104860009387470063540A00130AF0FF034E1400B5
:10487000232AF100130407006FD01F8083D7CB00D9
:1048800093E707042396FB006FD0DF9923240102EE
:10489000232201026FF01FDA9307050003A5011C14
:1048A0009306060013860500938507006FD00FE17D
:1048B00083D7C50003AE450603D3E50083A8C50131
:1048C00003A84502130101B893F7D7FF130700406F
:1048D000232C8146231AF100138405009307010756
:1048E00093058100232A914623282147232E114630
:1048F000130905002326C107231B6100232211038E
:10490000232601032324F100232CF1002328E100B6
:10491000232EE10023200102EFD04FDA930405009B
:10492000635C05028357410193F70704638807001E
:104930008357C40093E707042316F4008320C1477C
:104940000324814703290147138504008324414739
:1049500013010148678000009305810013050900D9
:10496000EF008069E30005FC9304F0FF6FF09FFB0C
:10497000130101FE232C8100232A91002328210109
:10498000232E11002326310113090500938405000D
:10499000130406006306050083278503638A071452
:1049A0000317C40083268401937787002324D4004F
:1049B0009316070193D60601638407088327040131
:1049C0006380070837260000B3F6C60093F9F40F9A
:1049D00093F4F40F6380060A03270400832644013E
:1049E000B307F74063DED70A832684001306170057
:1049F0002320C4009386F6FF2324D400230037012C
:104A000003274401938717006308F70C8357C400FA
:104A100093F71700638607009307A000638EF40ADC
:104A20008320C10103248101032901018329C100DD
:104A300013850400832441011301010267800000F3
:104A40009305040013050900EF00400C631E0508E0
:104A50000317C4003726000093F9F40F93160701DB
:104A600093D60601B3F6C6008327040193F4F40F2E
:104A7000E39406F6832644063367C70037E6FFFF54
:104A80001306F6FFB3F6C6002316E400032704005E
:104A90002322D40683264401B307F740E3C6D7F4A4
:104AA0009305040013050900EF000055631E05027D
:104AB00003270400832684009307100013061700C1
:104AC0009386F6FF2320C4002324D400230037015B
:104AD00003274401E31CF7F29305040013050900C2
:104AE000EF008051E30E05F29304F0FF6FF05FF3E7
:104AF000EF0050136FF0DFEA9307050003A5011CD8
:104B000013860500938507006FF09FE683A7011CBD
:104B1000130101FF23248100232291002326110089
:104B200093040500138405006386070003A7870329
:104B3000630407080317C4009317070193768700DF
:104B400093D7070163880608832604016388060A51
:104B500013F6170063080602032644012324040009
:104B6000130500003306C040232CC400638A0602EC
:104B70008320C1000324810083244100130101012B
:104B80006780000013F627009305000063140600F9
:104B9000832544012324B40013050000E39A06FC96
:104BA00093F70708E38607FC136707042316E4005E
:104BB0001305F0FF6FF0DFFB13850700EF00900691
:104BC0000317C400931707019376870093D7070153
:104BD000E39C06F693F607016382060893F7470005
:104BE0006394070483260401136787009317070162
:104BF0002316E40093D70701E39C06F413F6072875
:104C000093050020E306B6F4930504001385040021
:104C1000EF30D0730317C4008326040193170701F4
:104C200093D707016FF0DFF283250403638E05003D
:104C3000930704046388F50013850400EF00501BFC
:104C40000317C40023280402832604011377B7FD49
:104C5000232204002320D4006FF01FF99307900053
:104C600023A0F400136707042316E4001305F0FFE4
:104C70006FF01FF0130101FD232C410103AA811BDA
:104C8000232021032326110203298A1423248102CD
:104C900023229102232E3101232A5101232861016D
:104CA000232671012324810163000904130B0500ED
:104CB000938B0500930A10009309F0FF83244900A9
:104CC0001384F4FF6342040293942400B304990014
:104CD00063840B0483A74410638077051304F4FFF7
:104CE0009384C4FFE31634FF8320C10203248102AE
:104CF00083244102032901028329C101032A81017E
:104D0000832A4101032B0101832BC100032C810065
:104D100013010103678000008327490083A6440034
:104D20009387F7FF638E870423A20400E38806FAC3
:104D30008327891833978A00032C4900B377F7003B
:104D400063920702E78006000327490083278A143D
:104D500063148701E38427F9E38807F813890700C0
:104D60006FF0DFF58327C91883A544083377F70070
:104D7000631C070013050B00E78006006FF0DFFCE3
:104D8000232289006FF09FFA13850500E780060053
:104D90006FF09FFB8397C500130101FE232C810058
:104DA00023263101232E1100232A910023282101DB
:104DB00093F687001384050093090500639C061091
:104DC000371700001307078083A64500B3E7E70005
:104DD0002396F5006356D01803278402630C070C52
:104DE0009397070193D70701B716000083A4090022
:104DF000B3F6D70023A009008325C40163980616E3
:104E0000930610001306000013850900E700070051
:104E10009307F0FF630EF5188357C400032784023D
:104E20008325C40193F74700638E0700832644005F
:104E3000832704033305D540638607008327C40313
:104E40003305F5401306050093060000138509009D
:104E5000E70007009307F0FF631EF51003A70900A2
:104E60008317C400630A07169306D0016306D700B0
:104E7000930660016314D70C8326040137F7FFFF04
:104E80001307F77FB3F7E7002316F400232204008B
:104E90002320D4008325040323A09900638C0500FC
:104EA000930704046386F50013850900EF0040743E
:104EB00023280402130500008320C101032481017B
:104EC00083244101032901018329C1001301010247
:104ED0006780000003A90501E30E09FC83A4050017
:104EE00013970701135707011377370023A02501F4
:104EF000B3842441930700006314070083A745018E
:104F00002324F400634890006FF0DFFA3309A9000E
:104F1000E35290FA832744028325C4019386040058
:104F20001306090013850900E7800700B384A44035
:104F3000E34EA0FC8357C4001305F0FF93E707047A
:104F40008320C1012316F40003248101832441013D
:104F5000032901018329C1001301010267800000B8
:104F600003A7C503E34AE0E66FF0DFF40325040579
:104F70006FF05FEB8357C40037F7FFFF1307F77F2E
:104F8000B3F7E700832604019397070193D70741FE
:104F900013D7C7002316F400232204002320D400D3
:104FA00093771700E38807EE2328A4046FF09FEEA1
:104FB00083A70900E38207E61307D0016388E702AD
:104FC000130760016384E7028357C40093E7070473
:104FD0002316F4006FF05FEE37F7FFFF1307F77F3C
:104FE00083260401B3F7E7006FF09FFA23A099002E
:104FF000130500006FF05FEC130101FE232C81000C
:10500000232E110013040500630605008327850382
:10501000638007028397C500639607028320C1015E
:1050200003248101130500001301010267800000C1
:105030002326B100EF00003F8325C1008397C50000
:10504000E38E07FC13050400032481018320C101C2
:10505000130101026FF01FD463060506130101FE60
:10506000232C81001304050003A5011C232E11002D
:105070006306050083278503638A07028317C4003C
:10508000639C07008320C1010324810113050000F4
:1050900013010102678000009305040003248101CD
:1050A0008320C101130101026FF0DFCE2326A1008E
:1050B000EF0040378317C4000325C100E38407FCD9
:1050C0006FF09FFD03A5811BB7550000938585FFF9
:1050D0006F0050571305000067800000B7F500000F
:1050E000938505566F001056130500006780000079
:1050F000130101FEB7570000232E1100232C81005D
:10510000232A910023282101232631012324410150
:105110002322510123206101032445009387C70DF9
:10512000232EF5021307C52E930730002324E52E06
:105130002322F52E2320052E930740001309050096
:105140002326F400130680009305000023220406A2
:105150002320040023220400232404002328040025
:10516000232A0400232C04001305C405EFC0DF929A
:1051700037BB000083248900B7BA000037BA0000AB
:10518000B7B90000130B8B0E938ACA14130A4A1D79
:105190009389C923B7070100232064032322540302
:1051A0002324440323263403232E8400938797006B
:1051B00023A6F400130680009305000023A2040632
:1051C00023A0040023A2040023A4040023A80400B5
:1051D00023AA040023AC04001385C405EFC0DF8BB1
:1051E0000324C900B707020023A0640323A25403C9
:1051F00023A4440323A6340323AE940093872701FA
:105200002326F40023220406232004002322040082
:105210002324040023280400232A0400232C040050
:105220001305C4051306800093050000EFC0DF8658
:105230008320C10123206403232254032324440335
:1052400023263403232E84000324810193071000B6
:10525000232CF90283244101032901018329C10080
:10526000032A8100832A4100032B0100130101025C
:1052700067800000130101FF23229100930780063D
:105280009384F5FFB384F4022320210113890500E0
:10529000232481002326110093854407EF30D03169
:1052A00013040500630005021305C5002320040054
:1052B000232224012324A4001386840693050000DE
:1052C000EFC08FFD8320C10013050400032481007B
:1052D00083244100032901001301010167800000BC
:1052E000130101FE2328210103A9811B232631017B
:1052F000232E110083278903232C8100232A910068
:105300002324410193090500638A070A1309092E22
:105310009304F0FF130A4000832749000324890007
:105320009387F7FF63D807006F00400813048406D3
:10533000638E97060317C4009387F7FFE31807FEF1
:10534000B707FFFF938717002322040623200400DA
:1053500023220400232404002326F400232804002D
:10536000232A0400232C0400130680009305000068
:105370001305C405EFC04FF223280402232A0402B8
:1053800023220404232404048320C1011305040000
:105390000324810183244101032901018329C100E0
:1053A000032A810013010102678000000324090021
:1053B000630C0400130904006FF01FF613050900C5
:1053C000EFF01FD36FF09FF49305C01A1385090007
:1053D000EF30901E13040500630605021305C50097
:1053E00023200400232244012324A4001306001ACE
:1053F00093050000EFC04FEA232089001309040041
:105400006FF09FF1232009009307C00023A0F9004B
:105410006FF09FF703A5811BB7F500009385055634
:105420006F00502283278503638407006780000094
:105430006FF01FCC6780000067800000678000006D
:105440006780000003A5011CB75500009385450D3A
:105450006F00101503A5011CB75500009385850E3C
:105460006F001014130101FF23248100B7670100AE
:105470003764010093870712130444123304F44085
:1054800023229100232611009354244063800402B8
:105490001304C4FF3304F400832704009384F4FF4F
:1054A0001304C4FFE7800700E39804FE8320C100D3
:1054B000032481008324410013010101678000005F
:1054C000130101FE23263101232C8100232A9100A0
:1054D0002328210123244101232E1100138A0500D2
:1054E00013090500938941D9EF40002C03A78900D7
:1054F000B71700001384F7FE8324470033044441A8
:1055000093F4C4FF330494001354C4001304F4FF51
:105510001314C400634EF400930500001305090042
:10552000EF50101E83A78900B38797006308F50228
:1055300013050900EF4080278320C1010324810166
:1055400083244101032901018329C100032A810029
:10555000130500001301010267800000B3058040BD
:1055600013050900EF50D0199307F0FF6308F50405
:105570009387014203A7070083A68900B384844070
:1055800093E41400330787401305090023A2960013
:1055900023A0E700EF4080218320C1010324810183
:1055A00083244101032901018329C100032A8100C9
:1055B000130510001301010267800000930500002D
:1055C00013050900EF50D01303A789009306F000DC
:1055D000B307E540E3DEF6F483A6411C93E717002A
:1055E0002322F7003305D54023A0A1426FF05FF4DA
:1055F00063840512130101FF2324810023229100FB
:10560000138405009304050023261100EF40C01900
:105610000328C4FF130784FF9377E8FF3306F700DE
:10562000938541D98326460003A5850093F6C6FFDE
:105630006306C51A2322D600137818003305D60056
:10564000631E0808032384FF0328450033076740CF
:10565000832887001385C1D9B387670013781800A2
:10566000638EA8120323C70023A668002324130116
:10567000630E081C93E617002322D7002320F600B0
:105680009306F01F63E6F60A93F687FF938686007B
:1056900003A54500B386D50003A6060013D857001E
:1056A00093071000B3970701B3E7A700138586FFA0
:1056B0002326A7002324C70023A2F50023A0E60089
:1056C0002326E600032481008320C1001385040003
:1056D00083244100130101016F40400D0325450063
:1056E00013751500631C0502B387D7001385C1D954
:1056F0008326860093E817003308F7006384A61614
:105700000326C60023A6C6002324D60023221701A1
:105710002320F8006FF0DFF66780000093E61700A3
:10572000232ED4FE2320F6009306F01FE3FEF6F4AA
:1057300093D69700130640006368D60E93D6670091
:1057400013889603138686031318380033880501DF
:1057500083260800130888FF6304D81203A64600B6
:105760001376C6FF63F6C70083A68600E318D8FE4B
:1057700003A8C600232607012324D70003248100A1
:105780008320C1002324E800138504008324410002
:1057900023A6E600130101016F40400163120814C3
:1057A0008325C60003268600B386F6000324810005
:1057B0002326B60023A4C50093E716008320C1006A
:1057C0002322F700138504003307D7008324410008
:1057D0002320D700130101016F30507D137818008A
:1057E000B386D70063100802032584FF3307A74060
:1057F0008327C70003268700B386A6002326F6006A
:1058000023A4C70013E6160083A7811C2322C70028
:1058100023A4E500E3E8F6EA83A5411D138504000F
:10582000EFF01FCA6FF01FEA130640016374D6023F
:10583000130640056364D60693D6C7001388F606A0
:105840001386E606131838006FF05FF0B387D700B1
:105850006FF01FEA1388C6051386B60513183800C3
:105860006FF0DFEE23AAE50023A8E5002326A700BA
:105870002324A700232217012320F8006FF09FE4C0
:1058800003A545001356264093071000B397C700A1
:10589000B3E7A70023A2F5006FF0DFED1306401574
:1058A000636CD60093D6F7001388860713867607B5
:1058B000131838006FF09FE913064055636CD6004B
:1058C00093D627011388D6071386C6071318380006
:1058D0006FF0DFE71308803F1306E0076FF01FE764
:1058E00093E617002322D7002320F6006FF09FDDF8
:1058F000832786006380073283D6C500130101FD2C
:1059000023248102232C4101232671012326110225
:105910002322910223202103232E3101232A510126
:105920002328610123248101232291012320A10145
:1059300093F78600930B0600130A050013840500F5
:105940006386070883A705016382070893F726008B
:1059500083A40B00638C0708832744028325C401BA
:10596000B70A0080930900001309000093CA0AC017
:105970001386090013050A0063020904930609004F
:1059800063F42A0193860A00E7800700635AA02681
:1059900083A78B00B389A9003309A940B387A74027
:1059A00023A4FB0063880720832744028325C401C6
:1059B0001386090013050A00E31209FC83A90400F9
:1059C00003A94400938484006FF09FFA93050400B8
:1059D00013050A00EFF08F936310053C8356C40053
:1059E00083A40B0093F72600E39807F693F71600BD
:1059F000639E07128327040003278400B70A0080F0
:105A000013CBEAFF130C00009309000093CAFAFFBE
:105A100013850700930C07006382091013F6062014
:105A2000630E0624130D070063E6E92E13F70648FC
:105A3000630A07080326440183250401131716008F
:105A40003307C7003389B740935CF701B38CEC0090
:105A50009307190093DC1C40B387370113860C00B1
:105A600063F6FC00938C07001386070093F606404C
:105A7000638E062C9305060013050A00EF30C03331
:105A8000130D050063020530832504011306090088
:105A9000EFB01FEE8357C40093F7F7B793E70708FB
:105AA0002316F40033052D01B3872C412328A401CC
:105AB000232A94012320A400938C09002324F400BA
:105AC000138D090013060D0093050C00EF30D03B39
:105AD00003278400832704001389090033079741B3
