:100000001307300023AEE1D6B7270700130101FF25
:10001000938747112326110023A0F1D8EFB00014D5
:1000200037C505001305C5AAEF80D310EF401000B7
:10003000EF3090128320C10013050000130101016D
:1000400067800000930700006388070037450400BD
:10005000130505E46FE0C46F678000009711080086
:100060009381C1011385A1A817B60B001306465C46
:100070003306A64093050000EF80034C17E504000B
:100080001305456D6308050017450400130585DB5E
:10009000EFE0046CEF70C37103250100930541008C
:1000A00013060000EFF0DFF56F509352130101FFCC
:1000B0002324810083C7C12E2326110063920702E7
:1000C00093070000638A070037150700130545787A
:1000D00097000000E7000000930710002386F12E30
:1000E0008320C10003248100130101016780000007
:1000F00093070000638C0700371507009385012FD5
:1001000013054578170300006700000067800000B2
:10011000130101FE2328210123263101138941AD5A
:10012000938981AC0326090083A60900232C810052
:10013000232A910023244101938481AD138401AECD
:1001400083A80400032804001357F60103A581AA1D
:10015000138A01B293D7F6013307C700B387D700DC
:1001600083250A001357174093D717403307170109
:10017000B387070113150501232E110023A0E40006
:100180002320F400EFB0D01B83A7C1A983250A0068
:100190002320A90013950701EFB0901A83270900C7
:1001A0000326040083A5040093D6F7011357F50135
:1001B000B386F6003307A70093D6164013571740AF
:1001C0003307E640B386D5402320E4008320C101F5
:1001D00003248101B387D7003306E50023AEF1ACD9
:1001E00023A0A90023A0D40023A2C1AE83244101EF
:1001F000032901018329C100032A8100130101029F
:100200006780000083A501B183A7C1B003A7C1899E
:10021000130101FF23AAB1AC2326110023A4F1ACE2
:100220006318070403A741B183A681B123ACE1ACF5
:1002300003A581AA3387E500B387D70023A0D1AEF9
:1002400023AEE1AC1315050123A2F1AEEFB0D0103F
:10025000930505003705010023A4B18AEFB0D00F44
:100260008320C10023A0A1B2130101016780000017
:1002700003A7C1B113D5F5013305B50083260700E7
:1002800013D6F7011355154003A7C60083A6060130
:100290003306F6003307A7401356164023ACE1ACF3
:1002A000B386C6406FF0DFF8138681AE8326060062
:1002B0009307A000138516003365F50203A841AD2E
:1002C00083A581AC03A381AD83A801AE1357F801C8
:1002D00093D7F501B387B70033070701939536002D
:1002E0001357174093D7174093864136B386B6000D
:1002F00033076700B387170123A0E60023A2F600A7
:100300002320A600678000003706008003A501F2C5
:10031000130101FF9346F6FF938E41B013061600BA
:10032000938F01B0138E81AF138F41AF232611003D
:10033000232481002322910023A0DE0023A0DF00DC
:100340002320CE002320CF00635CA01283A7C1F33B
:1003500013153500930200003305F50093080000E3
:1003600093030000930506001303000013880600A2
:100370006F0080016356E600130607009302100029
:10038000938787006308F50203A70700634A070BFA
:1003900063D6E500930507009303100003A7470009
:1003A000E35AD7FC93878700930607009308100051
:1003B000E31CF5FC638C02082320CE00638E080842
:1003C00023A0DE006380030A2320BF003306D6404B
:1003D0006300030A23A00F01B385054103A581AA89
:1003E0001384C1AE131505012320C4009384C1A951
:1003F000EFB0807683A70400832504001304050072
:1004000013950701EFB0407593070400635485000E
:100410009307050003A50400B705200023AEF1AE45
:1004200013150501EFB040738320C1000324810040
:1004300023A8A1AE832441001301010167800000BD
:1004400013080700130310006FF05FF537060080F4
:1004500013061600E39608F6B706008093C6F6FF6B
:10046000E39403F6B7050080938515006FF01FF63F
:10047000B707008093871700B385F5006FF01FF66C
:1004800013062000930520006FF05FF59387C1AC41
:1004900003A7070083A74700B366F700638A060037
:1004A00023AE0188B706008093C6F6FF23A0D1AA29
:1004B00083A541AD138681AD138501AE03280500E8
:1004C0000323060093D6F501B386B60083A841AF97
:1004D00033076700B387070193D616402320E60051
:1004E0002320F5003308D70063C6080583A801B0B0
:1004F0006342180503A681AC83A881AF9356F60129
:10050000B386C60093D616403388D70063C6080169
:1005100083A841B063561801B387D8402320F50063
:100520003306F600B385E50023AEB1AC23A2C1AE1D
:10053000678000003387D8402320E6006FF09FFBE0
:1005400003A581AA03A681D6130101FE130810009A
:10055000232C810023A801A9138401B223AAC1AAD4
:1005600037070080232E1100232A910083250400E1
:1005700023282101232631019387C1AC1347F7FFBC
:10058000B706010023A0E1AA23A2070023A00700C9
:1005900023ACD1AA23A601A81315050123A4D1B029
:1005A00023A201ACEFB0C0599307050003A5C1A970
:1005B00083250400938441AD1315050123A0F400A5
:1005C000EFB0005883A6C1C2377708009307472AC7
:1005D00013962600B387C70083A7070023A4A1AC06
:1005E000130405006380070A93973600B387D7008A
:1005F000377708001307472B93975700B387E70017
:1006000023AEF1B083A9040083A607009357F40139
:1006100013D7F90103A6C60083A6060133073701E5
:10062000B38787001357174093D71740B387F64017
:10063000138981AD938401AE3307E6402320E9009E
:1006400023A0F400EFF09FE48326090003A7040031
:1006500023AAD1B023ACE1B023A831B123A681B045
:10066000032481018320C101832441010329010165
:100670008329C100372507001305059A13010102DC
:100680006FB0423FB77708009385C1B19387472B7E
:1006900023A0F5001307472A930600001305400026
:1006A0000326070013074700631806009386160009
:1006B000E398A6FE6FF01FF5139736003307D700B7
:1006C00013175700B387E70023A0F5006FF09FF3DF
:1006D00023A801AA9306001423A601AA130101FF6F
:1006E00023A4D1AA938741369306800A23AED1A8CA
:1006F0002326110023248100938607051307F0FFAA
:1007000023A0E70093878700E39CD7FE23A401AED4
:100710001384C1AFEFF05FBF03250400B7B500003D
:1007200093853533EFB0404303A701AF9387818AA8
:1007300023A0A700930505006356A70083250400A6
:1007400023A0B70037050100EFB000418320C100AE
:100750000324810023A0A1B21301010167800000DE
:10076000130101FE232C8100232A9100232821015B
:10077000232E110013040000377905009304A00014
:10078000930604001306894B93059000130541005E
:10079000EF8013331304140013054100EFE0420708
:1007A000E31094FE372507001305C59823A801A878
:1007B000EFB0422C8320C1010324810113071000F4
:1007C00023A6E18A832441010329010113010102C7
:1007D00067800000130101FD232291029384C18AE6
:1007E00083A704002326110223248102232021034E
:1007F000232E3101232C4101232A51016384070A4E
:1008000013094100B77905001384418A03270400C6
:1008100083A701C823A004009384018A6318F7000A
:1008200003A7040083A7C1C7630CF700EFF05FEADA
:1008300003A701C883A7C1C72320E40023A0F400B5
:10084000EFF01FD09384C13313040000130AA000FB
:10085000930604001386894B930590001305090045
:10086000EF8013269305100013050900EFD0926C5A
:1008700023A0A4001304140093844400E31A44FD4D
:100880008320C1020324810283244102032901023F
:100890008329C101032A8101832A41011301010334
:1008A000678000001304000013094100B7790500B8
:1008B000130AA000930604001386894B9305900049
:1008C00013050900EF80D31F13041400130509005A
:1008D000EFD01274E31044FF372507001305C598C5
:1008E00023A801A8EFB002196FF01FF2130101FD58
:1008F00023229102938401A983A704002324810267
:100900002326110223202103232E3101232C410110
:100910000327050013040500639C07026318070002
:100920008326450003A701966386E6168320C1024D
:100930000324810283244102032901028329C10186
:10094000032A81011385070013010103678000005A
:100950006310070A0327450083A741946384E70EC9
:1009600083A741966380E71483A78195638EE71878
:1009700083A7C195638CE71483A7C196638EE71C98
:1009800083A781966388E71E83A701966386E72481
:1009900083A741956388E71E83A78194638CE7282A
:1009A00083A7C194638AE72C83A701956380E7320C
:1009B00083A7019493040000639CE7089387413662
:1009C000938607051307F0FF23A0E70093878700AE
:1009D000E39CD7FE03A7C1B123A401AEB7770500FE
:1009E0009387C7502320F70E930410006F00400632
:1009F0009306100093070000E31AD7F2032745007F
:100A000083A641946388E60E83A641966384E60E2E
:100A100083A681956388E61283A6C1956384E61256
:100A200083A6C1966386E60083A68196E390E6F0EE
:100A3000B707010023A4F1B023ACF1AA930700008B
:100A40006FF0DFEE83A7C189930400006380070E77
:100A500083A741C563860700938704006FF01FEDED
:100A600083458400371507001305857EEFA00075C8
:100A7000E30405FE938681A903A706001306300050
:100A800093070000130717003367C70223A0E6008F
:100A90006FF0DFE9EFF01FD423A201D0930710001D
:100AA0006FF0DFE883A7C18993040000E39207FA9F
:100AB00083A501B23705040093041000EFB040088D
:100AC0003305A04023A6A1AC6FF09FF883A7C1898E
:100AD00093040000E39E07F683A501B237050400E6
:100AE00093041000EFB0C005B307A04023A8F1ACF9
:100AF0006FF01FF603A7C18993070000E31807E210
:100B000023A601AC6FF09FE283A7C1899304000084
:100B1000E39007F483A501B23705040093041000A5
:100B2000EFB0000223A8A1AC6FF09FF283A501B241
:100B30003705040093041000EFB0800023A6A1AC99
:100B40006FF01FF103A7C18993070000E31007DED0
:100B500023A801AC6FF09FDDB70701009386A7AF14
:100B60009387E75123A4D1B023ACF1AA93041000DA
:100B70006FF01FEEB70701009386E7519387A7AF89
:100B80006FF05FFE938741A903A707009336170014
:100B900023A0D700631C070C83A5C1AF03A881ADB8
:100BA00003A601AE83A641AD03A781AC23AA01B180
:100BB00023ACC1B023A8D1B023A6E1B03705010012
:100BC00023A4B18AEFA0507923A0A1B2930410000E
:100BD000EFF00FD46FF0DFE723AA01A8130710008E
:100BE00023A2E1D013090000377A05009309A00081
:100BF0009306090013068A4B9305900013054100E4
:100C0000EF80036C1309190013054100EFD0524027
:100C1000E31039FF372507001305C59823A004000A
:100C2000EFA052651307100023A6E18A9304100079
:100C30006FF01FE29387C18903A70700933617005F
:100C400023A0D700B707008093C7F7FF23A0F1AA1E
:100C500083A7C1B163180704377705001307474C12
:100C600023A0E70E930410006FF09FDEEFF08FD902
:100C7000930410006FF0DFDD938701AC03A707003A
:100C800083A6C1B11336170023A0C700631607025D
:100C9000B77705009387474E23A0F60E9304100004
:100CA0006FF01FDB377705001307474D23A0E70ED2
:100CB000930410006FF0DFD9B77705009387C74E14
:100CC00023A0F60E930410006FF09FD803A781AE07
:100CD000B7760500377605009386864F1306465093
:100CE000930540011385813013898130EFD01008BE
:100CF00083A7C1B19304100023A0270FEFF0CFDA30
:100D00006FF01FD5130101FF232481001384818A12
:100D100083A581B00325040023261100232291001E
:100D2000EFA0106293050500370501002320B400F1
:100D3000EFA090628327040083A5C1AF938401B222
:100D400023A0A40063C6B70083A501AF63DAF50052
:100D5000370501002320B400EFA0106023A0A400F9
:100D6000032481008320C100832441001301010179
:100D70006FF00FBA130101FE232A91009384C1B1D1
:100D800083A70400232C810083A70700138401AAF2
:100D90000327040003A5C700232E110023282101E7
:100DA0002326310123244101232251016318A70086
:100DB0000327440083A707016308F70A9389818A00
:100DC00083A50900138A01B2EFA0905783250A007A
:100DD000B70AFFFF33755501EFA0905683A70400B3
:100DE000138941AD8326090003A6070013070500F8
:100DF00093D7F60183A50900B387D7000325060121
:100E000093D71740B307F740938981AD23A0F9002A
:100E1000EFA0105383250A0033755501EFA05052FF
:100E200083A781AC03A7040083A609000328090057
:100E30000326070013D7F7013307F70013571740AE
:100E40003305E5408325C60003260601B386060167
:100E500023A0A1AEB387A70023AED1AC23A2F1AEED
:100E60002320B4002322C4008320C1010324810174
:100E700083244101032901018329C100032A810040
:100E8000832A4100130101026780000083A701A9A2
:100E9000638607089387C1A803A70700130101FF12
:100EA00083A6C189232611001307170023A0E7009A
:100EB000639C060403A781ABB70701006318F70220
:100EC0009387C1AC03A7070083A74700B367F70068
:100ED000638807008320C100130101016FF00FDB5D
:100EE0008320C1001301010167800000EFF09FE142
:100EF0009387C1AC03A7070083A74700B367F70038
:100F0000E38007FE6FF01FFDEFF0DFE603A781AB84
:100F1000B7070100E306F7FA6FF05FFD6780000096
:100F20008327450003A741AE130101FD232481025D
:100F3000232291022326110223202103232E310193
:100F4000232C4101232A5101232861012326710109
:100F5000232481018326C500930405001384050022
:100F60006340F720138901AE03260900B3A7C70029
:100F700093972700635CD72293068000938981AD05
:100F800003A5040003A709006350E52093E71700B9
:100F900003A684006354E62093E61600B3F7D70057
:100FA00063960718938A818A83A50A003305E54072
:100FB000EFA01039138CC1AA03260C0083A64400AD
:100FC0000327090083A50A0093570541B387C7008B
:100FD0003385E640138AC1A92320F400032B0A00BD
:100FE000938B01ABEFA0D03503A60B0083A6840042
:100FF0009357054103A70900330BFB4083A50A0063
:10100000330BCB003385E64023226401EFA050333D
:1010100003260C0083A6C40003270900935705414B
:1010200083A50A00B387C7003385E6402324F40074
:1010300083240A00EFA0D03003A70B00135505410D
:10104000B387A44083264400B387E7002326F40037
:101050001307800063CA060003270A00B3A6E60050
:1010600093C61600139726008326040063C806144F
:1010700003A681AA63C4C6001367270093088000F3
:1010800063CA070083260A00B3A7D70093C71700D7
:10109000939827008327840063CC072683A681AA20
:1010A00063C4D70093E82800B3771701639007085B
:1010B00003260A0083A581AA1308F6FF1385F5FF0E
:1010C000B3671701638207286318071013F38800BA
:1010D0006306032083280400832784000327440039
:1010E0008326C400B3871741B387E7023307D7408D
:1010F000232604001303000093060000B3C7E70291
:10110000B38717012324F400B3A6C60093C61600C4
:101110009398260063CE07101307030063C4B7003B
:1011200093E82800B3771701E38C07F81305000054
:101130008320C10203248102832441020329010286
:101140008329C101032A8101832A4101032B010163
:10115000832BC100032C8100130101036780000071
:10116000E346D7FC138901AE8327090063DCF6044C
:101170009307800093064000938981AD03A5040086
:1011800003A70900E344E5E003A6C1ADE352A6E0EE
:1011900003A6840093E72700E340E6E083A5C1AD02
:1011A000E3DEC5DE93E626006FF05FDF63D2C602A2
:1011B000E39E07F6930640006FF01FFC13671700CD
:1011C0006FF0DFEB93060000930780006FF01FDBEA
:1011D000930600006FF09FDA9377870013030700F0
:1011E000639A070A93774700638A070483264400BB
:1011F000832E040083278400338FC640032EC4004F
:10120000B387D741B387E703338EC64193060800FF
:10121000B3C7C703B387D701630EE3042324F400E5
:101220002326D40093088000E3D006EEE3D607EE31
:1012300093E81800130703006FF0DFEE93772700A1
:101240006382070A83270400832E44008326C40098
:10125000330FF540032E8400B386D641B386E603F0
:10126000330EFE4093070500B3C6C603B386D6010E
:10127000E316E3FA2320F4002322D40013078000AE
:1012800063D2060463C80704E3CEB7E813672700F8
:101290006FF05FE9032304008327840003274400E1
:1012A0008326C400B3876740B387E7023307D7407C
:1012B0002322040093060000B3C7E702B387670048
:1012C0002320F400B3A6C60093C616001397260089
:1012D000E3DC07FA136717006FF0DFE413870800F9
:1012E0006FF05FF093761700639806026302E306DF
:1012F000232404002326040093084000E35EC0E09A
:101300006352B00693080000130703006FF05FDB21
:1013100093E818006FF05FD9832E44008326C40041
:10132000032F0400032E8400B386DE40B386E60359
:10133000330EEE41B3C6C603B386D6016FF0DFEDC0
:101340006358B002E39408D8130510006FF05FDE15
:101350002320040023220400E344C0FE13074000BE
:101360006FF09FF213070300930820006FF09FDBDC
:10137000130720006FF01FDB8327050063C0070CF5
:1013800003A781AA63DCE70A8326450063C8060A2F
:1013900083A8C1A963D4160B032685006340060AFF
:1013A000635EE6080328C500634A08086358180905
:1013B000B30FD70203AE41AB3306F6403308D84033
:1013C0001353F6419358F8413346C30033C808011C
:1013D00093F5F50FB382FF00B3025E00330666405B
:1013E000330818412380B200931E160013631300C4
:1013F000131F180093E818006354C80603288500DB
:1014000013D61E403306CF406382070BB3876700B5
:101410003308FE0063480600B3861601B30FD702F7
:101420003306D6413308F8012300B80003288500AD
:101430003306E601E31CF8FC6780000003A7C1A7A0
:101440009387C1AB03A607000325C700B775050046
:10145000130716009385055223A0E7006F50433011
:101460000328C50013561F403386CE40638006050F
:10147000B3861601B30F17033387E60263460600EF
:10148000B38767003306E6413308FE003308E800FF
:101490002300B8000328C5003306D6013307F7013F
:1014A0006306D800B38616016FF05FFD6780000009
:1014B000130101FC232A9101938C81AD03A70C0039
:1014C00083A7C1EEB70680009385F6FFB307F74008
:1014D000232A910223206103232E1102232C81024F
:1014E00023282103232631032324410323225103EC
:1014F000232E7101232C81012328A10133F6B7008B
:10150000130B0500930407006300060213D6F7418E
:1015100013569600B387C700B3F7B700B387C74029
:10152000B386F640B384E600138D01AE938B81AC95
:1015300003240D0003AA0B00138C41AD832A0C0079
:10154000330A440123228100B30A570123264101B3
:1015500063D2540593090100370480009385C1319B
:10156000138509002320910023249100EFF05F9B55
:10157000B38484006316050CE3C254FF03240D00FA
:1015800003A70C00832A0C0003AA0B00B30A57011F
:10159000330A440183A701EFB70680009385F6FF65
:1015A000B307F44033F6B7006300060213D6F741E1
:1015B00013569600B387C700B3F7B700B387C74089
:1015C000B386F6403304D4002320E10023245101E4
:1015D00093090100B7048000635844039385C13127
:1015E000138509002322810023268100EFF05F93F9
:1015F00033049400E30205FE93050B001385C1310B
:10160000EFF09FD7E34C44FD8320C1030324810303
:1016100083244103032901038329C102032A810290
:10162000832A4102032B0102832BC101032C810178
:10163000832C4101032D0101130101046780000087
:1016400093050B001385C131EFF01FD3E3C854F1AC
:101650006FF0DFF2130101FD2324810183A781F0E4
:101660002326110223248102232291022320210315
:10167000232E3101232C4101232A5101232861010A
:1016800023267101232291012320A1016350F00E32
:10169000930400001384C132138981A9930A700254
:1016A0006F00800493760708639A060283A64703B7
:1016B0006384061203962701630C561713770702FB
:1016C0006302070E83A541AC1385C132138D050B50
:1016D0009385C131EFF0DF84631C051683A781F089
:1016E0009384140063D4F40883A7C1EF13976400B4
:1016F00003250900B387E70003A6070083A6470078
:1017000003D70701032806008325460003A6060029
:1017100083A64600232004012322B4002324C4000E
:101720002326D400E31405F893760710E39C06F60D
:1017300083A7C1B183A74704E38207FA1377070899
:10174000E31E07F89385C1311385C132EFF04FFDD9
:10175000E30605F8930530061385C131EFF0DFC1CC
:1017600083A781F093841400E3C0F4F88320C102BE
:101770000324810283244102032901028329C10138
:10178000032A8101832A4101032B0101832BC1001C
:10179000032C8100832C4100032D01001301010360
:1017A0006780000083A7070303A6060003A70700BE
:1017B0006306E6049385C1311385C13203AD41ACA4
:1017C000EFF00FF6E30C05F093050D041385C1311E
:1017D000EFF09FBA6FF09FF09385C1311385C1324E
:1017E00003AD41ACEFF0CFF3E30A05EE93050D0B2B
:1017F0001385C131EFF05FB86FF05FEE03A74600CD
:1018000083A74700631EF704E30A05EC9385C13103
:101810001385C13203AD41ACEFF08FF0E30005EC6E
:1018200093050D061385C131EFF01FB56FF01FEB67
:101830009385C1311385C132EFF08FEEE30005EAE5
:101840009305800B1385C131EFF01FB36FF01FE9D3
:1018500093050D001385C131EFF01FB26FF01FE843
:101860009385C1311385C13203AD41ACEFF04FEB2D
:10187000E30605E693057D0E1385C131EFF0DFAF7A
:101880006FF0DFE5130101FE2322510183A741A779
:10189000232C81001354360113142400B3878700CE
:1018A000232A910023263101930405009389050022
:1018B0000325050083A50700232E110023282101FD
:1018C00023244101EFA0C027B7F705009387C70184
:1018D000B387870003AA07001309050003A50900C1
:1018E00093050A00EFA0C0259307050003A5040097
:1018F00093050A003309F940EFA0802483A741A78C
:10190000130A050003A50900B387870083A5070014
:10191000EFA000238320C10103248101330AAA0020
:1019200023A0490123A024018329C100832441016C
:1019300003290101032A8100832A410013010102C6
:10194000678000006356B020130101FC232C810244
:10195000232A910223282103232631032324410330
:101960002322510323206103232E7101232C8101A3
:10197000232E1102232A9101138B0500130906005F
:10198000938A0600130C070093890700130A0800C6
:1019900013040500930400006F00C00463960A104E
:1019A000B3874C018328C400832C8400B3853501A0
:1019B0002320B1002322F100B3884801B3879901A5
:1019C0009385C131130501002324F1002326110161
:1019D000EFF00FD563140508938414001304040179
:1019E000630A9B0883250400832C44002320B10054
:1019F00023229101E30409FA13050900EFA0401422
:101A00009307050093850C00130509002320F100BE
:101A1000EFA000132322A10063920A0E0327010006
:101A200083258400832CC400B307450133073701A5
:101A3000130509002320E1002322F100EFA040104C
:101A40009307050093850C0013050900938C07008C
:101A5000EFA0000F930805006FF01FF693050C0030
:101A60001385C13193841400EFF01F911304040116
:101A7000E31A9BF68320C1030324810383244103DB
:101A8000032901038329C102032A8102832A410217
:101A9000032B0102832BC101032C8101832C410103
:101AA000130101046780000013860A0093054100BA
:101AB00013050100EFF01FDD03270100832741001C
:101AC000032684008326C40033073701B387470108
:101AD0002320E1002322F1002324C1002326D1008A
:101AE00013860A009305C10013058100EFF09FD90A
:101AF0008328C100832C81006FF01FEC13860A003D
:101B00009305410013050100EFF0DFD70327010023
:101B10008327410083258400832CC40033073701C9
:101B2000B3874701130509002320E1002322F100B8
:101B3000EFA000019307050093850C001305090031
:101B40002324F100EF90D07F2326A1006FF05FF9EE
:101B50006780000083A701CB6386070E130101FD98
:101B600023248102377408002322910223202103B9
:101B70001304442B37790500B7740800232E310174
:101B8000232C4101232A51012328610123267101BD
:101B9000232611021309C9529384442A930A044844
:101BA000B729070083A741C51306000093057000FD
:101BB0001385C9916388070483A781CD63940704C3
:101BC00083A7C1B163808704130404121309490079
:101BD00093844400E31854FD8320C102032481024E
:101BE00083244102032901028329C101032A8101BF
:101BF000832A4101032B0101832BC100130101033F
:101C00006780000083A704001307600FE38E07FAC4
:101C10008327C40363940700032709008326040075
:101C2000130404121309490003A8060183A7C60080
:101C300083A6060293844400EFF0DFD0E31454F748
:101C40006FF09FF983A7C1B103A681A903A707007D
:101C5000832607028327C700032807011307100DF7
:101C6000630C0600372507001306000093050001EA
:101C70001305C5816FF01FCD37250700130600003F
:101C8000930570001305C5916FF0DFCB130101FDC3
:101C90002328610183A701F1232611022324810255
:101CA0002322910223202103232E3101232C4101E1
:101CB000232A510123267101232481016352F00656
:101CC00013090500930A0000130A0000B729070052
:101CD00083A781F2B387570103A48704630A040230
:101CE000938441AC03A70400032804018327C400A4
:101CF000832604023307E9003706100093053000FD
:101D00001385499BEFF01FC403248401E31C04FCEA
:101D100083A701F1130A1A00938A8A05E34AFAFAA3
:101D20008320C1020324810283244102032901028A
:101D30008329C101032A8101832A4101032B010167
:101D4000832BC100032C8100130101036780000075
:101D5000130101FC232C8102232C810113844136C1
:101D60002322510323206103232E7101232A910191
:101D70002328A1012326B101232E1102232A910237
:101D8000232821032326310323244103138CC13349
:101D900093060405930BF0FF832704009389818A3F
:101DA0001389C1AA138AC1A96388770703A581ADE6
:101DB00083A509003385A740EF90905803A601AE94
:101DC000832844008327090083A509009354054113
:101DD0003385C840B384F40083290A00EF9050563D
:101DE0008327090003A601AB9386413B63C6F40237
:101DF00083A781AA13550541B389A9409387B7FFEB
:101E0000B385C90063CA970063C8C50083270A0069
:101E10009387A7FF63D6B70413048400130C4C0008
:101E2000E31CD4F68320C1030324810383244103EC
:101E3000032901038329C102032A8102832A410263
:101E4000032B0102832BC101032C8101832C41014F
:101E5000032D0101832DC1001301010467800000DF
:101E600003260C001385040013048400EFB0C22B7A
:101E70009386413B130C4C00E310D4F26FF09FFAB1
:101E800083A701A96394070067800000130101FF85
:101E90002324810023229100138481AA9384C1A961
:101EA00083A7040003260400232021013306F60241
:101EB000138941AB03250900930500002326110077
:101EC000EF60836783A701AC63980706EFF08FF894
:101ED000EFF05FC803A781A9930720006304F7060A
:101EE00083A70400032704008326090093871700B3
:101EF000B387E70213D7F701B307F70093D717406B
:101F0000B387F600130700062380E700EFF05FE4D5
:101F10000326040083A501AB0324810083A60400EB
:101F20008320C100832441000329010003A5C1AA25
:101F3000130101016FB0420213058006EFF04FD785
:101F40006FF0DFF89305000113050007EFF01FD4D1
:101F50006FF01FF9138641B203270600032E050018
:101F6000032345009307170093D5F74193D5A501A7
:101F700093162700832885000328C500B386E60052
:101F8000032505013387B700939626001377F703DF
:101F90009387413BB387D7003307B74023A0C701DE
:101FA00023A2670023A4170123A6070123A8A700E3
:101FB0002320E60067800000938681B203A6060016
:101FC00083A741B2630CF6029307160093D5F7413D
:101FD00093D5A50113172600B387B7003307C700B1
:101FE00093F7F70313172700B387B7401385413BD7
:101FF0003305E50023A0F60067800000130500000C
:1020000067800000130101FF2326110023248100B3
:102010002322910023202101930405001389050048
:10202000EF7093191304050013050900EF70D3181E
:1020300093071500636AF4023304A440B384840058
:1020400003C7F4FF9307F00213050000630CF702C7
:102050008320C1000324810083244100032901005F
:1020600013010101678000008320C1000324810067
:10207000832441000329010013050000130101011D
:10208000678000009305090013850400EF70435931
:102090008320C1000324810083244100032901001F
:1020A000133515001301010167800000130101FEC3
:1020B00023244101138AC1B283270A002326310158
:1020C00023225101232E1100B72A0800232C81005E
:1020D000232A910023282101232061011307F007FF
:1020E00093090500938ACA926342F7021397270067
:1020F000B7C605003387EA00938717009386C69416
:102100002320D7002320FA006352F00A93840A00A8
:1021100013090000377B05006F004001EF50931A50
:1021200083270A00938444006352F90803A404003F
:102130009385090013050400EFF0DFEC9307050019
:102140001305040063880700EFB0506C63140506A4
:1021500003A4040093060000138609009305CB53E3
:1021600013050400EFC0002613040500EFB0106A49
:10217000930705001309190013050400E38007FA0B
:102180008320C1011305040003248101832441013C
:10219000032901018329C100032A8100832A410008
:1021A000032B0100130101026780000013040000EB
:1021B0006FF01FFD13192900B38A2A01032481013E
:1021C00003A50A008320C1018324410103290101E1
:1021D0008329C100032A8100832A4100032B0100C7
:1021E000130101026F704376130101FF2324810064
:1021F0002326110013040500EFB05061930705007A
:1022000013050400638C0700630E05008320C100E2
:10221000032481001301010167800000EFF01FE932
:10222000E31605FE8320C10013050400032481008A
:102230001301010167800000130101FB232E31030C
:102240009309050037750500232EB10113050554C8
:10225000938D0500930510002328610323261104A4
:10226000232481042322910423202105232C4103CC
:10227000232A51032326710323248103232291035C
:102280002320A1032326B101EF80D050130B0500BA
:102290006306050C83A701D8130715001317270041
:1022A000B387E70003A4070013050400EFB010563E
:1022B000930D04006304051A63880D1E9305F00254
:1022C00013850D00EF70D31613890D00630405000C
:1022D00013091500377405001304C473130A040EA0
:1022E000930410006F0080008324440033D799408A
:1022F00013771700130509006308070083250400FE
:10230000EF7003326308050013040401E31E44FD6B
:10231000930490008327C10023A097008320C10469
:102320000324810483244104032901048329C10374
:10233000032A8103832A4103032B0103832BC10258
:10234000032C8102832C4102032D010213850D0011
:10235000832DC10113010105678000003775050059
:1023600013054556EF60035D938CC1B283A70C0043
:102370001307F007634EF70CB72B080013972700DD
:10238000938BCB92B7C605003387EB00938717007A
:102390009386C6942320D70023A0FC00377D050038
:1023A000B77A0500377C05006350FB0A03A90B00D0
:1023B0001304CD73130A040E93041000B3D799408D
:1023C00093F71700638A0704832D0400130509009F
:1023D00093850D00EFF01FC3631A050A83470900B8
:1023E000938727FD639607088347190063920708C0
:1023F00013850D00EF704355930D050093850D0077
:1024000013854A59EF60032C13850D00EFB010407F
:10241000630C0500E3900DF013040401630E8A00C1
:10242000832444006FF09FF913850D001304040109
:10243000EF504369E3168AFE83A70C00130B1B00C1
:10244000938B4B00E344FBF6930D00006FF01FED00
:10245000B72B0800938BCB926FF05FF41305040049
:10246000EFF0DFC4930D0500E39A0DE46F00C003A5
:1024700013860D00930600009305CC531305090045
:10248000EFB05074930D05006FF05FF7130509006E
:10249000EFB0D037E30405F413050900EF70C34A29
:1024A000930D05006FF01FF73775050093050400C5
:1024B00013058554EF80C0136FF05FE0B77505001A
:1024C0009385C57393061000138745019307000099
:1024D0001306E000638CA600938717006380C70291
:1024E0008326070013070701E398A6FE939747008A
:1024F000B385F50003A5050067800000377505006A
:102500001305C55A67800000377805001308C873A3
:1025100093061000930788001307000093084000FB
:102520001306E000638CA6001307170093870701CA
:102530006304C70283A6C7FFE398A6FE638615015E
:1025400083A60700E392B6FE131747003308E8009E
:102550000325C80067800000377505001305855BFB
:102560006780000067800000130101FE232C8100BA
:10257000232A910083A441B3232E11002328210193
:102580001384C1B303A901B6EF80407E8327040002
:1025900083A70700E78007008327040083A7C700FD
:1025A000E780070083A781BD130500006394070A35
:1025B000B3C42403138901B48325090003A5018B47
:1025C000B38495406314050A9307400063C49708D9
:1025D000832704002320010023220100232401007B
:1025E0002326010083A7470013050100E7800700A9
:1025F00003270900130510009356F74193D696015F
:10260000B307D70093F7F707B387D7409396270010
:10261000B386F600B7270800939656009387C7B590
:10262000B387D70083260100130717002320E90092
:1026300023A0D7008326410023A2D7008326810050
:1026400023A4D7008326C10023A6D7009306100039
:1026500023A0D7088320C1010324810183244101E1
:1026600003290101130101026780000003A5C1BD18
:102670006318050093072000E3DC97F46FF09FFDDB
:102680009307800013050000E3C697FC6FF05FF42A
:10269000130101FF2326110023248100232291002E
:1026A000EF80404383A7018B6380070203A741B4F7
:1026B0009357F7419397070193D70701B387E70033
:1026C00093D707413305F50093173500B387A7006B
:1026D00093972700B387A7401307803EB3C7E7024D
:1026E00003A501B6938681B303A706001386C1B57F
:1026F00083250600B3C7A7023387E74023A0F6006F
:102700006346B70423200600B304B7401304000057
:10271000631EB7008320C10003248100832441008D
:102720001301010167800000E38684FEEFF0DFE320
:1027300013041400E31A05FE8320C1000324810062
:102740008324410013010101678000008320C10040
:1027500003248100B385E5402320B6008324410093
:10276000130101016780000083A781B5638407001E
:10277000678000006FF0DFF1130101FF23261100D5
:10278000EF80403583A7018B6380070203A741B424
:102790009357F7419397070193D70701B387E70052
:1027A00093D707413305F50093173500B387A7008A
:1027B000939727001307803EB387A740B3C7E7026C
:1027C00003A701B68320C100B3C7E70223ACF1B26F
:1027D000130101016780000003A701B593071000F2
:1027E0002320F5002322E504232EF5022322F50001
:1027F00023A0F1B6232005042326050223A8018A7D
:1028000067800000130101FF2324810013040500E9
:1028100037250000130545569305100023261100A7
:10282000EF70903F032704048320C100032481003C
:1028300023A8E1B413050000130101016780000023
:10284000130101FB23229104232E3103232A510378
:102850002328610323261104232481042320210536
:10286000232C410323267103232481032322910374
:102870002320A103232EB101938401B6EF804020D1
:1028800083A70400938A81B5B349F50203A70A0020
:10289000938781B403AB070023A037016308073097
:1028A000EFF09FCC138441B383A70400032A0400F4
:1028B000138C01B4334AFA0203290C0083A7018B5D
:1028C00083A5C1BD330A494163900702338769413B
:1028D0009306FAFF6350D72E13071700130A070059
:1028E0006352E02E6394053063444001130A1000E4
:1028F000B72C0800378D05006F008005631C0600AB
:102900008327040003A70400B3C7E702B387470186
:102910006352F90883A70A0063940700EFF05FD7BA
:102920008327040003A7040003290C00B3C7E702B0
:102930006344F922EF80C01483A704003345F502F5
:1029400063C8A92213051000EF80801C83A5C1BDB8
:1029500003A681BDE38405FA9387CCB313870702EE
:1029600083A60700938747006384E726E38A06FE71
:102970009386470093878700E384E6F8E39AE7FEAF
:102980008327040003A70400B3C7E702B387470106
:10299000E342F9F89307FAFFB72C08002324F1006B
:1029A0009387CCB52326F100B727080003A581BD86
:1029B000938DC7B363900514631C051A83A70400A5
:1029C000032704000326C1003347F7029356F7415B
:1029D00093D696013307D7001377F7073307D7400D
:1029E00093162700B388E60093985800330D16011C
:1029F00023220D0823240D0823260D0823280D0863
:102A0000232A0D08232C0D08232E0D08635EF00ADF
:102A10000326C1003387E600131757009306060804
:102A20000325040093050708338CE600330AB6003B
:102A3000930C00009389C1B33345F5026340A91A92
:102A400003258A0183220A00832F4A00032F8A006C
:102A5000832ECA00032E0A0103234A010327CA0159
:102A600083A7090023ACAD0023A05D0023A2FD01D4
:102A700023A4ED0123A6DD0123A8CD0123AA6D0027
:102A800023AEED0083A7870013050D0093050A0010
:102A9000E78007000325040093070D0013051500C8
:102AA0002320A400038757002382070063540700F4
:102AB000A382070093870701E39687FF83A704009B
:102AC000938C1C00E3CAFCF683A70A0063940700FA
:102AD000EFF01FBC832781001307F0FF9387F7FFF8
:102AE0002324F1006386E70883A5C1BD03A581BD4A
:102AF000E38405ECB72708009387C7B31387070261
:102B000083A60700938747006384E718E38A06FEDD
:102B100093864700938787006384E600E39AE7FE85
:102B200083A70400032704000326C1003347F702EC
:102B30009356F74193D696013307D7001377F707DB
:102B40003307D74093162700B388E60093985800C0
:102B5000330D16016FF09FEB1305CD81EF705029F7
:102B6000EF70107283A704003345F502E3DCA9DCA3
:102B70008320C10403248104832441040329010424
:102B80008329C103032A8103832A4103032B010301
:102B9000832BC102032C8102832C4102032D0102ED
:102BA000832DC1011301010567800000EFF05FAEC6
:102BB0006FF05FCFE354EAD213070A00130A07004D
:102BC000E342E0D2130A1000E38005D26F00000256
:102BD000E30806D2E38006D46FF09FD2B7870500E2
:102BE0001385C783EF70D0206FF09FE5138601B384
:102BF00083260600372708001307C7B393861600FD
:102C00002320D60013058000032607001307470082
:102C10006318060093871700E398A7FE6FF0DFCCD8
:102C2000E38407CC03A541B5634A2501938781B3AB
:102C300003A707001307F7FF23A0E7001386C1B41B
:102C40000328060093F73600372708001307C7B29A
:102C500093972700B307F7003325050123A0A700AA
:102C60008327070023202601E38007C88327470026
:102C7000E38C07C683278700E38807C68327C7003E
:102C8000E38407C61307100023AEE1B46FF0DFC57D
:102C9000E30805E8E38E06EC6FF09FE823AEA1B2EF
:102CA0006780000083A641DC83A781BD03A701CC18
:102CB000B3E7D70013050000B3E7E700639E070002
:102CC00003A581C803A7C1C683A741B63365E50044
:102CD0003365F500133515006780000083A7818BED
:102CE000638C070283A7C1B86388070283A7C1D694
:102CF0006394070237850500130101FF1305C5849E
:102D000023261100EF80003C635AA0008320C100FD
:102D1000130101016780000067800000378505000E
:102D2000930510001305C585EFB0D220EF70402148
:102D300013050000EF30C30983A7C109130101FD8A
:102D4000232611022324810223229102232021031E
:102D5000232E3101232C4101232A51012328610113
:102D6000232671012324810123229101639E072ED2
:102D70009384418B1389C18B8327090003A781C8E2
:102D8000130B00006314F722639E070883A741B367
:102D900063960708938941B8EF70907D83A781C837
:102DA0006392070C03A701A983A741B36316072405
:102DB000639E072003A781C883A704006306F72644
:102DC00063180724138AC1BB639E072C83A701A93C
:102DD0006390070A03A7810493070014938A01B93B
:102DE000630AF70883A741DC03A70A00938C01B7A5
:102DF000B3E7E7006396070083270A00639E07286E
:102E00009307300023A0FC00EF10927383A70C00FF
:102E10009387F7FF23A0FC006F00C005EF60101F31
:102E200083A781C8130720006384E726637EF71217
:102E300013073000E390E7F603A581B993058000FE
:102E4000EFB0520F130605009305000013050000B4
:102E5000EFA0822DEF70D07183A781C8938941B80C
:102E6000E38207F403A704006314F71A138AC1BBB3
:102E7000938A01B983A701CE6396072083A781C8EF
:102E800003A641D083A541DC83A601DB03A701CCC7
:102E900023A0BA002320CA0023A0D9002320F900D0
:102EA00023A0F4006306070483A701A9930440004C
:102EB000638A071483A7810403A781059387C7FB4F
:102EC00013D4F7013304F40037850500930580001F
:102ED000135414401305C5863304E400EFB0920583
:102EE000130605009385040013050400EFA042704B
:102EF000EFA01051EFF05F87630E0B129306800C6A
:102F0000130600149305000013050000EF20D05BAA
:102F1000EF7010371309F5FFEF709036B3042541B9
:102F20001304050013051000EF70903EE35690FE69
:102F3000938704001307800C930600141306000007
:102F40009305000013051000EF20D05F93040500E7
:102F5000EF701062EFA0D04AEF70D061639E040062
:102F6000130904006FF05FFB63880714EFE0C2569B
:102F7000938941B86FF05FE28320C102032481028C
:102F800083244102032901028329C101032A81010B
:102F9000832A4101032B0101832BC100032C8100F3
:102FA000832C410013010103678000009306800C0D
:102FB000130600149305000013050000EF20904D48
:102FC00083A781C8130B10006FF01FDC03A741C754
:102FD000377508001305452B93173700B387E700B3
:102FE000939757003305F500EF20D23A83A781C8A5
:102FF000E39A07E683A741B3E38E07DAEF60407CEC
:103000006FF05FDB83A4C105938444006FF09FEAF7
:10301000378505009305800013054586EFB0827162
:10302000EF70D06583A781C8E39207E483A704000B
:103030006FF05FD9032481028320C10283244102FF
:10304000032901028329C101032A8101832A410145
:10305000032B0101832BC100032C8100832C410031
:10306000130101036F701051EF2002639307F0FF0B
:103070009384418B23A0F4001307300023A8E1B60A
:103080006FF05FCF03A541CEEFA012126FF01FDFEC
:10309000EF20006F6FF01FD083A70C00E38C07DCDC
:1030A0006FF09FD623200A00EF10121283A781C869
:1030B000E38E07D06FF0DFDB83A741B3E38C07CC4F
:1030C00083A701A96398070683A70105631E0B0068
:1030D0001307800C638AE704138A01B883250A006A
:1030E000B335B0006F00C00093050B00138A01B820
:1030F000938941B803A709006308070003A701DB10
:103100006314070093051000938787F313B5170026
:10311000EF90920483A70105938787F393B7170075
:103120002320FA006FF05FC793050000138A01B8EF
:103130006FF01FFCEFE0DFD46FF01FF983A781BBB6
:1031400063960704130101FF232611002324810045
:10315000EFE09FE61304050063020502EF9050665E
:103160009307050013050400E39407FEEF30007F8A
:10317000EFE09FE413040500E31205FE8320C10085
:1031800003248100130101016780000067800000B3
:10319000130101FD2326110223248102232291021F
:1031A00023202103232E3101EF805019EF70D05DD1
:1031B000EF605069EF700026EF80C03DEF808059CE
:1031C000EF804068EF80007513054000EF80900E9F
:1031D000B7870800938707421307700623A0E7000C
:1031E0001307900623A2E7001307200623A4E70095
:1031F000130720073785050023A6E700938541A321
:1032000013054587EF80C02837850500938581A584
:1032100013058588EF80C02737850500938541A574
:1032200013054589EF80C026378505009385C1A326
:103230001305458AEF80C02537850500938581A356
:103240001305458BEF80C02437850500938581DA0F
:103250001305458CEF80C023378505009385C1A5F4
:103260001305058DEF80C022378505009385018EFB
:103270001305058EEF80C021378505009385C18D2C
:103280001305858FEF80C020378505009385818BDE
:103290001305C590B7240700EF80801F938404E8CE
:1032A00013040000B78905001309A0009306040069
:1032B000138689919305C00013054100EFB0002BE0
:1032C000938504001305410013041400EF80401C93
:1032D00093844400E31C24FD8320C1020324810263
:1032E00083244102032901028329C101130101033F
:1032F0006780000003A7C1B6130101FE232C8100E3
:10330000232E1100232A9100232821012326310195
:1033100083A701C76304070283A681C71307500070
:103320006388E60003A701CBB3E7E700638E0700DD
:103330003785050013054592EF50C35F83A701C78A
:1033400063840700EF40D0581307100023A6E1B8AC
:10335000EFF00FCF03A5C1BCEF701042EF70104229
:1033600037350000130545CAEF709041EF709008A3
:10337000EF705041EFA0C23AEF200232EFF0CFBF22
:1033800083A701CE6386070003A781C823AEE18A25
:10339000377408001304442BEF70101DEFF04FCA70
:1033A00003A7C1C293173700B387E700939757006D
:1033B000B307F40003A50700EF50924983A701D794
:1033C000E38C07FC83A781CBE39807FCEFF0DF9643
:1033D0006FF09FFC1387C1B9832707009387F7FF1E
:1033E0002320F70063C40700678000001307100064
:1033F00023A2E1B6678000001307100023A2E1B604
:103400006780000083A7C1C283A5418C93963700D3
:10341000B386F60037770800130101FF9396560034
:103420001307472B3307D7002326110023248100DD
:1034300023220700138641B723A201B68327060083
:1034400023A001D023A001CC23AC01C69306100019
:103450001387A5FF9387170063F8E608130760003A
:10346000B3E7E7022320F600130760006366F70462
:103470003787050093972700130707A6B387E70050
:1034800083A707006780070003A7018C930720002C
:10349000630AF7101305D0011307A00A23AEE1B8A1
:1034A0001307300023A4E1C8B78705009387C7A09E
:1034B00023ACF1B8EF50527D83A7C1B6638E0700ED
:1034C000138481B903250400B78505009385C5A041
:1034D000EF600315630005028320C100032481000F
:1034E000130101016780000013077000B3E7E702D2
:1034F0006FF05FF737850500130585A4EFA05265CF
:10350000E35C05FCB7870500938747A52320F400FB
:103510006FF09FFC37850500130505A4EF4090521E
:103520006FF09FF937850500130585A1EF40905195
:103530006FF09FF81307800C23AEE1B8130730003B
:1035400023A4E1C8B7870500938707A223ACF1B88D
:103550006FF09FF637850500130585A2EF40904E6A
:103560006FF09FF503A7018C9307300023A4F1C8E7
:10357000930620006306D7041306800C23AEC1B85F
:103580006308F702B7870500938707A323ACF1B858
:103590006FF09FF237850500130585A3EF40904A31
:1035A0006FF09FF113052004130710186FF01FEF41
:1035B000B7870500938707A223ACF1B86FF0DFEF60
:1035C000130710181305200423AEE1B86FF0DFEDE8
:1035D0001307F0FF23AC01C623AAE1B613071000BE
:1035E00023A2E1B667800000130101FE23225101EE
:1035F00083A701BD232E1100232C8100232A9100D3
:103600002328210123263101232441019306900020
:1036100013F7B7FF6382D7046310070A37850500E5
:103620001305C5A8EFA0D2526350A01613073000AF
:1036300023A0E18C8320C101032481018324410163
:10364000032901018329C100032A8100832A410043
:10365000130101026780000003A94123630C0914D0
:1036600003A4012393040000378A0500B7890500ED
:103670006F004001EF60033D630605121304C401AF
:10368000638A2413130680009305CAA71305040058
:10369000EF60433B93070500130680001305040009
:1036A000938549A893841400E39607FC1307100040
:1036B00023A8E1BCE30407F63785050013072000C3
:1036C000930510001305C5A923A0E18CEF70900CA1
:1036D000E352A0F683A701D81305150013152500A2
:1036E000B387A70003A4070037890500930549AAFB
:1036F00013050400EF50D372630C050CB789050065
:103700009385C9AA13050400EF5093716300050C5B
:10371000378A050093050AAB13050400EF50537078
:103720006306050C378505001305C5ABEF508320F4
:10373000B7840500930549AA138584ADEF409378BB
:103740009385C9AA138584ADEF40D37793050AAB5F
:10375000138584ADEF4013779305040003248101A2
:103760008320C10183244101032901018329C10070
:10377000032A8100832A410037850500130505AE21
:10378000130101026F60D06637850500130545A956
:10379000EFA0123C635CA0001307100023A0E18C93
:1037A0006FF05FE9130700006FF09FF023A0018C1A
:1037B0006FF05FE837850500130505B0EF605063D3
:1037C00003A701BD1377B7FF6FF01FE513051000C6
:1037D000B7870500131535009387C73CB387A7004B
:1037E00083A7470023A8F1BC6FF0DFE41305200096
:1037F0006FF01FFE37850500130101FF130505B2A9
:103800002326110023248100EFA092341304050025
:10381000378505001305C5B2EFA0923383A601BD1D
:10382000B7870500938747B323A6F1BC93F7B6FF8C
:1038300063840702634604066340050A8320C100CF
:1038400003248100B77705009387C76823A6F1BCDE
:10385000130101016780000063400402B77705008F
:103860009387876C23A6F1BC8320C10003248100C9
:10387000130101016780000083A7018C93063000CB
:103880006384D704930610006388D706E39E07FC81
:10389000B7870500938707B623A6F1BC6FF0DFFC5E
:1038A000130610006382C70493073000638EF6048A
:1038B00093072000E39AF6FAB7870500938747BA83
:1038C00023A6F1BC6FF05FFAB78705009387C7B3F3
:1038D00023A6F1BC6FF05FF9B77705009387476ABD
:1038E00023A6F1BC6FF05FF8B7870500938707B791
:1038F00023A6F1BC6FF05FF7B7870500938707B584
:1039000023A6F1BC6FF05FF6B7870500938787B8F1
:1039100023A6F1BC6FF05FF583A6418CB785050047
:10392000B787050093870736130710009385C5BB3B
:103930006F00000183A547FF638E050003A7C7FF43
:103940009387C700E398E6FE37850500130585BC1D
:103950006F4053576780000037350000130101E0C6
:10396000930500001305C5CD232E111E232C811EA7
:10397000232A911E2328211F2326311F2324411F80
:103980002322511F2320611F232E711D232C811DF3
:10399000232A911DEF60502837850500130585BF48
:1039A000EF60902C378505001305C5C0EF40937874
:1039B000EFD01248378505001305C5C3EF40937754
:1039C00037850500130505C5EF70C06F13070500A7
:1039D000378505001305C5C523AAE1B8EF70806ED1
:1039E0001307050037850500130585C623A0E1BA36
:1039F000EF70406D1307050037850500130505C7F7
:103A000023AEE1B6138481B7EF70C06B2320A4000E
:103A1000EF70C057378505001305C5C7EF70806A82
:103A2000630605001307100023AAE1C437850500CB
:103A3000130585C8EF7000696306050013072000B1
:103A400023AAE1C483270400639C076E13050000CA
:103A5000EF701027378505001305C5CAEF70806623
:103A60006300050883A7C1D71307800C9387F7FF6E
:103A7000634AF578930700191304070063D4E7003D
:103A8000130400193785050093050400130545CB81
:103A9000EF4053431387818C9387418D8325070023
:103AA0000326470083A6070003A84700B305B40216
:103AB000130540063306C402B306D40233040403DC
:103AC000B3C5A5023346A6022320B700B3C6A6029B
:103AD0002322C7003344A40223A0D70023A28700D7
:103AE00037850500130585CCEF40D364EF909242F3
:103AF00037850500130545CEEF40D363B785050034
:103B0000378505009385C5D0130505D2EF70900861
:103B1000EFF00FE8EF70100937B5000093050000D3
:103B20001305053AEF60500F938501BD1305F003AF
:103B3000EFE08FF0138481B82320A400630C05729A
:103B4000378505001305C5D923AA01BCEF40935E54
:103B500003240400B78A050013854ADB930504009B
:103B6000EF40533613050400EFA0C24A13050000CE
:103B7000EFA09261EFF05FA7378505009305100075
:103B8000130505DCEF700041630A051483A701D813
:103B900013051500378C0500131A2500130C4C353E
:103BA000B3874701930C4C0083AB070013840C00D0
:103BB000930400006F004001832784009384140065
:103BC0001304C400638207748325040013850B006B
:103BD000EF50D33FE31205FE9307C000B384F40215
:103BE000330C9C0003278C0023A2E18C83A7418C1B
:103BF000130750006372F74C130760006384E74CAF
:103C000037850500130585DFEFA08274634C05003E
:103C100037850500130545E0EF40D3511307100029
:103C200023A6E1B6EFA0022E378A05009307050010
:103C30009305100013050AE323AAF1BCEF70803549
:103C4000630C050C83A701D8130515001314250078
:103C5000B387870003A50700B7850500938585E432
:103C6000EFA0C06E83A701D8930B010D6310055818
:103C7000B387870083A6070037860500130606E58D
:103C80009305001013850B00EF50836393850B00A1
:103C900013854ADBEF40132313850B00EFA0823717
:103CA000630E056203A741239307C001130690002A
:103CB000B387E70283A501231305C100938747FE5D
:103CC000B385F500EFA080623785050093850B0072
:103CD000130585E5EF40131F6F00400583A701BD65
:103CE00013074000638EE74E9306500003A7018C34
:103CF0006382D73C130610006378E65693053000C4
:103D0000630AB76493052000630CB76483A7418CF2
:103D1000E3E4F6EE6FF0DFEE378505009305100063
:103D20001305C5E3EF700027E31E05F0378500009B
:103D30009305100013050550EF60006EEFA052339D
:103D4000EFF05FAB03A501BDEFE04FF7EF70007E32
:103D500083A741BD23A2A1BA63820706B7870500E6
:103D60009387C729130781019388470B03A807008E
:103D700003A5470083A5870003A6C70083A6070104
:103D8000232007012322A7002324B7002326C700EE
:103D90002328D7009387470113074701E39817FDAE
:103DA00083A6070083A7018C2320D700638A0750CE
:103DB00003A7018C93071000630CF74C37850500AF
:103DC0001305C5ECEFA0C25863420534EF60806F65
:103DD00037850500130585EDEF40D33503A5C1BC3C
:103DE000EF60807137850500130505B2EFA04256DC
:103DF000635C052E3785050013058505EF40933379
:103E0000EF700019EF605051EF6080231305100030
:103E1000EF608032EF608056EF00006D378505005F
:103E2000130B1000938A41BB938981BA138901BB9C
:103E3000138481B693072000930510001305C5076E
:103E400023A0FA0023A06901232069012320040094
:103E5000EF7040146304050283A701D81305150011
:103E600013152500B387A70083A7070083C70700A2
:103E7000232064019387F7FC23A0FA00378505000F
:103E80009305100013054508EF70C0106308050284
:103E900083A701D81305150013152500B387A700C4
:103EA00083A707001307100083C707002320E9003A
:103EB0002320E400938707FD23A0F9003785050040
:103EC000930510001305050923A401CEEF70800CA3
:103ED000631805243785050013058509EF70801EDA
:103EE000630605009307400123A4F1CE3785050042
:103EF000930510001305050AEF70C0096306050459
:103F000003A701D883A6018C930715009397270078
:103F1000B307F7001307200003A60700638EE63CF3
:103F20000347060083A6C1D7130707FD23A0E900B6
:103F30001305250013071000634CD52893071000C4
:103F40002320E9002320F400378505001305C584EC
:103F5000EF704017635CA0009307100023A0F900E6
:103F60002320F9002320F40023A0F1CE378505009B
:103F7000930510001305850AEF70C0019307F0FF49
:103F8000631A052037850500138BC1BA1305450B4D
:103F90002320FB00EF40131AEF90907A378505003D
:103FA0001305850DEF400372EF10921D3785050054
:103FB0001305C50FEF401318EFB0416537850500B5
:103FC0001305C511EF40131783A541A503A581A5CE
:103FD0009395350013153500EF40523B37850500AA
:103FE00013058513EF401315EF00805EEFF0DF92AD
:103FF0003785050013058516EF40D313EF50004FAA
:104000003785050013050519EF40D312EF80926341
:1040100003A7018C93072000630EF718378505006E
:10402000930510001305451BEF60D076631405144B
:1040300037850500930510001305051EEF60907588
:10404000631805109305100013050AE3EF609074E0
:10405000630C0500130710001305C10023ACE1CC6D
:10406000EF40401EEFF00FA93785050093051000C3
:104070001305C5E3EF601072631C052403250B00D4
:104080006358051A83A681C7930730006382F6023E
:104090008327040083A601CBB3E7D700638A071AFE
:1040A0000326090083A5090003A50A00EF3050315B
:1040B000EFF04FA423A2F18C03A7018C93073000EB
:1040C0006302F71C03A7018C93072000E31AF7B2E1
:1040D00083A701BD130710009387E7FFE362F7B2E0
:1040E00023A8E1BC6FF0DFB1378505001305C5B229
:1040F000EFA00226E35005D037850500130585F7AC
:10410000EF405303EF60003C6FF0DFCE37850500D2
:10411000130505F7EFA0C223E35A05CA6FF01FCCC1
:1041200083A701D81305150013152500B387A70031
:1041300003A50700EF10133823A4A1CE6FF09FD979
:1041400037850500130545C9EF40C37E6FF01F900A
:1041500083A701D81305150013152500B387A70001
:1041600003A50700EF305065930710002320F400EB
:104170006FF05FED37D50200130505F293051000CF
:10418000EF608029378505001305051CEF40837A11
:104190006FF01FEA83A701D813051500131525003A
:1041A000B387A70003A50700EF10D33093070500DE
:1041B0006FF05FDD378505001305C51AEFA04219C2
:1041C000E35E05E41307100023ACE1BA6FF01FE5CE
:1041D00083A7470003C70700130707FD6FF01FD62B
:1041E0001307900023A2E18C6FF09FA1B387870093
:1041F00083A507001306001013850B00EFA0000F26
:104200006FF0DFA883A701D813051500131525004B
:10421000B387A70003A507001304A000EF1093299C
:104220009307900013070500E3DEA7846FF09F84D7
:10423000EF50C17C93050500130600101305010D16
:10424000EFA0C00A1305010DEF3040746FF09FE33B
:1042500023AC01C61307F0FF23AAE1B61307100031
:1042600023A2E1B66FF0DFE41307400023A2E18C44
:104270006FF09FE4378505001305C5D2EF60403726
:104280006FF01F8C9307100023A0F18C6FF05F97E5
:10429000130481011309010DB78905006F00C000E7
:1042A00013048400E30C24B113050400EFA0420AB8
:1042B000E35805FE138549EAEF6080336FF05FFE37
:1042C000378505001305C5E6EF6080326FF05FAEFD
:1042D0001305C100EF40401EEFF0CF8183A701D846
:1042E000130690001305C100B387870083A507005C
:1042F000EF90D07F6FF05F9D13050600EF10931BCA
:10430000130705006FF09FC3378505001305851E51
:10431000EF404362378605001306C6BB37840500AD
:1043200083A50C00130504DD938CCC00EF4083398A
:1043300003A6CCFFE31606FE83A701D83785050048
:104340001305C5DDB387470183A50700EF60402A49
:104350006FF0DF891307600023A2E18C6FF05F8AA2
:10436000E384C7F01307700023A2E18C6FF05F892C
:104370009307800063EEA700B7870500131525009B
:104380009387C740B387A70003A507006780000095
:10439000378505001305453E67800000130101FCC9
:1043A000232C810237740800232A9102232441031D
:1043B000B7740800232A9101B797E338930C442B74
:1043C000377A0800232821032326310323225103AF
:1043D000232E7101232C81012328A1012326B10161
:1043E000232E1102938D442A23206103930B050091
:1043F0001304442B938A05009384442A93890C4820
:10440000138C97E3130ACAB5B786050083A7C1C604
:10441000639A070083A704006386070083A70A0046
:10442000638E070413040412938A4A0093844400A1
:10443000E31E34FD83A741B623A071BD6392070A32
:10444000032481038320C10383244103032901033F
:104450008329C102032A8102832A4102032B01021C
:10446000832BC101032C8101832C4101032D010108
:10447000832DC100130101046F408046330B94412A
:10448000135B5B40330B8B039385064313060005D8
:1044900013050A00EF90906503A6C1C283457A0018
:1044A00003A501C793173600B387C700939757003A
:1044B00013162B00B38565013386CD00B387FC004E
:1044C000A303BA002320060023A0470FB7860500E8
:1044D000E30A05F4EF40C002B78605006FF09FF4D1
:1044E000EFE05FF26FF0DFF537850500130101FAA9
:1044F0009307400013058544232E1104232C8104C7
:10450000232EF100232C0100EF60D03B635AA00062
:104510003707004023A8E10A93071000232CF1007D
:104520003785050013050545EF60D039635AA000B3
:10453000370700C023A8E10A93071000232CF100DD
:1045400003A7018C83A701BD378505001305051E50
:104550002328F1002326E100EF60D0369307000006
:10456000635AA0003785050013058545EF60903537
:104570009337150013054102232AF100EF90826F53
:1045800037850500130505B2EF90925C9347F5FF60
:1045900093D7F7011305C1002320F102EFE08FA6A6
:1045A00093070500378505001305454623A8F1CA82
:1045B000EF6050316356A0009307100023A8F1CAA2
:1045C0008320C105032481051301010667800000D3
:1045D00083A701CB130101F6232E1108232C810898
:1045E000232A91082328210923263109232441095C
:1045F0002322510923206109232E7107232C8107CF
:10460000232A9107638607001307100023A4E1B64D
:10461000372507001305C5ABEFE04FE883A5418CB4
:1046200083AE41C583A781CE03AE81BA03A301BB8C
:1046300083A841BB03A8C1BA03A641B983A6C1B7E9
:1046400003A701BA378505001305051E232EF102C5
:10465000232AD101232CC101232461022326110323
:10466000232001052328B102232EC1002320D102DB
:104670002322E102EF60102593070000635AA00097
:104680003785050013058545EF60D0239337150066
:10469000930500001305C100232AF102EFE0CF9338
:1046A00003250104832741030326410123A6A1BA60
:1046B00023A0F1CA0325C1010327810183268102BA
:1046C00023AAA1B8032501028325C10223AEA1B606
:1046D0000325410223AAC1C423A4E1BA23A0A1BA9D
:1046E0000325C10323A8D1BA23AAB1BA23A4A1CE1A
:1046F0000325C10423A6A1C2639A070C03258104E4
:10470000B77708009387472A133E250013333500F7
:10471000933845003338A000134E1E001343130096
:1047200093C818003785050023A0070123A2C701FD
:1047300023A4670023A617011305C54DEF30937816
:1047400083A5C1C2832681043785050093851500A2
:10475000138606001305C551EF30D37683A581CEAD
:10476000635CB00283A741C56388070293074001D9
:10477000638AF5083785050013050557EF309374F4
:1047800003A781CE9307100063C2E70637C5050073
:104790001305C594EF40031A8320C109032481093E
:1047A00083244109032901098329C108032A8108B7
:1047B000832A4108032B0108832BC107032C81079F
:1047C000832C41071301010A67800000378505002B
:1047D00013050547EF40031683A541BB03A641C55A
:1047E00083A601BB03A781BA6FF05FF11305300701
:1047F000EF30937237C505001305C594EF4083135E
:104800006FF09FF93785050013058509EF60900B60
:104810006316050083A581CE6FF0DFF537850500AF
:1048200013058553EF4003116FF01FF7130101FFCC
:1048300037A50F0023261100EF3003288320C10085
:1048400023A2A1BC130101016F0040006FD0824E72
:1048500083A741BC3718000037B50F00130808A024
:10486000130505A0B7F8FFFFB70500403386070121
:104870003385A70093880860B385F540B307160118
:1048800083A607003387F500938747002320D700CE
:10489000E398C7FE33860701E312A6FE138781BCA7
:1048A0008326070093071000B387D7402320F70023
:1048B000370700502328F7FE67800000678000005C
:1048C0001305803E6780000013050000678000002C
:1048D0006780000067800000130101FE232C810027
:1048E000138441BF03270400232E1100232A9100C3
:1048F0008326870023282101232631012324410117
:10490000232251019307F0FF638CF61283270701DE
:1049100063880712B766070093860656630AD73680
:10492000138981BE83260900139737003307F740A8
:10493000B759070013172700938989483387E9007F
:10494000938616002320E4002320D9001307301A91
:10495000636CF71E1307001A6366F738130700101D
:104960006380E73A637AF72413072015638EE730F4
:104970006374F728130740156388E72E138777E8D9
:104980009307600063F6E71A9307C000639AF6384E
:1049900003A6C1BEB7270700131636009387C7B01A
:1049A000B387C700938601BF03A6470083A506000F
:1049B000138701BE130510009307C005B724070035
:1049C0002320A700B307F60213C81500938404122E
:1049D000639A0524B387F40023A0A60083A6C70228
:1049E00093973600B387D74093972700B387F90092
:1049F0002320F400638C372F9306C005B306D6023C
:104A0000B386D40003A6C60093163600B386C6400C
:104A100093962600B386D900639ED70A2320F4001C
:104A200083A7870023200700232009001307F0FF36
:104A30006398E70A1307F00023ACE1BE6F00800A19
:104A4000138AC1BE03270A00B72A0700938ACAB097
:104A50001307170093173700B386FA0083A60600E2
:104A60002320EA0023A201BE638E060AB387FA0060
:104A700083A747001307C005B72407003387E70261
:104A8000938404123387E40083250701639E05069F
:104A90001307C005B387E702B7590700138701BEA4
:104AA0009389894803260700138981BE23200900C2
:104AB000B387F40083A6C70093973600B387D74027
:104AC00093972700B387F9002320F400631E062282
:104AD0008327040083A787001307F0FFE38CE7F424
:104AE00023ACF1BE8320C101032481018324410151
:104AF000032901018329C100032A8100832A41007F
:104B0000130101026780000013050000EF40C21C82
:104B100083270A0093973700B387FA0083A74700DB
:104B20006FF01FF723200A00930700006FF01FF4B7
:104B300093079004B3D7E70093F71700E38607E4E1
:104B4000930500016F000004130790266364F704C7
:104B5000130770266368F7181307601E6382E71255
:104B6000637EF7061307E0246384E704E36EF7E04F
:104B70001307A021E386E7FC1307702393050001C8
:104B80006396E70613050000EF400215832609002F
:104B90006FF09FDF1307F02A6380E70E6376F70656
:104BA0001307102B638AE70C1307602CE39EE7DCE6
:104BB000930530036FF01FFD1307900B638AE70A1C
:104BC0001307A00D93052000E38EE7FA1307A00951
:104BD00093054000E388E7FA6FF01FDB1307601CC2
:104BE00093057003E380E7FA6FF01FDA1307901F55
:104BF000E38AE7F86FF05FD9130700159305800388
:104C0000E382E7F86FF05FD81307802893058000F0
:104C1000E38AE7F61307D02A9305E000E384E7F67A
:104C20006FF09FD623A00601B386F40003A8860286
:104C300093173800B387074193972700B387F9008C
:104C40002320F400E39A37DB6392A50A83A6C60209
:104C500093973600B387D74093972700B3873701E0
:104C60002320F4006FF05FD99305B0066FF09FF139
:104C7000930510006FF01FF19305E0006FF09FF0B7
:104C8000930540036FF01FF0930550036FF09FEF03
:104C900003A7C1BEB72707009387C7B01317370014
:104CA000B387E70083A647009307C005B386F602E3
:104CB000B727070093870712138981BE138701BEA8
:104CC000B387D70083A6C70093973600B387D74032
:104CD000B75607009397270093868648B387D70077
:104CE0006FF0DFD3930520006FF0DFE99307C00575
:104CF000B307F602B387F40083A687026FF05FF56F
:104D0000930560036FF01FE883270A00939737002D
:104D1000B38AFA0003A64A00832704006FF0DFCDB0
:104D2000138701BE83270700E38407DA03A6C1BE09
:104D3000B72707009387C7B013163600B387C7009D
:104D400003A647009307C005B7240700B307F60280
:104D50009384041213058001B387F40083A5C70070
:104D600093973500B387B74093972700B387F9002F
:104D7000E386A6CA832704006FF01FC8130101FF52
:104D80002324810083A701BD23AC01C69306200024
:104D900023A4D1C823A201D02326110023229100ED
:104DA0002320210123A801A893F7B7FF9305100042
:104DB000639A070E1305F001EF40424B83A5418C27
:104DC00003A3C1C703AE01C803A701BDB7270700EE
:104DD0009387C7B91386871B130F000093069000B3
:104DE000930E100013054000130850006388D50689
:104DF0006302A704630A070983A80700630E170765
:104E000093874701E314F6FE63060F0023A021C138
:104E100023A491C08320C1000324810023A201C0E8
:104E200023AE01BE832441000329010013010101C7
:104E30006780000083A80700E39408FC83A847006C
:104E4000E39068FC83A88700E39CC8FB83A4070168
:104E500003A9C700130F10006FF09FFA83A8070083
:104E6000639E080223A40701E30AA7FCE30A07F9EB
:104E700083A80700E31617F9E31607FC83A8470089
:104E8000E39068F86FF01FFC83A80700E39AD8F757
:104E900083A88700E396C8F76FF05FFBE31CA7F4D5
:104EA0006FF01FF613051004EF40423C6FF01FF146
:104EB00003A501C0130101FD9305800023202103F8
:104EC000232E3101232C4101232A51012328610182
:104ED0002326110223248102232291022326710119
:104EE00023248101232291012320A101EF90920428
:104EF00003A981D6B71A0000373A000093090000D1
:104F0000130B050013090914938A0AFC130A0A20DB
:104F1000B3F45901130409ECB3049B001305040016
:104F2000130600041304040493850400EF30433C8B
:104F3000E31624FF9389090413090414E39A49FD35
:104F40009306800C1306001493050000130500005F
:104F5000EF80820083A7C1BF130770006358F70C6E
:104F6000938767FF13073000B3CBE70263800B0C16
:104F700083AC81C0370C07003789080093840C008C
:104F8000130BA0009306A000130DA000130C1CF23D
:104F9000130A20009309F0031309C9A0930A00140F
:104FA0006F00C0030326070083471600034706006F
:104FB000139487003364E400131404011354044170
:104FC0003304D40063C48A06EF80021693060400FB
:104FD000B3879C40B3877701638A070483C70400C3
:104FE0001385060093050B00338787019384140013
:104FF000638E07026386A703034707001377370012
:1050000063144701938707FE9387F7FD13972700E3
:105010003307E900E3F8F9F8938646006FF05FFB89
:10502000130BBB009306A0006FF09FFA8320C10210
:105030000324810283244102032901028329C1013F
:10504000032A8101832A4101032B0101832BC10023
:10505000032C8100832C4100032D01001301010367
:1050600067800000B727070003A707B19307C005B3
:105070003307F702B7270700938707121306F0FFDD
:1050800023AEC18A23A601BE930510001305F003C9
:10509000B387E70003A7C70093173700B387E7403C
:1050A000375707001307874893972700B387E70010
:1050B00003A7870023AAF1BE23ACE1BE23A201BE51
:1050C0001307200023A2E1C023A401BE23A801BE30
:1050D00023A001BE6F408219130101FE2326310176
:1050E00083A6018C232C81001384C1BF232E1100C1
:1050F000232A91002328210113072000832704007D
:10510000638EE606138941C00327090093841700C4
:1051100023209400930720006300F70A83A6018CE4
:105120006380F604631E070203A581C0EF40D30825
:1051300093171500B387A7009387A70F63F2970211
:1051400003A7C1C7930710002320F9009306F0FFBF
:1051500023AED18A23200400930730006302F70AAC
:105160008320C1010324810183244101032901011A
:105170008329C10013010102678000001307200387
:10518000E372F7F8377708001307472B1306074831
:105190008346D7001307071263980604E31AC7FE75
:1051A000138941C00327090093841700232094002A
:1051B00093072000E314F7F6138781BF83270700C6
:1051C0009387F7FF2320F700E34CF0F803248101D5
:1051D0008320C10183244101032901018329C100E6
:1051E000130101026FF04FEF83A601C81307E0011E
:1051F0006388E6029306800023ACD1C66FF09FF06F
:10520000032481018320C101832441010329010179
:105210008329C1001305E001130101026F40C2267A
:10522000EFF05FE4832704006FF0DFED83270500D4
:1052300063920708938741BE03A707006318070618
:1052400083A6C1BE372707001307C7B09396360061
:105250003307D700832647001307C0051306100045
:10526000B386E6023727070023A0C700930707127B
:10527000B387D70003A7070383A5870323A401BE31
:1052800093173700B387E74037570700130787485E
:1052900093972700B387E70003A7870023AAF1BEEF
:1052A00023A001BE23ACE1BE639A050013051000E4
:1052B000678000001305000067800000130101FFF4
:1052C0001305000023261100EF3012218320C100B6
:1052D00013051000130101016780000003A741C0FE
:1052E000930720006306F7001305000067800000A5
:1052F0006FF0DFF3630E0516130101FE232A910000
:105300009306050093040500B705070037850800DC
:10531000232E1100232C8100232821012326310173
:10532000232441012322510113060000938515F225
:10533000930820001308F0031305C5A083C70600D7
:10534000938616003387B700638A07040347070074
:105350001377370063141701938707FE9387F7FDD0
:10536000139727003307E5006360F8100327070051
:10537000938616008347170003470700939787001B
:10538000B3E7E7009397070193D707413306F60089
:1053900083C7F6FF3387B700E39A07FA1354F60181
:1053A0003304C40013541440330480403709070009
:1053B000B78908001304040A130919F2930A20009C
:1053C000130AF0039389C9A083C7040013050400DE
:1053D0009305400B338727019384140063800704EF
:1053E000034707001377370063145701938707FEBD
:1053F0009387F7FD139727003387E9006372FA0458
:1054000083C7040013044400130504009305400BF4
:105410003387270193841400E39407FC8320C101A0
:105420000324810183244101032901018329C1004F
:10543000032A8100832A41001301010267800000D2
:10544000032607008347160003470600939787004B
:10545000B3E7E7009397070193D707413304F400BC
:10546000EF70924C6FF05FF6130646006FF01FED81
:105470006780000037950500130101FF9305800048
:105480001305C58C2326110023248100EF90822A66
:10549000130605009305000013050000EF70D248C5
:1054A00003A7C1BEB72707009387C7B013173700FC
:1054B000B387E70003A50700EFF0DFE383A741BF51
:1054C00003A7C11983A6070083A74700930580009F
:1054D00093963600939717013307D70003274700A9
:1054E00093D6170193D7E700B387D7409397270048
:1054F000B307F7000395470003A741FA03C4470128
:105500003305E500EF900212130605009305A00A8B
:105510001305000A630A0400032481008320C100EC
:10552000130101016F701268032481008320C10000
:10553000130101016F70523F93172600B387F500E6
:1055400083C6970003C6870003C7A70083C7B700B9
:1055500093968600B3E6C600131707013367D7009A
:1055600093978701B3E7E700B385F50083C705008C
:105570001307F00F83A881D61308F00F638AE7049E
:10558000139727003307F70083C61500131767002A
:105590003307A700938735003387E800638206024C
:1055A00093863600B386D50003C60700938717009D
:1055B000130707142300C7ECE398D7FE83C6150032
:1055C00093864600B385D50083C70500E39A07FBA1
:1055D0006780000037950500130101FC930550001A
:1055E0001305858D232E1102232C810223282103EC
:1055F0002322510323206103232A9102232631030E
:1056000023244103EF900213130905003795050089
:10561000930550001305058EEF90C211930A050003
:105620009306800C13060014930500001305000078
:10563000EF709212138BC1BF83270B001307001466
:105640009387A7F113D4F7013304F40013541440E3
:1056500033048040130404149347F4FF93D7F741B5
:105660003374F4006354870013040014930400009F
:10567000130AF0139309001413060400930509009C
:105680001385040063568A00130604EC93850A0010
:1056900093841400EFF05FEA13041400E39E34FDDA
:1056A00083270B0013079046637EF7041307B04966
:1056B0006374F70A938747B613075000B3D6E7021F
:1056C0009307600063C4D7061384C1C08327040016
:1056D00063C6D706379605001306068F9305A0000C
:1056E00013054101EF30D33D9305800013054101BF
:1056F000EF90420413060500930540041305C0060D
:10570000EF7092228320C103032481038324410389
:10571000032901038329C102032A8102832A41024A
:10572000032B010213010104678000001384C1C030
:105730008327040093066000E3DED7F8930510008A
:10574000130500002326D100EF3002598326C10043
:105750002320D4006FF01FF83795050093058000D3
:105760001305858EEF80127D130605009305400416
:105770001305C006EF70521B23A601C06FF09FF8FF
:1057800083A741C013071000638EE70013072000B2
:105790006388E70063840700678000006FF04FF1C3
:1057A0006FF05FCD03A7C1C7930630006306D70231
:1057B000130620006302C706130640006300C702F9
:1057C000E31CF7FC83A7018C6382D70437850500AF
:1057D000130505A36F0000016FF0DFDF37950500AB
:1057E00013054590130101FF930580002326110046
:1057F000EF8052748320C10013060500930500005A
:1058000013050000130101016F70121237850500A6
:10581000130505A26FF01FFD379505001305858F51
:105820006FF05FFCB305B50283A741C103A881C136
:10583000B385B7006380B706130500006F00C00191
:1058400063DCD8022380D70013051000938717006C
:1058500013081800638CB70203C7070083460800CB
:10586000E306D7FEB308C740E3ECE6FCB308C70085
:10587000E37ED7FCE3C816FD23801701938717004A
:105880001305100013081800E398B7FC1345150022
:1058900067800000130510006780000013050000FA
:1058A000678000009357F501B387A70063020618CD
:1058B000130101FE13DE17402328310183A901C221
:1058C0009302050003A581C183AF41C1232A2101B1
:1058D00003A9C1C1232E8100232C9100232641015D
:1058E000232451012322610123207101130FF6FFAC
:1058F000939E150013181E00130710009304100048
:105900009303F0001304F0FF63DC54049386090052
:105910009308090013030000130600006F00C00184
:1059200063CAB7061306160093864600B388D801EB
:105930003303B3006356C60383A70600E3D207FE12
:105940009387170023A0F600130616001307000024
:1059500093864600B388D8013303B300E34EC6FDF7
:10596000130FFFFFE3128FFA0324C1018324810187
:105970000329410183290101032AC100832A8100EF
:10598000032B4100832B01001305070013010102C3
:1059900067800000930B800063C4F300938B1700B3
:1059A000B38A7701338A554163C8BA00B38BF54097
:1059B000938A0500130A00003387C703B307F30077
:1059C00093971700B307F500939B1B00B38B7701E8
:1059D0003307C700131717003387EF00039B070037
:1059E000938727002310670133070701E39877FFA8
:1059F0003387CA0323A05601938708003307C700E3
:105A000063040A0213171700131A1A003387EF00F2
:105A1000338A4801839A0700938727002310570190
:105A200033070701E318FAFE130700006FF09FEF3A
:105A300013051000678000003306B50283A5C1C1BD
:105A400003A541C1130101FF23261100EF20530AD2
:105A50008320C100130500001301010167800000CD
:105A600003A501C2130101FF23261100EFB052422A
:105A700003A5C1C1EFB0D24103A581C1EFB052412E
:105A80008320C1001305000013010101678000009D
:105A9000130101FE23263101B389C502232C8100A5
:105AA000232A910023244101938405001304060056
:105AB0009305100013060000130A05002328210196
:105AC0009399190013850900232E1100EFB0D24CD1
:105AD0001309050063548004939E1400130E0500FF
