:10000000EF0040136F00000000000000000000003F
:1000100000000000000000000000000000000000E0
:1000200000000000000000000000000000000000D0
:1000300000000000000000000000000000000000C0
:10004000130101FE232E810013040102B7070050A3
:10005000938707012326F4FE8327C4FE83A70700A6
:1000600093F7F70F138507000324C1011301010261
:1000700067800000130101FE232E1100232C810054
:1000800013040102EFF0DFFB930705002306F4FEE3
:10009000EFF01FFB93070500A306F4FEEFF05FFAF5
:1000A000930705002307F4FEEFF09FF9930705007F
:1000B000A307F4FE9307C4FE83A707001385070078
:1000C0008320C10103248101130101026780000024
:1000D000130101FD23268102130401039307050088
:1000E000A30FF4FCB7070050938707012326F4FE03
:1000F0000347F4FD8327C4FE23A0E700130000009C
:100100000324C1021301010367800000130101FEF3
:10011000232E810013040102B70700502326F4FEAA
:100120008327C4FE1307F0FF23A0E700730010002D
:100130006F000000130101FD232611022324810218
:1001400013040103B70700502322F4FEB707001081
:100150002320F4FE232604FE6F0040038327C4FE01
:1001600093972700032704FEB307F7008326C4FEF6
:1001700037B72211130707B03387E60023A0E70043
:100180008327C4FE938717002326F4FE0327C4FEAB
:100190009307F000E3F4E7FC232404FE6F00C0049F
:1001A000832784FE13871700832744FE23A0E700DC
:1001B000832784FE93972700032704FEB307F700E5
:1001C00003A70700832684FEB7B72211938707B0E1
:1001D000B387F6006304F700EFF05FF3832784FE34
:1001E000938717002324F4FE032784FE9307F0006F
:1001F000E3F8E7FA832744FE23A00700EFF05FE46B
:1002000093070500A30FF4FC0347F4FD832744FE86
:1002100023A0E7000347F4FD93071000631AF704D7
:10022000EFF05FE5232CA4FCEFF09FE193070500BE
:10023000A30BF4FC032784FDB70700106366F702E5
:10024000032784FDB717001063E0E702832784FDCE
:10025000034774FD2380E700834774FD138507007F
:10026000EFF01FE76F00C006EFF05FEA6FF01FF9D5
:100270000347F4FD930720006310F702EFF09FDFC0
:10028000232CA4FC832784FD83C707001385070064
:10029000EFF01FE46FF09FF60347F4FD9307300083
:1002A000E31EF7F4EFF01FDD232CA4FC032784FDED
:1002B000B7070010631CF70013050008EFF05FE1BB
:1002C000832784FDE78007006FF05FF3EFF01FE402
:0402D0006FF0DFF2FA
:00000001FF
