:10000000EF00400A6F000000000000000000000048
:1000100000000000000000000000000000000000E0
:1000200000000000000000000000000000000000D0
:1000300000000000000000000000000000000000C0
:10004000B707005003A507011375F50F678000007F
:10005000B707005003A70701130101FF2306E100C2
:1000600003A70701A306E10003A707012307E10097
:1000700083A70701A307F1000325C10013010101B4
:1000800067800000B707005023A8A7006780000022
:1000900093670508370700502320F700730010000E
:1000A0006F000000B707005037B6221123A00700E9
:1000B000B7B7221137070010938707B0930606C021
:1000C0002320F7009387170013074700E39AD7FE12
:1000D000930706B037B6221137070010130606C083
:1000E0006F00C000938717006382C7028326070052
:1000F00013074700E388F6FEB70700501307100800
:1001000023A0E700730010006F000000130101FC42
:10011000232C8102232A9102232821032326310341
:10012000232441032322510323206103232E710141
:10013000232E110237040050130A1000930A2000E6
:10014000930B200893040008130BF0009309400060
:10015000130930008327040113F7F70F2320E4006D
:1001600093F7F70F63864707E39657FF832704014A
:100170002300F10083270401A300F1008327040179
:100180002301F10083270401A301F10003270100EB
:1001900083260401135687003346C700935707018F
:1001A000B3C7C70093F7F70F13568701B3C7C7004C
:1001B00093F6F60F6380D706232874018327040182
:1001C00013F7F70F2320E40093F7F70FE39E47F9A7
:1001D000832704012300F10083270401A300F10019
:1001E000832704012301F10083270401A301F10007
:1001F000832704010326010093F7F70F1387F7FF06
:100200009376F70F637EDB00930710082328F40032
:100210006FF05FF423289400E70007006FF09FF36E
:1002200083250401135586003345A60013570601A4
:100230003347A70093F5F50F1377F70F1355860192
:100240003347A7002300B1003347B700638C47153D
:100250008325040193F5F50FA300B1003347B700E0
:10026000638257158325040193F5F50F2301B1002F
:100270003347B700638827138325040193F5F50FEF
:10028000A301B1003347B700638E37118325040102
:100290001305500093F5F50F2302B1003347B70063
:1002A0006382A710832504011305600093F5F50F01
:1002B000A302B1003347B7006386A70E832504016C
:1002C0001305700093F5F50F2303B1003347B70012
:1002D000638AA70C832504011305800093F5F50FAD
:1002E000A303B1003347B700638EA70A8325040137
:1002F0001305900093F5F50F2304B1003347B700C1
:100300006382A70A832504011305A00093F5F50F66
:10031000A304B1003347B7006386A708832504010F
:100320001305B00093F5F50F2305B1003347B7006F
:10033000638AA706832504011305C00093F5F50F12
:10034000A305B1003347B700638EA70483250401DA
:100350001305D00093F5F50F2306B1003347B7001E
:100360006382A704832504011305E00093F5F50FCC
:10037000A306B1003347B7006386A70283250401B3
:100380001305000193F5F50F2307B1003347B700BC
:10039000639AA7008325040193F5F50FA307B10025
:1003A00033C7E5008325040193F5F50FE396E5E0F7
:1003B000137736006310070A13B76600631C07083B
:1003C0008326010013D727002320D60063064703A6
:1003D000832641002322D600630057038326810031
:1003E0002324D600631A37018327C1002326F60091
:1003F000232894006FF01FD613F7C70F3306C700EA
:10040000E388E7FE93060701B386260083C506FF4F
:100410009306170093F6F60F2300B600E3FAF6FCF6
:1004200093860601B386260083C606FF13072700BE
:100430001377F70FA300D600E37CF7FA93070701C1
:1004400033872700834707FF2301F6002328940002
:100450006FF05FD013070000B306E10083C506000C
:10046000B306E600130717002380B6009376F70F54
:0C047000E3E4F6FE232894006FF0DFCDDB
:00000001FF
