:10000000EF00C0106F0000000000000000000000C2
:1000100000000000000000000000000000000000E0
:1000200000000000000000000000000000000000D0
:1000300000000000000000000000000000000000C0
:10004000130101FE232E810013040102B7070050A3
:10005000938707012326F4FE8327C4FE83A70700A6
:1000600093F7F70F138507000324C1011301010261
:1000700067800000130101FE232E1100232C810054
:1000800013040102EFF0DFFB930705002306F4FEE3
:10009000EFF01FFB93070500A306F4FEEFF05FFAF5
:1000A000930705002307F4FEEFF09FF9930705007F
:1000B000A307F4FE9307C4FE83A707001385070078
:1000C0008320C10103248101130101026780000024
:1000D000130101FD23268102130401039307050088
:1000E000A30FF4FCB7070050938707012326F4FE03
:1000F0000347F4FD8327C4FE23A0E700130000009C
:100100000324C1021301010367800000130101FDF4
:10011000232611022324810213040103B707005090
:100120002322F4FEB70700102320F4FE232604FE4A
:100130006F0000038327C4FE93972700032704FE64
:10014000B307F7008326C4FE370722113387E60082
:1001500023A0E7008327C4FE938717002326F4FE1D
:100160000327C4FE9307F03FE3F6E7FC232404FED5
:100170006F000006832784FE93972700032704FE61
:10018000B307F70003A70700832744FE23A0E70077
:10019000832784FE93972700032704FEB307F70005
:1001A00003A70700832684FEB7072211B387F60052
:1001B000630AF700832744FE1307F0FF23A0E7003C
:1001C0006F000000832784FE938717002324F4FE2A
:1001D000032784FE9307F03FE3FEE7F8EFF05FE6C6
:1001E00093070500A30FF4FC0347F4FD832744FEA7
:1001F00023A0E7000347F4FD930710006312F70202
:10020000EFF05FE7232CA4FCEFF09FE393070500DA
:10021000A30BF4FC832784FD034774FD2380E700D0
:100220000347F4FD93072000E31AF7FAEFF09FE489
:10023000232CA4FC832784FDE78007006FF01FFABE
:00000001FF
