:10000000EF0080146F0000000000000000000000FE
:1000100000000000000000000000000000000000E0
:1000200000000000000000000000000000000000D0
:1000300000000000000000000000000000000000C0
:10004000130101FE232E810013040102B7070050A3
:10005000938707012326F4FE8327C4FE83A70700A6
:1000600093F7F70F138507000324C1011301010261
:1000700067800000130101FE232E1100232C810054
:1000800013040102EFF0DFFB930705002306F4FEE3
:10009000EFF01FFB93070500A306F4FEEFF05FFAF5
:1000A000930705002307F4FEEFF09FF9930705007F
:1000B000A307F4FE9307C4FE83A707001385070078
:1000C0008320C10103248101130101026780000024
:1000D000130101FD23268102130401039307050088
:1000E000A30FF4FCB7070050938707012326F4FE03
:1000F0000347F4FD8327C4FE23A0E700130000009C
:100100000324C1021301010367800000130101FDF4
:10011000232681021304010393070500A30FF4FCB7
:10012000B70700502326F4FE8347F4FD93E707F852
:1001300093F7F70F138707008327C4FE23A0E70078
:10014000730010006F000000130101FD232611024F
:100150002324810213040103B70700502322F4FE75
:10016000B70700102320F4FE232604FE6F0040038F
:100170008327C4FE93972700032704FEB307F700E5
:100180008326C4FE37B72211130707B03387E60072
:1001900023A0E7008327C4FE938717002326F4FEDD
:1001A0000327C4FE9307F000E3F4E7FC232404FED6
:1001B0006F000005832784FE13871700832744FE02
:1001C00023A0E700832784FE93972700032704FEDC
:1001D000B307F70003A70700832684FEB7B72211F1
:1001E000938707B0B387F6006306F7001305100086
:1001F000EFF0DFF1832784FE938717002324F4FEBA
:10020000032784FE9307F000E3F6E7FA832744FE12
:1002100023A00700EFF0DFE293070500A30FF4FC33
:100220000347F4FD832744FE23A0E7000347F4FDC2
:1002300093071000631CF704EFF0DFE3232CA4FC0A
:10024000EFF01FE093070500A30BF4FC032784FDE8
:10025000B70700106366F702032784FDB717001085
:1002600063E0E702832784FD034774FD2380E700F2
:10027000834774FD13850700EFF09FE56F0040078B
:1002800013052000EFF09FE86FF0DFF80347F4FD5F
:10029000930720006310F702EFF0DFDD232CA4FCAE
:1002A000832784FD83C7070013850700EFF05FE213
:1002B0006FF05FF60347F4FD93073000E31CF7F49B
:1002C000EFF05FDB232CA4FC032784FDB7070010AD
:1002D000631CF70013050008EFF09FDF832784FD00
:1002E000E78007006FF01FF313053000EFF01FE207
:0402F0006FF05FF25A
:00000001FF
