:10000000EF0040076F00000000000000000000004B
:1000100000000000000000000000000000000000E0
:1000200000000000000000000000000000000000D0
:1000300000000000000000000000000000000000C0
:10004000B707005003A70700130101FF2306E100D3
:1000500003A70700A306E10003A707002307E100A9
:1000600083A70700A307F1000325C10013010101C5
:1000700067800000130101EEB7070040232E111026
:10008000232C8110232A911023282111232631119A
:1000900023244111232251112320611123A00700A1
:1000A00093051000930700003705004037860100D4
:1000B000930680003397F5002320E5001307066AB6
:1000C000130000001307F7FFE31C07FE93871700D8
:1000D000E392D7FEB70700401307F00F23A0E70015
:1000E000B70700203707002823A0070093874700A1
:1000F000E39CE7FEB707004023A007003704005049
:100100003709004093091000130A2000930A3000B9
:10011000930420088327040013F7F70F93F7F70FD2
:100120002320F9006310370DEFF09FF1032704003F
:100130001377F70F63160700930710086F00800905
:1001400093568500B346D50093570501B3C7D70032
:1001500093F7F70F93568501B3C7D70093060000B6
:1001600003260400B305D100938616001376F60F1C
:100170002380C500B347F60013F6F60FE362E6FEF0
:100180008326040093F6F60F6396D71093070000BA
:100190003306F10003460600B306F5009387170007
:1001A0002380C60093F6F70FE3E4E6FE9307000012
:1001B000B306F50003C60600B306F10083C60600C9
:1001C000631ED6009387170093F6F70FE3E2E6FE6F
:1001D000930700082320F4006FF0DFF39307300843
:1001E0006FF05FFF631E4703EFF09FE58327040076
:1001F00093F7F70FE38207F4130700082320E400C6
:1002000013070000B306E50083C6060013071700B6
:100210002320D4009376F70FE3E6F6FE6FF09FEF0E
:10022000E31A57FBEFF0DFE1130B0500EFF05FE19E
:1002300013578B003347EB0093570B01B3C7E7000D
:1002400093F7F70F13578B01B3C7E700B3C7A700A6
:10025000135785003347F70093570501B3C7E700ED
:100260000327040093F7F70F93568501B3C7D70010
:100270001377F70F6390E702930700082320F40039
:100280000F00F00F6304050013010500E7000B00E9
:0C0290006FF05FE8232094006FF0DFE7C0
:00000001FF
