:10000000EF00C0106F0000000000000000000000C2
:1000100000000000000000000000000000000000E0
:1000200000000000000000000000000000000000D0
:1000300000000000000000000000000000000000C0
:10004000130101FE232E810013040102B7070050A3
:10005000938707012326F4FE8327C4FE83A70700A6
:1000600093F7F70F138507000324C1011301010261
:1000700067800000130101FE232E1100232C810054
:1000800013040102EFF0DFFB930705002306F4FEE3
:10009000EFF01FFB93070500A306F4FEEFF05FFAF5
:1000A000930705002307F4FEEFF09FF9930705007F
:1000B000A307F4FE9307C4FE83A707001385070078
:1000C0008320C10103248101130101026780000024
:1000D000130101FD23268102130401039307050088
:1000E000A30FF4FCB7070050938707012326F4FE03
:1000F0000347F4FD8327C4FE23A0E700130000009C
:100100000324C1021301010367800000130101FEF3
:10011000232E810013040102B70700502322F4FEAE
:10012000B70700102320F4FE232604FE6F004003CF
:100130008327C4FE93972700032704FEB307F70025
:100140008326C4FE37B72211130707B03387E600B2
:1001500023A0E7008327C4FE938717002326F4FE1D
:100160000327C4FE9307F000E3F4E7FC232404FE16
:100170006F008004832784FE93972700032704FEE3
:10018000B307F70003A70700832684FEB7B7221141
:10019000938707B0B387F600630AF700832744FE0E
:1001A0001307F0FF23A0E7006F000000832784FE01
:1001B000938717002324F4FE032784FE9307F0009F
:0801C000E3FAE7FA6F0000000A
:00000001FF
