:10000000EF0040076F00000000000000000000004B
:1000100000000000000000000000000000000000E0
:1000200000000000000000000000000000000000D0
:1000300000000000000000000000000000000000C0
:10004000B707005003A70700130101FF2306E100D3
:1000500003A70700A306E10003A707002307E100A9
:1000600083A70700A307F1000325C10013010101C5
:1000700067800000130101EE232E1110232C811044
:10008000232A9110232821112326311123244111E1
:100090002322511123206111B707004023A007003C
:1000A0009306400037080040130600109307000035
:1000B0006F0080031305F00F6364F7001305000061
:1000C0002320A8001300000013071700E314C7FE45
:1000D0009385F5FF63860500130700006FF09FFD11
:1000E000938717006386C708930540066FF0DFFE0D
:1000F0001305F00F6364F700130500002320A80028
:100100001300000093871700E394C7FE9385F5FF63
:1001100063860500930700006FF01FFE13071700AA
:10012000631AF7049386F6FFE39206F8370400504B
:100130003709004093091000130A2000930A300089
:10014000930420088327040013F7F70F93F7F70FA2
:100150002320F9006316370DEFF09FEE032704000C
:100160001377F70F631C0700930710086F00400A0E
:1001700013070000930540066FF0DFF993568500E2
:10018000B346D50093570501B3C7D70093F7F70FD0
:1001900093568501B3C7D7009306000003260400D9
:1001A000B305D100938616001376F60F2380C500A1
:1001B000B347F60013F6F60FE362E6FE832604006B
:1001C00093F6F60F6396D710930700003306F100FD
:1001D00003460600B306F500938717002380C60088
:1001E00093F6F70FE3E4E6FE93070000B306F5008D
:1001F00003C60600B306F10083C60600631ED600E0
:100200009387170093F6F70FE3E2E6FE93070008E3
:100210002320F4006FF01FF3930730086FF05FFFA7
:10022000631E4703EFF0DFE18327040093F7F70F26
:10023000E38C07F2130700082320E40013070000F3
:10024000B306A70083C60600130717002320D400B7
:100250009376F70FE3E6F6FE6FF0DFEEE31A57FB57
:10026000EFF01FDE130B0500EFF09FDD13578B003F
:100270003347EB0093570B01B3C7E70093F7F70F32
:1002800013578B01B3C7E700B3C7A7001357850007
:100290003347F70093570501B3C7E700032704006E
:1002A00093F7F70F93568501B3C7D7001377F70F6E
:1002B0006390E702930700082320F4000F00F00F7B
:1002C0006304050013010500E7000B006FF09FE7D2
:0802D000232094006FF01FE7EA
:00000001FF
