:10000000EF0080146F0000000000000000000000FE
:1000100000000000000000000000000000000000E0
:1000200000000000000000000000000000000000D0
:1000300000000000000000000000000000000000C0
:10004000130101FE232E810013040102B7070050A3
:10005000938707012326F4FE8327C4FE83A70700A6
:1000600093F7F70F138507000324C1011301010261
:1000700067800000130101FE232E1100232C810054
:1000800013040102EFF0DFFB930705002306F4FEE3
:10009000EFF01FFB93070500A306F4FEEFF05FFAF5
:1000A000930705002307F4FEEFF09FF9930705007F
:1000B000A307F4FE9307C4FE83A707001385070078
:1000C0008320C10103248101130101026780000024
:1000D000130101FD23268102130401039307050088
:1000E000A30FF4FCB7070050938707012326F4FE03
:1000F0000347F4FD8327C4FE23A0E700130000009C
:100100000324C1021301010367800000130101FDF4
:10011000232681021304010393070500A30FF4FCB7
:10012000B70700502326F4FE8347F4FD93E707F852
:1001300093F7F70F138707008327C4FE23A0E70078
:10014000730010006F000000130101FD232611024F
:100150002324810213040103B70700502322F4FE75
:10016000832744FE23A00700B70700102320F4FED6
:10017000232604FE6F0040038327C4FE93972700C5
:10018000032704FEB307F7008326C4FE37B7221106
:10019000130707B03387E60023A0E7008327C4FED8
:1001A000938717002326F4FE0327C4FE9307F0006D
:1001B000E3F4E7FC232404FE6F000004832784FE9D
:1001C00093972700032704FEB307F70003A7070050
:1001D000832684FEB7B72211938707B0B387F60052
:1001E0006306F70013051000EFF05FF2832784FE2B
:1001F000938717002324F4FE032784FE9307F0005F
:10020000E3FEE7FAEFF0DFE393070500A30FF4FC4A
:100210008347F4FD638407100347F4FD832744FEFE
:1002200023A0E7000347F4FD93071000631CF704C5
:10023000EFF05FE4232CA4FCEFF09FE093070500B0
:10024000A30BF4FC032784FDB70700106366F702D5
:10025000032784FDB70700406370F702832784FDFE
:10026000034774FD2380E700834774FD138507006F
:10027000EFF01FE66F00C00A13052000EFF01FE942
:100280006FF05FF80347F4FD930720006312F70453
:10029000EFF05FDE232CA4FC032784FDB7070010DA
:1002A0006362F702032784FDB7070040637CF70011
:1002B000832784FD83C7070013850700EFF05FE104
:1002C0006F00000613053000EFF05FE46FF09FF35E
:1002D0000347F4FD93073000E316F7F2EFF09FD9E0
:1002E000232CA4FC032784FDB70700106362F702E8
:1002F000032784FDB707004063ECE70013050008FF
:10030000EFF01FDD832784FDE78007006F004001C9
:1003100013054000EFF09FDF6FF0DFEE13000000E9
:040320006FF05FEE2D
:00000001FF
