:10000000EF0040076F00000000000000000000004B
:1000100000000000000000000000000000000000E0
:1000200000000000000000000000000000000000D0
:1000300000000000000000000000000000000000C0
:10004000B707005003A70701130101FF2306E100D2
:1000500003A70701A306E10003A707012307E100A7
:1000600083A70701A307F1000325C10013010101C4
:1000700067800000130101EEB7070050232E111016
:10008000232C8110232A911023282111232631119A
:1000900023244111232251112320611123A00700A1
:1000A00093051000930700003705005037860100C4
:1000B000930680003397F5002320E5001307066AB6
:1000C000130000001307F7FFE31C07FE93871700D8
:1000D000E392D7FEB707005023A007003704005073
:1000E00093091000130A2000930A30001309200816
:1000F000930400088327040113F7F70F93F7F70F12
:100100002320F4006310370BEFF09FF30327040163
:100110001377F70F63180700930710082328F400DC
:100120006FF05FFD93568500B346D50093570501E8
:10013000B3C7D70093F7F70F93568501B3C7D7001E
:1001400093060000032604013308D10093861600AD
:100150001376F60F2300C800B347F60013F6F60F28
:1001600093050401E360E6FE83A6050093F6F60F0F
:100170006396D702930700003306F100034606009A
:10018000B386A700938717002380C60093F6F70F66
:10019000E3E4E6FE232894006FF0DFF523A02501B9
:1001A0006FF05FF5631C4703EFF09FE983270401BD
:1001B00093F7F70FE38207F6232894001307000054
:1001C000B306A70083C60600130717002328D40030
:1001D0009376F70FE3E6F6FE6FF0DFF1E31057F5E5
:1001E000EFF01FE6130B0500EFF09FE513578B00B0
:1001F0003347EB0093570B01B3C7E70093F7F70FB3
:1002000013578B01B3C7E700B3C7A7001357850087
:100210003347F70093570501B3C7E70003270401ED
:1002200093F7F70F93568501B3C7D7001377F70FEE
:10023000639CE70023289400630405001301050074
:10024000E7000B006FF01FEB232824016FF09FEAFB
:00000001FF
