:10000000EF00001A6F000000000000000000000078
:1000100000000000000000000000000000000000E0
:1000200000000000000000000000000000000000D0
:1000300000000000000000000000000000000000C0
:10004000130101FE232E810013040102B7070050A3
:10005000938707012326F4FE8327C4FE83A70700A6
:1000600093F7F70F138507000324C1011301010261
:1000700067800000130101FE232E1100232C810054
:1000800013040102EFF0DFFB930705002306F4FEE3
:10009000EFF01FFB93070500A306F4FEEFF05FFAF5
:1000A000930705002307F4FEEFF09FF9930705007F
:1000B000A307F4FE9307C4FE83A707001385070078
:1000C0008320C10103248101130101026780000024
:1000D000130101FD23268102130401039307050088
:1000E000A30FF4FCB7070050938707012326F4FE03
:1000F0000347F4FD8327C4FE23A0E700130000009C
:100100000324C1021301010367800000130101FDF4
:10011000232681021304010393070500A30FF4FCB7
:10012000B70700502322F4FE8347F4FD93E707F856
:1001300093F7F70F13870700832744FE23A0E700F8
:10014000232604FE6F004001130000008327C4FE35
:10015000938717002326F4FE0327C4FEB7470F003A
:100160009387F723E3F2E7FE0347F4FD832744FE7A
:1001700023A0E700232404FE6F00400113000000C9
:10018000832784FE938717002324F4FE032784FE2D
:10019000B7470F009387F723E3F2E7FE6FF0DFF82E
:1001A000130101FB232611042324810413040105F8
:1001B000B70700502320F4FE832704FE23A0070086
:1001C000B7070010232EF4FC232604FE6F00400323
:1001D0008327C4FE939727000327C4FDB307F700C6
:1001E0008326C4FE37B72211130707B03387E60012
:1001F00023A0E7008327C4FE938717002326F4FE7D
:100200000327C4FE93073000E3F4E7FC232404FE35
:100210006F000004832784FE939727000327C4FD03
:10022000B307F70003A70700832684FEB7B72211A0
:10023000938707B0B387F6006306F7001305100035
:10024000EFF0DFEC832784FE938717002324F4FE6E
:10025000032784FE93073000E3FEE7FAEFF05FDE4A
:1002600093070500A30DF4FC0347B4FD832704FEA8
:1002700023A0E7000347B4FD930710006312F716AD
:10028000EFF05FDF930705002322F4FCEFF05FDB64
:1002900093070500A309F4FCA30304FE834734FD80
:1002A00063880700034734FD9307000163F8E70004
:1002B00013051008EFF0DFE16FF05FFA930744FCDD
:1002C0002326F4FC8327C4FC03C70700834774FE7E
:1002D000B347F700A303F4FE8327C4FC93871700FA
:1002E00003C70700834774FEB347F700A303F4FE78
:1002F0008327C4FC9387270003C70700834774FE46
:10030000B347F700A303F4FE8327C4FC93873700A9
:1003100003C70700834774FEB347F700A303F4FE47
:10032000230304FE6F000004EFF09FD19307050044
:10033000A305F4FC834764FE130704FFB307F7002B
:100340000347B4FC2382E7FC034774FE8347B4FCF5
:10035000B347F700A303F4FE834764FE93871700B7
:100360002303F4FE034764FE834734FDE36EF7FA8C
:10037000EFF01FCD9307050013870700834774FE36
:10038000639AE704A30204FE6F004003034754FE90
:10039000832744FC938617002322D4FC938607000E
:1003A000930704FFB387E70083C747FC2380F60069
:1003B000834754FE93871700A302F4FE034754FEBD
:1003C000834734FDE364F7FC13050008EFF05FD0CA
:1003D0006FF0DFE813052008EFF09FCF6FF01FE804
:1003E0000347B4FD93072000E31AF7E6EFF09FC838
:1003F000930705002328F4FA230D04FC930704FB5C
:10040000232AF4FC832744FD03C707008347A4FD88
:10041000B347F700230DF4FC832744FD93871700AF
:1004200003C707008347A4FDB347F700230DF4FC7F
:10043000832744FD9387270003C707008347A4FD54
:10044000B347F700230DF4FC832744FD938737005F
:1004500003C707008347A4FDB347F700230DF4FC4F
:10046000EFF01FBE93070500138707008347A4FD25
:10047000639CE70013050008EFF09FC5832704FB8A
:10048000E78007006FF09FDD13052008EFF05FC4E1
:040490006FF0DFDC4E
:00000001FF
